:020000040000FA
:100000000C9475030C949D030C949D030C949D0318
:100010000C949D030C949D030C949D030C949D03E0
:100020000C949D030C949D030C94D5300C94782F64
:100030000C949D030C949D030C949D030C949D03C0
:100040000C949D030C949D030C949D030C949D03B0
:100050000C94730D0C949D030C949D030C94B303AA
:100060000C949D030C949D030C949D030C949D0390
:100070000C949D030C949D030C949D030C949D0380
:100080000C949D030C949D030C949D030C949D0370
:100090000C949D030C949D030C949D030C949D0360
:1000A0000C949D030C949D030C949D036C6F6361F1
:1000B0006C6C79206275696C74206F6E204170726F
:1000C00020313320323032342061742032323A34DD
:1000D000313A3034004B6579626F617264696F2028
:1000E000417472657573202D204B616C6569646F76
:1000F00073636F7065200014001A00090013000A72
:1001000000000000000D000F0018001C0033000468
:10011000001500160017000700000000000B00117A
:100120000008000C0012001D001B0006001900054D
:1001300000350031000E001000360037003800296D
:10014000002B00E300E1002A00E000E2002C002B7D
:10015000442D003400280002445744520021081E58
:10016000080000000023082400250026002A00269D
:1001700008500051004F00270800000000380021FF
:10018000002200230025082F00300020082F08300F
:1001900008380824082D001E001F0020002E08FF2C
:1001A000FFFFFFFFFFFFFFFFFFFFFFFFFFFFFFFF5F
:1001B000FF370027002E0049004A0052004D004B37
:1001C0000000000000E94840004100420043004CAC
:1001D00000500051004F004E0000000000EA483D72
:1001E000003E003F0044000000000000000000004E
:1001F000000000000000003A003B003C00450054B5
:1002000044FFFFFFFFFFFFFFFFFFFFFFFFFFFF00B8
:100210000046004700CD48544400000000000000A4
:10022000000000000000000000000000000000349A
:10023000D136D138D13AD13ED10000000047D14962
:10024000D14BD14DD14FD135D137D139D13BD13F20
:10025000D143D144D148D14AD14CD14ED156D154B9
:10026000440000000000003CD13DD145D146D10002
:1002700000000000000000434F4C454D414B202B37
:10028000205354454E4F0076657273696F6E0005BA
:10029000010906A101050719E029E71500250175E7
:1002A0000195088102950175088101950575010583
:1002B00008190129059102950175039101950675AB
:1002C00008150025FF0507190029FF8100C0050C4E
:1002D0000901A1018504150026FF0319002AFF0367
:1002E000950475108100C005010906A10185080566
:1002F0000719E029E7150025017501950881020518
:1003000008190129089508750191020507750495DA
:10031000018101190429DD15002501750195DA8196
:1003200002750295018101C005010980A1018505C1
:10033000150026FF00190029FF950175088100C0EE
:10034000656570726F6D2E657261736500656570AD
:10035000726F6D2E6672656500656570726F6D2EC9
:10036000636F6E74656E7473002F007365747469C7
:100370006E67732E6372630073657474696E67735E
:100380002E76657273696F6E0073657474696E673B
:10039000732E76616C69643F0073657474696E676F
:1003A000732E64656661756C744C61796572006B5F
:1003B00065796D61702E6F6E6C79437573746F6DB6
:1003C000006B65796D61702E64656661756C740093
:1003D0006B65796D61702E637573746F6D00454543
:1003E00050524F4D4B65796D61700065736361705C
:1003F000655F6F6E6573686F742E63616E63656CA5
:100400005F6B6579004573636170654F6E65536816
:100410006F740068656C700066616C73650074725F
:10042000756500706C7567696E73006465766963E5
:10043000652E72657365740068656C70000D0A2E18
:10044000004D6163726F73001E0834082008210894
:100450002208240834002608270825082E0836001C
:100460002D003700380027003308330036082E00EF
:10047000370838081F082F003100300023082D08E6
:1004800035002F083108300835084D6F7573654BFE
:10049000657973006D6F7573656B6579732E776120
:1004A00072705F677269645F73697A65006D6F75FA
:1004B00073656B6579732E616363656C5F647572D8
:1004C0006174696F6E006D6F7573656B6579732EFE
:1004D000626173655F7370656564006D6F757365E8
:1004E0006B6579732E696E69745F737065656400FE
:1004F0006D6F7573656B6579732E7363726F6C6C5A
:100500005F696E74657276616C004F6E6553686FDB
:1005100074006F6E6573686F742E6175746F5F6CB5
:100520006179657273006F6E6573686F742E6175A3
:10053000746F5F6D6F6473006F6E6573686F742E98
:10054000737469636B61626C655F6B657973006F6F
:100550006E6573686F742E646F75626C655F74612D
:10056000705F74696D656F7574006F6E6573686F29
:10057000742E686F6C645F74696D656F7574006F5D
:100580006E6573686F742E74696D656F7574004F56
:100590006E6553686F74436F6E6669670051756B63
:1005A000657973006D6163726F732E74726967672A
:1005B0006572006D6163726F732E6D6170004479B6
:1005C0006E616D69634D6163726F730073697A6503
:1005D0003D006B65796D61702E6C617965724E615D
:1005E0006D6573004C617965724E616D657300478E
:1005F000656D696E69505200080B0002020200002E
:100600000904000001020200000524001001052475
:1006100001010104240206052406000107058103E7
:1006200010004009040100020A0000000705020250
:100630004000000705830240000012010002EF02A3
:100640000140091203230001010203014B65796295
:100650006F617264696F00417472657573000403A1
:10066000090405010902A1018501050919012908EB
:100670001500250195087501810205010930093130
:1006800009381581257F750895038106050C0A3800
:10069000021581257F750895018106C005010902B3
:1006A000A101050919012908150025019508750101
:1006B000810205010930093116000026FF7F7510FF
:1006C0009502810209381581257F750895018106FB
:1006D000C0003F0D7E0F6910C71053139016091DFF
:1006E00002253D2A84314D33173411241FBECFEF2C
:1006F000DAE0DEBFCDBF11E0A0E0B1E0E0EAF9E66C
:1007000002C005900D92A83AB107D9F724E0A8EAF3
:10071000B1E001C01D92A33BB207E1F713E0C5E7CA
:10072000D3E004C02197FE010E945E34C936D10790
:10073000C9F70E94A0030C94CE340C9400000895D5
:100740000E9472040E949F0383E094E00E944D3156
:100750000E94A505C0E0D0E00E94C7052097E1F304
:100760000E940000F9CF1F920F920FB60F92112432
:100770002F933F938F939F93AF93BF938091A90142
:100780009091AA01A091AB01B091AC013091A80168
:1007900023E0230F2D3758F50196A11DB11D20939D
:1007A000A8018093A9019093AA01A093AB01B093F3
:1007B000AC018091AD019091AE01A091AF01B091DB
:1007C000B0010196A11DB11D8093AD019093AE01C2
:1007D000A093AF01B093B001BF91AF919F918F9162
:1007E0003F912F910F900FBE0F901F90189526E804
:1007F000230F0296A11DB11DD2CF2FB7F89460919F
:10080000A9017091AA018091AB019091AC012FBF19
:1008100008953FB7F8948091AD019091AE01A091F9
:10082000AF01B091B00126B5A89B05C02F3F19F0CC
:100830000196A11DB11D3FBFBA2FA92F982F882760
:10084000BC01CD01620F711D811D911D42E0660F3B
:10085000771F881F991F4A95D1F708958F929F920D
:10086000AF92BF92CF92DF92EF92FF926B017C0129
:100870000E9409044B015C01C114D104E104F1049C
:10088000E9F00E9483310E940904681979098A09F4
:100890009B09683E73408105910570F321E0C21AFF
:1008A000D108E108F10888EE880E83E0981EA11CAB
:1008B000B11CC114D104E104F10429F7FF90EF90B9
:1008C000DF90CF90BF90AF909F908F90089582302F
:1008D000910538F0880F991F880F991F0597019788
:1008E000F1F70895789484B5826084BD84B5816001
:1008F00084BD85B5826085BD85B5816085BDEEE628
:10090000F0E0808181608083E1E8F0E01082808106
:1009100082608083808181608083E0E8F0E0808174
:1009200081608083E1E9F0E0808182608083808162
:1009300081608083E0E9F0E0808181608083E1EC88
:10094000F0E0808184608083808182608083808108
:1009500081608083E3ECF0E0808181608083E0EC63
:10096000F0E0808182608083E2ECF0E08081816051
:100970008083EAE7F0E08081846080838081826008
:1009800080838081816080838081806880830895F6
:10099000089586E0E8E4F1E0DB0101900D928A958C
:1009A000E1F786E0089588ED92E00E94D5138AE988
:1009B00093E00E94A4278FE193E00E94C72184E185
:1009C00091E00E94731E8DE193E00E94A0208DEDC6
:1009D00092E00E94891580E093E00E94791885E5F5
:1009E00093E00E94DB2687E091E00E947C198EE96B
:1009F00093E00C94CE288EEC92E00E94F81088EDE3
:100A000092E00E94CB138DE193E00E945D208DED7A
:100A100092E00E94491587E091E00E94901982E1DE
:100A200093E00E943D1B80E008958EEC92E00E94CE
:100A3000F71180E00895BC018FE193E00C945924F4
:100A4000CF93DF93EC01BC0184E191E00E94301F61
:100A5000811123C0BE0185E091E00E94F81581114B
:100A60001CC0BE0180E093E00E944118811115C0B6
:100A7000BE0185E593E00E94B82681110EC0BE013B
:100A800087E091E00E94DA19811107C0BE018EE96A
:100A900093E0DF91CF910C94E228DF91CF910895FC
:100AA000BC0187E091E00C94921980E00895CF9307
:100AB000DF93EC01BC0181E093E00E9456198111A3
:100AC00007C0BE0181E093E0DF91CF910C945619ED
:100AD000DF91CF910895CF93DF93EC01BC0184E1C6
:100AE00091E00E94161FBE0187E091E00E94CE1A9D
:100AF00080E0DF91CF9108958FED92E00E94C716BC
:100B00008FE193E00E94C42484E191E00E94871E5B
:100B100087E091E00E94A91A80E00895FB0191818D
:100B200091FF10C090FD0EC0813061F465ED70E062
:100B300080E093E00E9422186CEA70E080E093E08D
:100B40000E94221890E080E0089580914F019091DA
:100B500050010E94FC0A89E00E94F41340E855E22B
:100B600060E070E086EA93E00E94372A60E470E07B
:100B700085E593E00E94872760E870E08AE993E0CA
:100B80000E94BB288091D2028F770C94320C809106
:100B90004F01909150010C94AF0B0F931F93CF9383
:100BA000DF93EC016881798188ED92E00E946714FF
:100BB00081116EC0688179818FED92E00E943A16B2
:100BC000811166C0688179818DEC92E00E94FF11ED
:100BD00081115EC0688179818CEC92E00E94A21242
:100BE000811156C008811981B8018FED92E00E94F1
:100BF0002F168823A1F167E872E086EA93E00E944D
:100C00006C2B84E690E00E946704688179818AE910
:100C100093E00E94B42781113BC0688179818DE106
:100C200093E00E94B020811133C0688179818DEDFD
:100C300092E00E949D1581112BC06881798185E524
:100C400093E00E94EB26811123C06881798182E1C3
:100C500093E0DF91CF911F910F910C94861B47E891
:100C600052E0B8018FED92E00E948616882369F267
:100C700067E772E086EA93E00E943D2B84E690E00D
:100C80000E94670460E286EA93E00E94612BB9CF7C
:100C9000DF91CF911F910F910895CF93DF9300D0F3
:100CA000CDB7DEB79A838983CE0101960E94CD0528
:100CB0000F900F90DF91CF9108950E940A0F0C942E
:100CC000540E0E945D06811104C00E940A0F0C940C
:100CD000F20E85E792E00E94631087E592E00C94A3
:100CE0004C0F0E945D06811104C00E940A0F0C94F3
:100CF000570E85E792E00E94AF0F87E592E00C94D3
:100D00005F0FCF93C82F0E945D06811106C00E941D
:100D10000A0F6C2FCF910C94930E6C2F85E792E005
:100D2000CF910C941310CF93C82F0E945D068111B0
:100D300006C00E940A0F6C2FCF910C94BA0E6C2F34
:100D400085E792E0CF910C943A10CF93C82F83FFA0
:100D500003C081EE0E948106C0FF03C080EE0E94A6
:100D60008106C1FF03C082EE0E948106C2FF03C05C
:100D700086EE0E948106C4FF04C083EECF910C94DE
:100D80008106CF910895CF93C82F892F0E94A50681
:100D90008C2FCF910C9481060E940A0F0E94530E53
:100DA00085E792E00E949F0F87E592E00E94360F50
:100DB0008DEB92E00C948A10E7E5F1E050E040E022
:100DC00070E060E000009191A92FB0E084E0B5955B
:100DD000A7958A95E1F790962C9130E09F7002C01C
:100DE000359527959A95E2F7209530952170332710
:100DF000042E02C0220F331F0A94E2F7622B732BDA
:100E00004F5F5F4F4C305105E9F6CB0108951F93BA
:100E1000CF93DF93C6E0D2E010E0288139818A8148
:100E20009B81482F440F4270522F5170452B09F07F
:100E300005C1AC0156954795440F427021FB5527DB
:100E400050F9452B09F0EFC0AC01569547955695E2
:100E50004795440F427022FB552750F9452B09F066
:100E6000D7C0AC01569547955695479556954795E9
:100E7000440F427023FB552750F9452B09F0BDC0A4
:100E8000AC01529542954F7045275F704527440F3E
:100E9000427024FB552750F9452B09F0A3C0AC0143
:100EA00056954795529542954F7045275F70452757
:100EB000440F427025FB552750F9452B09F087C098
:100EC000AC010024440F551F001C440F551F001C8B
:100ED000452F502D440F427026FB552750F9452BC6
:100EE00009F06AC0AC01440F452F441F550B5195C2
:100EF000440F427027FB222720F9422B09F052C0F1
:100F0000492F440F4270232F2170422B09F040C01B
:100F100031FB222720F9492F4270422B79F5492FC6
:100F20004695427032FB222720F9422BE9F4292F03
:100F300026952695227033FB442740F9422B59F41D
:100F4000998388832A96145F103309F066CFDF9166
:100F5000CF911F9108956BE0610F80E090E00E94B7
:100F6000470D8A819B81ECCF6AE0610F80E090E0C1
:100F70000E94470D39818A819B81D9CF69E0610F39
:100F800080E090E00E94470D39818A819B81C7CF24
:100F900068E0610F80E090E00E94470D39818A810E
:100FA0009B81B6CF67E0610F80E090E00E94470D23
:100FB00039818A819B81A4CF66E0610F80E090E057
:100FC0000E94470D288139818A819B818BCF65E002
:100FD000610F80E090E00E94470D288139818A816D
:100FE0009B816ECF64E0610F80E090E00E94470D2E
:100FF000288139818A819B8152CF63E0610F80E033
:1010000090E00E94470D288139818A819B8138CFE9
:1010100062E0610F80E090E00E94470D28813981F5
:101020008A819B811ECF61E0610F80E090E00E9489
:10103000470D288139818A819B8106CF612F80E00D
:1010400090E00E94470D288139818A819B81F1CEF1
:10105000FC019081DB018C91981305C081E0218116
:1010600011969C91291380E008951F93CF93DF93ED
:1010700000D000D0CDB7DEB7182F803368F5E82F49
:10108000F0E0EE0FFF1FE25FFB4F808191819C83B8
:101090008B838FEF89838A83BE016F5F7F4FCE0181
:1010A00003960E942808882369F0A12FB0E0A85475
:1010B000BE4FE0910201F0910301612F8C910995DF
:1010C0008B839C838B819C810F900F900F900F904E
:1010D000DF91CF911F91089510926E0410926F04CA
:1010E000EEE6F4E0D2CFCF93DF93EB01CB010E9489
:1010F0005005823019F1D63419F4C770C052D0E0CF
:101100008D2F807C51F480E28C0F883008F0D0E085
:10111000CE01DF91CF910C94C3068D2F887C88344B
:1011200069F46D2F70E0762F66276C0F711D737058
:1011300087E592E0DF91CF910C94370FDF91CF914B
:1011400008958F929F92BF92CF92DF92EF92FF927B
:101150000F931F93CF93DF9300D000D000D0CDB773
:10116000DEB77C016B010E94610610E000E0BB2449
:10117000BA940033110599F1F6019081901729F185
:10118000003330F5F801EE0FFF1FE25FFB4F808068
:1011900091809E828D82BB82BC82BE016D5F7F4F3B
:1011A000CE0105960E94280881110FC019821A826B
:1011B000BE016F5F7F4FCE0105960E942808811106
:1011C00004C0B401C7010E9473080F5F1F4FD1CF45
:1011D00010926E0410926F04EEE6F4E0D8CF2696DB
:1011E0000FB6F894DEBF0FBECDBFDF91CF911F9138
:1011F0000F91FF90EF90DF90CF90BF909F908F90D6
:101200000895EF92FF920F931F93CF93DF938C017A
:10121000EB01898181FF42C080FD40C08B81807CD1
:10122000E9F5888180930101FA800E945D068111B1
:101230002FC00E940A0F6F2D0E94F90E882301F122
:10124000FB80EA80F3FE03C081EE0E949306F0FE6D
:1012500003C080EE0E949306F1FE03C082EE0E945E
:101260009306F2FE03C086EE0E949306F4FE03C0CE
:1012700083EE0E9493068E2D0E9493060E947106B3
:101280008B81882381F00E94A5060E9471060BC005
:101290006F2D85E792E00E94FD0FD0CFE091010114
:1012A0008881E81317C0898181FF07C080FD05C0D0
:1012B0006A817B81C8010E947308CE010E94570594
:1012C0008230E9F0DF91CF911F910F91FF90EF9065
:1012D0000C947106E03360F4F0E0EE0FFF1FE25F64
:1012E000FB4F8181982F907CF1F60E94A506DBCF01
:1012F00010926E0410926F04EEE6F4E0F2CFDF91EC
:10130000CF911F910F91FF90EF900895FF920F934F
:101310001F93CF93DF93CDB7DEB72D970FB6F89419
:10132000DEBF0FBECDBF8C0129873A874B875C8714
:101330006D87203348F430FF75C031FD73C0898557
:101340000E9435089C878B87CE0109960E94200554
:10135000823009F45BC0E985E03368F49A85F0E0F7
:10136000EE0FFF1FE25FFB4F90FF69C091FD67C06A
:101370009FEF90839183811149C01F821886BE011F
:10138000695F7F4FCE010B960E94280881113EC0F5
:101390001D821E82BE016B5F7F4FCE010B960E94A5
:1013A0002808811133C0FF24FA94FB82FC82BE011D
:1013B0006D5F7F4FCE010B960E942808811126C0D9
:1013C000F982FA82BE016F5F7F4FCE010B960E94B9
:1013D000280881111BC08C858D7F843421F4CE01B7
:1013E00009960E94A90C8C85843481F08F7C81340D
:1013F00099F58A851B8581FF26C080FD24C0612F59
:101400008DEB92E00E94AF101093FD012D960FB668
:10141000F894DEBF0FBECDBFDF91CF911F910F912A
:10142000FF9008958FEF89838A83BE016F5F7F4F9E
:10143000CE010B960E942808811181CF85CF9C8513
:101440002B85208397CF8091FD018113DFCF8DEB1A
:1014500092E00E94AD10DACFBE01675F7F4FC801F6
:101460000E94A108BE01675F7F4FC8010E94010969
:10147000CE0109960E946B05C9CFEF92FF920F93A0
:101480001F93CF93DF9300D000D000D01F92CDB731
:10149000DEB7022F2B833C834D835E836F83203323
:1014A00008F042C07C01832F817031FF22C081117E
:1014B0003BC08FEF89838A83BE016F5F7F4FCE0170
:1014C00005960E942808882329F0802F0E9435085D
:1014D0009E838D83CE0103960E941B05811124C03B
:1014E0002B813C814D815E816F81C7010E948609FD
:1014F0001BC08823C9F010E0000F111F025F1B4FB3
:10150000F801808191819E838D8319821A82BE01A8
:101510006F5F7F4FCE0105960E9428088823D1F285
:101520008FEFF8018083818327960FB6F894DEBF92
:101530000FBECDBFDF91CF911F910F91FF90EF9024
:101540000895CF930FB6F894A895809160008861B4
:1015500080936000109260000FBEA7E5B1E043E603
:1015600051E061E070E08D91E82FF0E024E0F59526
:10157000E7952A95E1F7C1A18F709B0101C0220F69
:101580008A95EAF7922F90959C2391A382A1822BB2
:1015900082A34A175B0739F7A3E6B1E047E651E0BB
:1015A00061E070E08D91E82FF0E094E0F595E7952B
:1015B0009A95E1F791A18F709B0101C0220F8A9546
:1015C000EAF7922B91A382A1822B82A34A175B0791
:1015D00049F780E1809381001092800080EE9EE2C6
:1015E000909387008093860081E18093810081E061
:1015F00080936F00CF9108950E94CC0680E092E026
:101600000E94A10A40E855E260E070E086EA93E0BB
:101610000E94372A0E94C8040E94FB04EEE0F4E016
:1016200081E39FEF815021F0908391833296FACF2E
:1016300087EB91E00C94300C6F927F928F929F9287
:10164000AF92BF92CF92DF92EF92FF920F931F93D0
:10165000CF93DF9323E6E22E21E0F22EC6E0D2E024
:1016600037E6632E31E0732E912C812CAA24A394AB
:10167000B12CF70181917F01082F10E01595079596
:10168000159507951595079515950795F80192A15C
:101690008F70650101C0CC0C8A95EAF7892F8C25E3
:1016A00082A30E94DC06F80122A1C226C2A24885BC
:1016B0005985842795276C817D812E813F8126273E
:1016C0003727282339233F832E83FB01E095F095AC
:1016D000E823F923FD83EC83862397232095309517
:1016E000822393234827592759874887882A992A8C
:1016F0008114910401F180910E0290910F02909358
:101700000902809308028091180290911902909327
:1017100013028093120280912202909123029093EF
:101720001D0280931C0280912C0290912D029093B7
:101730002702809326022A966E147F0409F099CF1F
:10174000DF91CF911F910F91FF90EF90DF90CF909D
:10175000BF90AF909F908F907F906F9008950E9460
:10176000FD036093B3017093B4018093B50190932E
:10177000B6018091B101E0910202F0910302019063
:10178000F081E02D8823D9F082E092E00995811163
:1017900006C01092B1010E940A0F0E94060F0E941B
:1017A000150580910002882331F01092000280E03C
:1017B00092E00E941C0B0E9407070C947C0582E0BB
:1017C00092E00995882359F381E08093B101E7CF36
:1017D00070E090E3899F600D711D1124660F771FE3
:1017E000FB01E950FF4F8491FB01E850FF4F9491BA
:1017F0000895EF92FF920F931F93CF93DF93E8EB3F
:10180000F1E080E3DF011D928A95E9F77F0100E0B6
:101810000033F9F0C0910401D0E0C851DE4FB1E0CF
:10182000C83EDB0789F01A911A3208F01A52E0918B
:101830000201F0910301602F812F09958F3F11F470
:101840009F3F69F3F70110830F5FFFEFEF1AFF0A65
:10185000DFCFDF91CF911F910F91FF90EF9008950F
:101860000C94F90B90910001891748F491E0909342
:1018700004018093E8010E94F90B0C94550508952A
:10188000CF93C091040190E0BC016F5F7F4F4C2F5C
:1018900050E0461B570B68517E4F88519E4F0E9467
:1018A000A634C150C0930401CF9108954091040122
:1018B00050E090E0682F70E0292F092E000C330BC8
:1018C0002417350764F428513E4FF9012081022E78
:1018D000000C330B2617370719F09F5FEDCF9FEFF2
:1018E000892F0895CF9396ED980F8A3208F4982F98
:1018F000209100019217C8F4C82F0E94560C87FF50
:101900000E94400CE0910401E03110F080E0F8CF3B
:1019100081E08E0F80930401F0E0E851FE4FC08318
:101920000E94F90BCF910C945505CF9108950E9418
:10193000560C87FD0DC090910401923018F480E0A0
:101940000C94320C0E94400C0E94F90B0C9455052B
:1019500008950F931F93CF93FC01C2819181292F8A
:1019600022708381863479F5C695C695C695C65D85
:101970008F0186ED8C0F35EB3C0F323008F060C0E4
:101980002223E9F090FD1BC0E0910401F0E0E95151
:10199000FE4F90819A3208F09A528232B1F59F5FE1
:1019A00080910001981798F1D801EC91E03338F458
:1019B000F0E0EE0FFF1FE25FFB4F10821182CF912C
:1019C0001F910F910895C43558F02223C1F390FD63
:1019D000F6CF8CEA8C0FCF911F910F910C94320CA3
:1019E000CA3230F6222359F390FDE9CF3091040139
:1019F000E8EEF1E020E08FEF321789F191919A3211
:101A00000CF0982F2F5F892FF7CF9150C9CFCAE2E2
:101A1000C90F8C2F0E94720CD801EC91E03348F46E
:101A2000F0E0EE0FFF1FE25FFB4FC08384E4818391
:101A3000C6CF10926E0410926F04EEE6F4E0F5CF7C
:101A40008C2F222399F090FD11C00E94560C87FF25
:101A5000B6CF8C2FCF911F910F910C94720C082E42
:101A6000000C990BC8171906A1F78C2FCF911F9165
:101A70000F910C94970C83E094E00C946031E8EFA4
:101A8000F1E0158285E591E0938782870895CF93F1
:101A9000DF9300D000D01F92CDB7DEB7262F342FB2
:101AA000842F817041FF15C0811115C080910D04F4
:101AB00061E0680F60930D044FEF5FEF82EB91E000
:101AC0000F900F900F900F900F90DF91CF910C948B
:101AD0003D0A8111EBCF0F900F900F900F900F9058
:101AE000DF91CF9108951F920F920FB60F9211249C
:101AF0008F9381E0809300028F910F900FBE0F9023
:101B00001F901895FC0182818F5BFB01808381E02F
:101B10000895CF93DF93CDB7DEB769970FB6F894EA
:101B2000DEBF0FBECDBFFC01DB019C919F5F9C938C
:101B30009E012D5F3F4F81E1D9011D928A95E9F702
:101B400029E0298384E08A8391E09D8383E08E836A
:101B50009F8398872A8721E22B879C879D879F8771
:101B600022E2288B2FE3298B27E02B8B25E02C8B7F
:101B70008E8B20E430E0388F2F8B998F82818B837E
:101B8000838180688D8B49E150E0BE016F5F7F4F9C
:101B900080E00E94272F69960FB6F894DEBF0FBE33
:101BA000CDBFDF91CF910895FB012081213891F4C1
:101BB0002381223279F4DC0112962C918481958163
:101BC0002817190639F44FE350E06FE872E080E817
:101BD0000C94272F90E080E00895FC01DB01228126
:101BE00014968D919C9115972817190691F51196C9
:101BF0008C9111979C91913A69F4813029F083304E
:101C000029F4848D8093F10081E00895823009F5F4
:101C1000858DF8CF9132E9F48B3021F412968C91B6
:101C2000848FF2CF8A3021F412968C91858FECCF7D
:101C3000893079F4CF0116962D913C911797139620
:101C40004C91423041F461E070E04E962130310514
:101C500051F080E008954130E1F728303105C9F7AF
:101C600068E070E00B960E944D2FCECFCF93DF93AC
:101C7000EC0181E08C838D83CE014B969F838E8314
:101C8000198618868BE691E0998388836A876C8F22
:101C90001D8E1E8E81EC8B8F0E941A2BBE01DF9150
:101CA000CF910C94D62A0895FC01848D0895EF926B
:101CB000FF920F931F93CF93DF938C01EC012B9630
:101CC0007C0183E1E80EF11C48E050E0BE01C70151
:101CD0000E949034892B21F1F801838148E050E083
:101CE000BE0180640E94762E8C01E0915502F09135
:101CF0005602309731F09C0148E050E0BE0182E08E
:101D0000099588E0FE01D70101900D928A95E1F7CF
:101D1000C801DF91CF911F910F91FF90EF9008952F
:101D20000FEF1FEFF5CFFC0180E2860F883070F4D3
:101D3000605E770B21E030E001C0220F6A95EAF780
:101D40008385822B838781E090E00895DF011D96D3
:101D500090E080E02D912617B1F3211104C0E80F27
:101D6000F91F6587F0CF01968630910599F790E0CD
:101D700080E00895CF93DF9320E2260F283090F47F
:101D8000605E770B21E030E001C0220F6A95EAF730
:101D90002095FC0133852323238781E090E0DF91A8
:101DA000CF910895DC011D969C012D5E3F4FFD01F2
:101DB0004191461303C0EF0121971882E217F30700
:101DC000B9F720E03D91332349F0EC01C20FD11D5A
:101DD0004D853D87ED01219748832F5FAE17BF07E3
:101DE00089F7DBCF0B9628E0FC0111922A95E9F7E1
:101DF0000895FC013D9643962191261729F0E81796
:101E0000F907D1F780E0089581E00895FC0122856B
:101E1000248F089580912E02811108C061E086E32D
:101E200092E00E94360E81E080932E0286E392E0DB
:101E3000089580916702811113C010927002109270
:101E40006F028EEC92E0909372028093710289E1AE
:101E500090E0909374028093730281E08093670214
:101E60000E94E5326FE672E00C9450320895FC0156
:101E700030E020E041915191452B41F4220F331F76
:101E8000280F391FF9017183608308952F5F3F4F39
:101E90002430310579F7089528E0FC0111922A9544
:101EA000E9F70895CF93DF93EC010E94E53228E033
:101EB00030E0AE0164E0DF91CF910C94A0320F933B
:101EC0001F93CF93DF93EC018C01085F1F4F48E015
:101ED00050E0BC01C8010E949034892B51F0CE0122
:101EE0000E94520F88E0FE01D80101900D928A9560
:101EF000E1F7DF91CF911F910F91089587E592E06F
:101F00000C94190F8091AF02811113C01092B80286
:101F10001092B70287EE92E09093BA028093B902D2
:101F200081E490E09093BC028093BB0281E08093B7
:101F3000AF020E94E53267EB72E00C9450320895D4
:101F4000CF93DF93EC010E94E532AE01435E5F4F19
:101F50002DE130E068E0DF91CF910C94A032EF9258
:101F6000FF920F931F93CF93DF93EC01F8808D8D39
:101F70008E010F5F1F4F8F15D9F0F801AE01435E40
:101F80005F4F20E0858D30813196932F9095982377
:101F900019F08323848F21E0E417F50799F72223B2
:101FA00019F0CE010E94A00FFD8ECE010E94A00F5D
:101FB0007E018EE1E80EF11C4CE150E0B801C70152
:101FC0000E949034892B81F08CE1F801D7010190B7
:101FD0000D928A95E1F7CE01DF91CF911F910F917C
:101FE000FF90EF900C94A00F8FEF9FEFDF91CF91B8
:101FF0001F910F91FF90EF9008956E3D90F4E62FA2
:10200000E695E695E695E80FF92FF11D677021E05A
:1020100030E001C0220F6A95EAF79181922381E0B6
:1020200009F480E008956E3DA0F4E62FE695E6956C
:10203000E695E80FF92FF11D677021E030E001C04F
:10204000220F6A95EAF78181822B818381E090E0FB
:102050000895605E683058F441E050E001C0440FDC
:102060006A95EAF7FC012081242B2083EFCF90E0D2
:1020700080E008956E3DA8F4E62FE695E695E69596
:10208000E80FF92FF11D677021E030E001C0220F49
:102090006A95EAF7209581812823218381E090E0E9
:1020A0000895605E683060F421E030E001C0220FE6
:1020B0006A95EAF72095FC01308123232083EECF37
:1020C00090E080E008952DE1FC0111922A95E9F756
:1020D000089585E792E00C94820F8091BE028111F1
:1020E00013C01092C7021092C60288E293E0909348
:1020F000C9028093C80288E190E09093CB0280935C
:10210000CA0281E08093BE020E94E53266EC72E072
:102110000C94503208950F931F93CF93DF93EB01EC
:102120008A010E94E5329801AE0165E0DF91CF910E
:102130001F910F910C94A032CF93DF931F92CDB7D4
:10214000DEB7198241E050E0BE016F5F7F4F0E9411
:102150008B100F90DF91CF9108950C949C10CF932A
:10216000DF931F92CDB7DEB76983633841F483E014
:1021700094E00E9467310F90DF91CF91089541E084
:1021800050E0BE016F5F7F4F0E948B10F4CF8DEB4C
:1021900092E00C946D1084E690E00C9467044AE0A1
:1021A00050E0682F86EA93E00E94262C0E94CB1014
:1021B00060E286EA93E00E94612B0C94CB10FF92C0
:1021C0000F931F93CF93DF93EC01F62E08811981B3
:1021D000C8010E94B834F81621F06F2DC8010E9482
:1021E000C034CE01DF91CF911F910F91FF900895E0
:1021F000AF92BF92CF92DF92EF92FF920F931F9315
:10220000CF93DF9300D0CDB7DEB78C016C0184E0B3
:10221000C80ED11C5601F12CE12CC7010E94B83424
:10222000F50181935F01FFEFEF1AFF0A84E0E816E2
:10223000F10499F7F80185818F3FD1F48481982FBB
:102240009F779F3711F487FD148281E0F801858321
:1022500010E000E01A830983F60161916F01CE015D
:1022600001960E94DF100F5F1F4F0430110591F798
:1022700080E00F900F90DF91CF911F910F91FF9011
:10228000EF90DF90CF90BF90AF9008950F931F9382
:10229000CF93DF9300D0CDB7DEB77A836983FC019B
:1022A000238110E000E021110FC000811181CB01DA
:1022B000800F911F9183808342E0BE016F5F7F4F4B
:1022C00086ED92E00E947313C8010F900F90DF918A
:1022D000CF911F910F910895CF92DF92EF92FF92CD
:1022E0000F931F93CF93DF9300D0CDB7DEB77C0160
:1022F0006C0184E0C80ED11C10E000E01A83098351
:10230000F60161916F01CE0101960E94DF100F5F0F
:102310001F4F0430110591F781E0F70182830F9080
:102320000F90DF91CF911F910F91FF90EF90DF9071
:10233000CF9008951F93CF93DF93EC01162F8091D8
:102340000001681748F4862F0E94320C8C81807837
:10235000912F9F77892B8C831E3720F08C8180787A
:102360008E678C83CE010E946C118C818F77DF91F8
:10237000CF911F910895FC01948160FB97F994839C
:10238000892F8F778F3719F490789E679483CF01C8
:102390000C946C11CF93DF93EC0181E08B8360E1AF
:1023A00086ED92E00E945A138D81813021F01A82CD
:1023B000DF91CF9108952E813F818091D602909137
:1023C000D7022F3F320779F49F838E83CE010E947C
:1023D0006C1181E08A838C818F778E3748F7DF918B
:1023E000CF910C94320C2817390711F7F2CFFC016A
:1023F0002381211102C00E94CA1180E00895CF9369
:10240000DF93EB018FED92E00E942F16882311F1EC
:1024100069E973E086EA93E00E946C2B0E94CB107E
:1024200069E873E086EA93E00E946C2B0E94CB106F
:1024300068E773E086EA93E00E946C2B0E94CB1061
:102440006BE673E086EA93E00E946C2B0E94CB104F
:1024500080E061C049E953E0BE018FED92E00E9447
:102460008616882391F08FED92E00E9493168111D9
:1024700065C041E070E060E086EA93E00E94C92C0C
:102480008EEC92E00E949A1145C049E853E0BE01EB
:102490008FED92E00E948616811140C048E753E01C
:1024A000BE018FED92E00E94861681112FC04BE68F
:1024B00053E0BE018FED92E00E948616882341F220
:1024C0008091D102D0E0C0E0882321F0C091D402F5
:1024D000D091D5026091D6027091D7024AE050E0C7
:1024E00086EA93E00E942D2C0E94CB1069E673E0EF
:1024F00086EA93E00E943D2B0E94CB104AE050E018
:10250000BE0186EA93E00E942D2C15C08091D30273
:102510000E94CF1081E0DF91CF9108956091D002A9
:102520008FED92E00E9424160E94CB1060E286EAB2
:1025300093E00E94612B0E94CB10ECCF8091D202DD
:102540008F77E6CF0F931F93CF93DF9300D0CDB754
:10255000DEB78B018FED92E00E942F16882301F1E8
:1025600069E573E086EA93E00E946C2B0E94CB1031
:102570006DE473E086EA93E00E946C2B0E94CB101E
:1025800060E473E086EA93E00E946C2B0E94CB101B
:1025900080E00F900F90DF91CF911F910F910895E0
:1025A00049E553E0B8018FED92E00E94861688233A
:1025B00011F18FED92E00E94931610E000E081117E
:1025C00066C08FED92E00E94931681115EC041E0DB
:1025D00070E060E086EA93E00E94C92C1A830983C8
:1025E000CE0101960E94DF100F5F1F4F011584E09E
:1025F000180739F74AC04DE453E0B8018FED92E077
:102600000E94861681112AC040E453E0B8018FED84
:1026100092E00E948616882309F4BBCF10E000E008
:102620001A8309836FEFCE0101960E94DF100F5FBE
:102630001F4F011584E0180799F787E797E79093F4
:1026400001088093000888E19BE00FB6F894A895F4
:10265000809360000FBE90936000FFCF8091CE0208
:102660009091CF0260E074E0681B790B4AE050E083
:1026700086EA93E00E942D2C0E94CB1060E286EA4D
:1026800093E00E94612B0E94CB1081E082CFC801B1
:102690000E94B8340E94CF100F5F1F4F011584E0D5
:1026A0001807A9F7F2CF84E090E09093CF028093CF
:1026B000CE020895FC01208131812170332781E011
:1026C000861770F440815181569547955183408318
:1026D000220F331F41705527242B352B8F5FF0CFEE
:1026E000318320830895DC01FB01415000F1819189
:1026F0002D913C91119768E070E051E0982F95235F
:1027000099F4932F991F9927991F220F331F99230B
:1027100019F095E029273058550F6150710971F76C
:1027200011963C932E93E1CF932F9095EBCF089584
:1027300084E690E00C9467041F93CF93DF9390910D
:10274000DA02891730F080E090E0DF91CF911F919D
:102750000895C62FD0E090E3899FC00DD11D1124AC
:10276000CC0FDD1F6091DB027091DC02C60FD71F1A
:10277000CE010E94B834182FCE0101960E94B834C1
:10278000912FE3CF9091D902891710F40C94E80BA4
:10279000891B0C949C138EEC92E00E94F81080919F
:1027A00000018093D90280E008956EED73E086EA1F
:1027B00093E00E943D2B0E94981386EA93E00E94CA
:1027C000682B0E94981380E008958093DA0290E6C7
:1027D000899FB00111248EEC92E00E9446119093E3
:1027E000DC028093DB020895809300019091D20275
:1027F0002CE933E197FD07C09091D902980F90938F
:10280000000122EC33E130930301209302010C9488
:10281000E513FF920F931F93CF93DF9300D0CDB7B3
:10282000DEB7F62E672F8C01000F111F8091DB029F
:102830009091DC02800F911F9A838983CE010196CB
:102840000E94DF108091DB029091DC020196800FE4
:10285000911F9A8389836F2DCE0101960E94DF100C
:102860000F900F90DF91CF911F910F91FF900895DE
:10287000FF920F931F93CF93DF93F82E8B01C0E04D
:10288000CF15F9F0D0E06D2F8C2FF8010995692F45
:1028900070E0762F6627680F711D4AE050E086EAE7
:1028A00093E00E942D2C0E94981360E286EA93E048
:1028B0000E94612B0E949813DF5FD03321F7CF5F16
:1028C000DFCFDF91CF911F910F91FF900895FF927D
:1028D0000F931F93CF93DF931F92CDB7DEB78B017A
:1028E0008FED92E00E942F16882301F160ED73E0D6
:1028F00086EA93E00E946C2B0E94981361EC73E0CF
:1029000086EA93E00E946C2B0E9498136FEA73E0B2
:1029100086EA93E00E946C2B0E94981380E00F904F
:10292000DF91CF911F910F91FF9008954FEA53E0EF
:10293000B8018FED92E00E9486168823F1F18FEDA9
:1029400092E00E9493168823B1F06091D20267FB57
:10295000662760F94AE050E086EA93E00E94262C60
:102960000E94981360E286EA93E00E94612B0E9425
:10297000981381E0D4CF41E070E060E086EA93E014
:102980000E94C92C162F69838EEC92E00E94BB1125
:102990009091DA0290930001112339F08CE993E1D0
:1029A0009093030180930201E4CF8091D902890FB3
:1029B0008093000182EC93E1F3CF41EC53E0B80146
:1029C0008FED92E00E948616882339F068EE7BE056
:1029D0008091D9020E943814CCCF40ED53E0B80169
:1029E0008FED92E00E948616882309F497CF8FED31
:1029F00092E00E94931610E000E090E3F92E882305
:102A000029F06CE973E18091DA02E4CF8FED92E076
:102A10000E9493168111ADCF8091DA028F9DC00183
:102A200011240817190708F0A4CF41E070E060E016
:102A300086EA93E00E94C92C272F3327722FC80102
:102A40000E9409140F5F1F4FE1CFFF920F931F9356
:102A5000CF93DF93EC018B01FB01F0800E94B8342F
:102A6000F81621F06F2DCE010E94C034F801F180DC
:102A70002196CE010E94B834F81621F06F2DCE01B8
:102A80000E94C034C801DF91CF911F910F91FF9038
:102A90000895CF92DF92EF92FF920F931F93CF93FF
:102AA000DF937C0162E070E08EEC92E00E944611C0
:102AB000EC01F701918380838C016C01F2E0CF0E71
:102AC000D11C0C151D0540F4C8010E94B8348F3F7D
:102AD00041F40F5F1F4FF5CF65E071E0CE010E941A
:102AE0002515F701C081D181CE010E94B8348093B1
:102AF0000501CE0101960E94B8348093060180E062
:102B0000DF91CF911F910F91FF90EF90DF90CF90C9
:102B1000089565E074E086EA93E00E943D2B84E628
:102B200090E00E94670486EA93E00E94682B84E6A6
:102B300090E00E94670480E008950F931F93CF9365
:102B4000DF93EC018B018FED92E00E942F1688231A
:102B500061F06BEE73E086EA93E00E946C2B84E6F2
:102B600090E00E94670480E032C04BEE53E0B80171
:102B70008FED92E00E9486168823A9F38FED92E0F4
:102B80000E949316882341F16091060170E0762F30
:102B9000662780910501680F711D4AE050E086EAC2
:102BA00093E00E942D2C84E690E00E94670460E28E
:102BB00086EA93E00E94612B84E690E00E9467041D
:102BC00065E071E0888199810E94251581E0DF919F
:102BD000CF911F910F91089541E070E060E086EA87
:102BE00093E00E94C92C6093050170930601E8CF21
:102BF000CF93DF93DC01EB019A818C91981305C090
:102C00002B8111968C91281749F09E3721F080E096
:102C1000DF91CF9108958B81813DC9F7898181FF33
:102C2000F6CF80FDF4CF87FDF2CF84E191E00E94E2
:102C30007E1D882361F361E084E191E00E94E51D3F
:102C40001A821B8281E0E4CF611106C068E174E062
:102C500086EA93E00C943D2B6EE174E0F9CFCB0152
:102C600063E174E00E94873421E0892B09F020E0C1
:102C7000822F0895CF93DF93EB010E942F168823B4
:102C800001F168E374E086EA93E00E946C2B84E62D
:102C900090E00E9467046BE274E086EA93E00E9491
:102CA0006C2B84E690E00E94670463E274E086EA9D
:102CB00093E00E946C2B84E690E00E94670480E021
:102CC00022C06BE274E0CE010E948734892B89F424
:102CD00087E797E7909301088093000888E19BE0DD
:102CE0000FB6F894A895809360000FBE9093600093
:102CF000FFCF63E274E0CE010E948734892BF9F69E
:102D00000E94D30481E0DF91CF910895CB01BA01F5
:102D10000E94873421E0892B09F020E0822F08955A
:102D20001092FF0208958F929F92AF92BF92CF921E
:102D3000DF92EF92FF92C090AA03D090AB03E09095
:102D4000AC03F090AD030E94FD034B015C0186EAE9
:102D500093E00E9449298A30910569F097FF15C0D8
:102D60000E94FD03681979098A099B096C157D0584
:102D70008E059F0560F381E0FF90EF90DF90CF908C
:102D8000BF90AF909F908F90089580E0F5CFCF9344
:102D9000DF93EC0186EA93E00E945F2986EA93E0E4
:102DA0000E946229892B09F442C086EA93E00E94BE
:102DB00049290A9799F186EA93E00E9472298032A4
:102DC0009105E1F4CE010E944D0686EA93E00E944F
:102DD0006229892B31F086EA93E00E9472290A97D2
:102DE000A1F76DE374E086EA93E00E946C2B18A2D1
:102DF00080E2FE0111928A95E9F719C0E8A191E0FD
:102E00009E0F98A3EC0FFD2FF11D80839F3130F4AE
:102E100086EA93E00E946229892B39F686EA93E0DC
:102E20000E9449290A9771F288A18F3158F680E0F3
:102E3000DF91CF910895FC0184913196949108958A
:102E40008F929F92AF92BF92FF920F931F93CF9357
:102E5000DF93EB01209709F4A4C0F12C8E010F5FE2
:102E60001F4FFE018491EFEFE80FED3008F099C09D
:102E7000F0E0E35CF84E0C945E347A1786178F17F7
:102E80009C17A917B617BF17C8177E177E177E178E
:102E90004A1765178F2C912CB12CA12CB801F80181
:102EA00084916F5F7F4F0E5F1F4FFB016491611133
:102EB00002C0882319F1782F81E093E00E94311934
:102EC000C501B4010E942E04E9CF8F2C912CB12CA6
:102ED000A12C0F5F1F4FF80131976491662371F0A9
:102EE00070E081E093E00E943119C501B4010E94B5
:102EF0002E04EFCF2296F801F4908E016F2D70E032
:102F000090E080E00E942E04E801A8CF2296F8010C
:102F1000649170E090E080E00E942E04EECFF80112
:102F200074918E010D5F1F4FFE013296649181E016
:102F300093E00E948D18E2CFF80174918E010D5F2D
:102F40001F4FFE013296649181E093E00E94C81801
:102F5000D5CFF80174918E010D5F1F4FFE0132969F
:102F6000649181E093E00E943119C8CF2296F80164
:102F7000649170E081E093E00E948D18BECF2296AC
:102F8000F801649170E081E093E00E94C818B5CF29
:102F90002296F801649170E081E093E00E9431197B
:102FA000ACCFDF91CF911F910F91FF90BF90AF9069
:102FB0009F908F900895862F90E06134E0F46A33FB
:102FC000B0F5603269F170F46A3039F130F482E2C0
:102FD000683050F590E080E008956B31D9F790E0CB
:102FE00089E208956133F8F4880F991F8A5F9B4F37
:102FF0000E941B170895613638F46B35E8F0880F8E
:10300000991F80549C4FF4CF6B37D0F06F3710F777
:10301000880F991F84579C4FEBCF90E088E208956A
:1030200090E08CE208958DEE860F90E00895880F71
:10303000991F8C509C4FDCCF83EC860F98E008954D
:1030400083EAF2CF0F931F93CF93DF938C01EB01B1
:10305000FE016491662371F0C8010E94DB178111A3
:1030600002C0992329F0BC0181E093E00E9431194C
:103070002196EECF90E080E0DF91CF911F910F91EC
:1030800008950F931F93CF93DF93EB012B8130E0D3
:10309000322F22274A8150E0BA017056260F371F7F
:1030A0002F3F310509F0F8F48C01BE01842F0E94F6
:1030B0008E05BC01C8010E942017898180FF02C0D3
:1030C00081FF0DC08A8190E090562B8130E0322F35
:1030D0002227820F931F8F3F910529F020F081E076
:1030E00093E00E94F01880E0DF91CF911F910F9143
:1030F000089561E474E086EA93E00E943D2B84E643
:1031000090E00E94670486EA93E00E94682B84E6C0
:1031100090E00E94670480E00895EF92FF920F9381
:103120001F93CF93DF9300D000D01F92CDB7DEB7AF
:103130008C01F62EE72E60910D048FEF898382E8D3
:103140008A83FB827C836D832FEF32E84F2D572FCC
:1031500082EB91E00E948609C8014096F801E817C9
:10316000F90741F02081211111C0218121110EC0E8
:10317000F082E1820F900F900F900F900F90DF91EF
:10318000CF911F910F91FF90EF9008953296E7CF66
:10319000CF93DF9300D000D01F92CDB7DEB7AB0145
:1031A0009C01205F3F4FFC012E173F0751F08081AB
:1031B000841305C08181851302C01082118232966A
:1031C000F3CF60910D042FEF31E882EB91E00F9087
:1031D0000F900F900F900F90DF91CF910C94860974
:1031E000CF92DF92EF92FF920F931F93CF93DF93D3
:1031F00000D000D01F92CDB7DEB77C0120E1E20EF7
:10320000F11C8C01DD24DA9481E8C82EE016F10669
:10321000D1F0F80140815181411102C0552381F064
:1032200060910D04D982CA824B835C836D832FEF3A
:1032300031E882EB91E00E948609F8011082118248
:103240000E5F1F4FE3CF0F900F900F900F900F90D6
:10325000DF91CF911F910F91FF90EF90DF90CF9072
:1032600008950F931F93CF93DF9300D000D01F9248
:10327000CDB7DEB78B0160910D042FEF32E8A801C6
:1032800082EB91E00E94860960910D042FEF31E8F6
:10329000A80182EB91E00F900F900F900F900F908C
:1032A000DF91CF911F910F910C9486090F931F937B
:1032B000CF93DF938C01005F1F4FEC010C171D07AC
:1032C00071F06881798189819881911102C0882388
:1032D00021F082EB91E00E9473082296EFCF80E00C
:1032E000DF91CF911F910F9108952EEF260F22307D
:1032F00010F4FC01658308956AE874E086EA93E0BF
:103300000E943D2B84E690E00E94670486EA93E0E9
:103310000E94682B84E690E00E94670480E0089594
:1033200080E00895FC01703579F4862F8076803432
:1033300029F49485862F8F7B892B8487862F80772D
:1033400029F48385682B638780E008958031E1F755
:1033500080E1689FB0011124F4CFCF93DF93EC019B
:103360008BE894E00E941A336C858BE894E00E940D
:1033700020338BE894E0DF91CF910C943233FB0142
:10338000828186FB992790F960E080FD62E0692BDD
:1033900090E081FD94E0692B90E082FD98E0692B3C
:1033A00083FD06C080E0682B84E193E00C94971CB9
:1033B00080E1F9CFFB0123812035A9F4DC011B96C4
:1033C0001C921B9722812076203411F41C961C92AB
:1033D000218121FF08C020FD06C0BF01228125FFF9
:1033E00004C00E94BF1980E0089584E193E00E9428
:1033F000941CF9CF6091B3017091B401FC01268156
:103400003781621B730B238134812617370760F0E5
:1034100090E080E0982F872F762F662750E040E0DD
:103420000E943C34822F08958FEF0895482F50E07A
:1034300087FD0AC0889FC0011124880F892F881F2B
:10344000990B91958F5F089520E031E0241B350B97
:10345000229FC001239F900D900D1124880F892F6A
:10346000881F990B919580950895CF93DF93EC0178
:103470000E94FA190E94161A29819A81921B30E043
:10348000322F2227989F200D311D112454E03695AC
:1034900027955A95E1F7220F331F220F331F809192
:1034A000110390E0805C9F4F280F391F2093110378
:1034B000832FDF91CF9108950F93CF93FC01C285A5
:1034C0002C2F2F70D1F00E94351A682F6195C2FF02
:1034D00060E0C3FD680F482F4195C0FF40E0C1FD8B
:1034E000480F00E020E08BE894E00E9412338BE864
:1034F00094E0CF910F910C943233CF910F910895B6
:103500000F93FC01828590E054E0959587955A953C
:10351000E1F70097E1F09C013695279536952795C0
:103520002170022F019583FF02C001E0021B9C0164
:103530002170332781FD215040E060E08BE894E06A
:103540000E9412338BE894E00F910C9432330F9168
:103550000895CF93DF93FC0122852223D9F0EC015B
:103560008091B3019085891B843030F0CF010E9497
:103570005C1A88858C5F88878091B3019985891B47
:103580009881891738F0CE010E94801A8985988128
:10359000890F898780E0DF91CF9108950F931F9362
:1035A000CF93DF93FB012381203521F58B01EC01C3
:1035B00082818076803419F4CE010E94AD198A850B
:1035C0008F7031F48091B3019091B4019F838E8309
:1035D0008B858A871B86F801818181FF0BC080FD66
:1035E00009C08281807761F4CE010E945C1A8091CB
:1035F000B301888780E0DF91CF911F910F910895EB
:103600008031C1F7CE010E94801A8091B301898771
:10361000F1CF84E690E00C9467049F92AF92BF9242
:10362000CF92DF92EF92FF920F931F93CF93DF938E
:103630005C017B018B01D0E0C0E0F80191908F012B
:103640006501CC0EDD1EC6010E94B834981621F02B
:10365000692DC6010E94C0342196C630D10569F794
:10366000C701DF91CF911F910F91FF90EF90DF90F5
:10367000CF90BF90AF909F900895CF92DF92EF923E
:10368000FF920F931F93CF93DF937C0166E070E06E
:103690008EEC92E00E944611EC01F7019183808349
:1036A0008C016C01F6E0CF0ED11C0C151D0540F409
:1036B000C8010E94B8348F3F41F40F5F1F4FF5CF10
:1036C00067E071E0CE010E940D1BF70100811181BE
:1036D000C7E0D1E007501140C8018C0F9D1F0E9428
:1036E000B8348993F1E0CD30DF07B1F760910C0178
:1036F00087E091E00E94751980E0DF91CF911F91E2
:103700000F91FF90EF90DF90CF9008950F931F934C
:10371000CF93DF938C01EB018FED92E00E942F1687
:10372000882351F160EF74E086EA93E00E946C2BED
:103730000E94091B6BED74E086EA93E00E946C2BFB
:103740000E94091B66EC74E086EA93E00E946C2BF1
:103750000E94091B6DEA74E086EA93E00E946C2BDC
:103760000E94091B64E974E086EA93E00E946C2BD6
:103770000E94091B80E061C040EF54E0BE018FED64
:1037800092E00E948616811135C04BED54E0BE01D7
:103790008FED92E00E94861681112EC046EC54E017
:1037A000BE018FED92E00E948616811127C04DEA7E
:1037B00054E0BE018FED92E00E948616811120C078
:1037C00044E954E0BE018FED92E00E948616C4E009
:1037D000882381F28FED92E00E9493168823A9F14D
:1037E000C23081F178F460910801C130A9F0609194
:1037F000070112C0C0E0EECFC1E0ECCFC2E0EACFDB
:10380000C3E0E8CF60910A0170910B01C33029F049
:1038100060910C01C43059F770E04AE050E086EA4C
:1038200093E00E942D2C0E94091B60E286EA93E03F
:103830000E94612B0E94091B81E0DF91CF911F91B3
:103840000F91089560910901E7CF41E070E060E0D9
:1038500086EA93E00E94C92CC230C9F060F4C130FE
:1038600099F06093070167E071E0F8018081918130
:103870000E940D1BE1CFC33069F0C43091F787E09F
:1038800091E00E947519EFCF60930801ECCF60932F
:103890000901E9CF60930A0170930B01E4CF0F9304
:1038A0001F93CF93DF9300D000D000D0CDB7DEB709
:1038B00016950795600F711F36952795420F531F78
:1038C000EFE9F4E0758764875787468780898983A5
:1038D0007B836A835D834C831E820284F385E02DA3
:1038E0000190F081E02D46E050E0BE016F5F7F4F18
:1038F00089EA94E0099526960FB6F894DEBF0FBECC
:10390000CDBFDF91CF911F910F910895FC011782D8
:103910001682158214828FEF9FE7918380839383B1
:10392000828381E080870895FC0110860895FF92CC
:103930000F931F93CF93DF93EC01F62E88858111AF
:1039400003C0CE010E94861CF0FE07C01886DF91DE
:10395000CF911F910F91FF90089560910C0170E03D
:10396000888199810E9428348B01798368836091D2
:103970000C0170E08A819B810E9428349B017B832B
:103980006A836F2D64704C815D818E819F817F2D54
:103990007670763069F4B801680F791F7F836E8383
:1039A000420F531F5D834C83CE010E944F1CCFCF2B
:1039B000662329F1E0910C01E150FF0BE29FB00179
:1039C000E39F700DF29F700D1124460F571F5D830A
:1039D0004C83F4FE19C040910C014150550B409F9F
:1039E000B001419F700D509F700D1124860F971FDD
:1039F0009F838E834C815D816E817F81D5CFF1FC69
:103A0000E8CF420F531FE3CFF3FCF4CF800F911F99
:103A1000EFCF10921C030895FC018281DB019C9181
:103A2000891730F5A081B181A80FB11D2C9130E02C
:103A3000938102C0359527959A95E2F724834481B6
:103A4000442391F0242F30E0938140FF07C0880F7A
:103A5000880F880F890F858381E008953595279514
:103A600024839F5F9383EBCF8F5F82831382D5CFB5
:103A700080E00895262F269526952695820F911D84
:103A8000FC01808190E0677002C0959587956A95EA
:103A9000E2F781700895E62FE695E695E695E80F42
:103AA000F92FF11D677081E090E0A0E0B0E004C064
:103AB000880F991FAA1FBB1F6A95D2F72081822BFE
:103AC00080830895E62FE695E695E695E80FF92FB1
:103AD000F11D862F877041E050E060E070E004C087
:103AE000440F551F661F771F8A95D2F74095509552
:103AF000609570958081482340830895EF92FF92EE
:103B00000F931F93CF93DF93CDB7DEB72C970FB6EC
:103B1000F894DEBF0FBECDBF8C010A9698878F83C5
:103B200019861A86FF24FA94FC869A83898386E094
:103B3000E82EEB821C82FE82BE016D5F7F4FCE01BC
:103B400007960E940C1D811113C0005F1F4F18873C
:103B50000F8319861A86FC861A830983EB821C82DE
:103B6000FE82BE016D5F7F4FCE0107960E940C1D45
:103B70002C960FB6F894DEBF0FBECDBFDF91CF916C
:103B80001F910F91FF90EF900895272F207C69F4EB
:103B9000605E683080F4FC018681978102C0969552
:103BA00087956A95E2F781700895743431F426EDB3
:103BB000260F2A3220F081E008957634E1F7625230
:103BC00060314CF3F8CF0C94C51DAF92BF92DF92D9
:103BD000EF92FF920F931F93CF93DF93CDB7DEB792
:103BE00061970FB6F894DEBF0FBECDBF8C010A9669
:103BF0007C01662381F1580190E1A90EB11CB886C1
:103C0000AF8219861A868FEF8C87BA82A98296E0D6
:103C10009B831C828E83BE016D5F7F4FCE01079612
:103C20000E940C1D8823B9F0DC846D2DC5010E9413
:103C3000621D6D2DC7010E94621D60910D042D2D26
:103C400031E84FEF5FEF82EB91E00E9486098A85B1
:103C50008F5F8A87E0CFF886EF8219861A868FEF0A
:103C60008C87FA82E98296E09B831C828E83005FB8
:103C70001F4FBE016D5F7F4FCE0107960E940C1D46
:103C8000882309F1DC846D2DC8010E943A1D6D2D39
:103C90008823A9F0C8010E94621D6D2DC7010E94F2
:103CA000621D60910D042D2D31E84FEF5FEF82EB27
:103CB00091E00E9486098A858F5F8A87DACFC701E3
:103CC0000E94621DF8CF61960FB6F894DEBF0FBE5A
:103CD000CDBFDF91CF911F910F91FF90EF90DF90BB
:103CE000BF90AF9008956AE075E086EA93E00E9485
:103CF0003D2B84E690E00E94670486EA93E00E94F0
:103D0000682B84E690E00E94670480E008954F925B
:103D10005F926F927F928F929F92AF92BF92CF925B
:103D2000DF92EF92FF920F931F93CF93DF93CDB764
:103D3000DEB761970FB6F894DEBF0FBECDBF8C0122
:103D4000FC0160807180C090B301D090B40186897D
:103D50009789C81AD90A828093807801FAE0EF0E19
:103D6000F11CF886EF8219861A868FEF8C87FA820B
:103D7000E98296E09B831C828E83512C580180E15E
:103D8000A80EB11CBE016D5F7F4FCE0107960E9449
:103D90000C1D482E882349F15C84652DC5010E94C5
:103DA0003A1D8823D1F0C614D70490F0652DC501C3
:103DB0000E94621D652DC7010E94621D60910D0465
:103DC000252D31E84FEF5FEF82EB91E00E948609ED
:103DD0008A858F5F8A87542CD5CFC814D904C0F345
:103DE000652DC7010E94621DF3CF511007C080915D
:103DF000B3019091B401F801978B868B80E06196B6
:103E00000FB6F894DEBF0FBECDBFDF91CF911F91EB
:103E10000F91FF90EF90DF90CF90BF90AF909F9069
:103E20008F907F906F905F904F900895FB0120815D
:103E3000203320F4218127FF0C94871E80E0089511
:103E4000872F90E0982F8827860F911D2FEF280F3E
:103E5000283018F4815290E008958F5D94E408951D
:103E60009F92AF92BF92CF92DF92EF92FF920F9309
:103E70001F93CF93DF93FB01F080FFE2FF1508F45F
:103E80005FC0FB01E180E7FC5BC08B01EC016C01D2
:103E9000FAE0CF0ED11C6F2DC6010E943A1D982E5C
:103EA0005E0120E1A20EB11C6F2DC5010E943A1DDA
:103EB000E1FE95C0E0FC93C0911056C081118AC00C
:103EC000F80182819381292F30E0322F2227482F59
:103ED00050E04150504C240F351F20313105A0F4E3
:103EE00062817381CE010E94201FF8019383828337
:103EF000F8016081C6010E944B1D8091B301909131
:103F0000B4019F8B8E8B19C02885222339F0292F6D
:103F1000207C21F420E2280F283050F32985222329
:103F200031F0943479F426ED280F2A3208F3292F42
:103F3000207C59F4805E883068F4F8018081888F95
:103F400080E03CC0963499F7D3CF943451F48A5230
:103F50008A3298F38E899F8928813981821B930B3D
:103F6000D0CF963451F3F6CF882339F36F2DC601A5
:103F70000E94621DF8019081888D981731F0F80138
:103F80006081C5010E94621DD8CF62817381CE011C
:103F90000E94E31D882399F38C819D8197FF02C0C5
:103FA000888199812091B3013091B4014E895F8954
:103FB000241B350B2817390710F782E0DF91CF91CA
:103FC0001F910F91FF90EF90DF90CF90BF90AF9037
:103FD0009F9008956F2DC6010E94621DD0CF911051
:103FE00003C0882309F4ACCFF8016081C5010E94A9
:103FF0004B1DE3CF84E690E00C946704CF93DF93EE
:10400000EC0141E070E060E086EA93E00E94C92C98
:1040100079836883DF91CF9108954AE050E0BC0135
:1040200086EA93E00E942D2C0E94FA1F60E286EA45
:1040300093E00E94612B0C94FA1F4AE050E0BC010F
:1040400086EA93E00E94122C0E94FA1F60E286EA40
:1040500093E00E94612B0C94FA1F9F92AF92BF9243
:10406000CF92DF92EF92FF920F931F93CF93DF9344
:104070005C017B018B01D0E0C0E0F80191908F01E1
:104080006501CC0EDD1EC6010E94B834981621F0E1
:10409000692DC6010E94C0342196CA30D10569F746
:1040A000C701DF91CF911F910F91FF90EF90DF90AB
:1040B000CF90BF90AF909F900895CF92DF92EF92F4
:1040C000FF920F931F93CF93DF937C016AE070E020
:1040D0008EEC92E00E944611EC01F70191838083FF
:1040E0008C016C01FAE0CF0ED11C0C151D0540F4BB
:1040F000C8010E94B8348F3F41F40F5F1F4FF5CFC6
:1041000064E171E0CE010E942D20F7010081118150
:10411000C4E1D1E004511140C8018C0F9D1F0E94E1
:10412000B8348993F1E0CE31DF07B1F780E0DF9159
:10413000CF911F910F91FF90EF90DF90CF90089556
:104140006FE875E086EA93E00E943D2B0E94FA1F1B
:1041500086EA93E00E94682B0E94FA1F80E008958F
:10416000EF92FF920F931F93CF93DF9300D0CDB7C1
:10417000DEB77C018B018FED92E00E942F16882321
:1041800091F16FE775E086EA93E00E946C2B0E9444
:10419000FA1F6AE675E086EA93E00E946C2B0E94A3
:1041A000FA1F6FE475E086EA93E00E946C2B0E9490
:1041B000FA1F68E375E086EA93E00E946C2B0E9488
:1041C000FA1F66E275E086EA93E00E946C2B0E947B
:1041D000FA1F62E175E086EA93E00E946C2B0E9470
:1041E000FA1F80E04FC04FE755E0B8018FED92E035
:1041F0000E94861681114FC04AE655E0B8018FED46
:1042000092E00E948616811148C04FE455E0B80143
:104210008FED92E00E948616811141C048E355E07F
:10422000B8018FED92E00E94861681113AC046E2F5
:1042300055E0B8018FED92E00E948616811133C0DF
:1042400042E155E0B8018FED92E00E94861615E03C
:10425000882339F28FED92E00E9493168823E1F1D2
:10426000133091F110F5113051F1809118019091B6
:104270001901123009F180911401909115010E94E9
:104280000D2081E00F900F90DF91CF911F910F9142
:10429000FF90EF90089510E0DDCF11E0DBCF12E04A
:1042A000D9CF13E0D7CF14E0D5CF143091F080915F
:1042B0001D01153001F790E00E941D20E2CF809192
:1042C000160190911701DBCF80911A0190911B018B
:1042D000D6CF80911C01EFCF133009F43FC0B0F46A
:1042E000113031F1123079F1CE0101960E94FE1F9A
:1042F00089819A81909315018093140164E171E0A2
:10430000F701808191810E942D20BBCF143089F16B
:10431000153051F741E070E060E086EA93E00E94DA
:10432000C92C81E0611101C080E080931D01E6CFBE
:10433000CE0101960E94FE1F89819A8190931701F8
:1043400080931601DBCFCE0101960E94FE1F89816A
:104350009A819093190180931801D0CFCE010196D4
:104360000E94FE1F89819A8190931B0180931A01FC
:10437000C5CF41E070E060E086EA93E00E94C92C7E
:1043800081E0611101C080E080931C01B7CF6DE92D
:1043900075E086EA93E00E943D2B84E690E00E945F
:1043A000670486EA93E00E94682B84E690E00E940E
:1043B000670480E00895FC01872F90E0982F8827FC
:1043C000680F792F711D613180EC7807E0F0623160
:1043D00088EC780750F46151704C66A717A611AAB3
:1043E00080EE870F80AB81E00895633180ED780720
:1043F00050F46251784C66A717A68AE2870F80AB0B
:1044000084E481ABF0CF80E008958F929F92AF92C9
:10441000BF92CF92DF92EF92FF920F931F93CF93B1
:10442000DF9300D000D0CDB7DEB78C01F62E2FE29F
:10443000261708F469C0E62FF0E0EE0FFF1FE25FD9
:10444000FB4FD080E1808FEFD8120FC0E8120DC073
:10445000AF2DB0E0A854BE4FE0910201F0910301EE
:104460006F2D8C910995D82EE92E6D2D7E2DC801CA
:104470000E94DB21B82E811135C0EF2DF0E0E85409
:10448000FE4F8080C12CAA24AA94912CF80182812D
:10449000C81608F042C0F4E0CF9EC0011124F80114
:1044A00060817181680F791FAA8244E050E0CE01DB
:1044B00001960E947E3489819A813B812C81F91278
:1044C0002AC0482F082E000C550B4815590511F02D
:1044D0008F3F09F5F801D6A6E7A6C90190AB21AB3D
:1044E000BB24B3948B2D0F900F900F900F90DF9102
:1044F000CF911F910F91FF90EF90DF90CF90BF90E1
:10450000AF909F908F90089510926E0410926F0458
:10451000EEE6F4E096CFC394B9CFD6A6E7A68FEF28
:1045200080AB81ABDFCFCF93DF93FC01EB019A012E
:10453000261B370BA4E6B0E00E94643426A130E0CD
:1045400050E040E00E943C348091B3019091B4016E
:10455000BC016C1B7D0B81E06217730708F080E0E3
:10456000DF91CF910895292F207C29F4805E883037
:1045700058F481E00CC0943439F496ED980F81E042
:104580009A3228F080E0089581E09634D9F70895B2
:10459000CF93DF93EC018881681780F5882371F150
:1045A00081508883E62FF0E0DF011196AC0FBD1F2C
:1045B000EE0FFF1F7196EC0FFD1F962F981780F4DA
:1045C00011962C9111972D9318962C911897179658
:1045D0002C93179722813381219331939F5FEECFE4
:1045E0002FEF30E001C0220F6A95EAF789A1922FE0
:1045F0009095982386958223892B89A3DF91CF916B
:104600000895CF93DF9300D000D01F92CDB7DEB7CF
:10461000FC01348584A1982F917080FD28C082E030
:10462000248139838A836B837C832D8391110AC013
:10463000872F90E0982F8827680F792F711D64309D
:104640007105F0F460E0CF0103960E94C822298131
:104650003A814B815C816D8182EB91E00F900F90EC
:104660000F900F900F90DF91CF910C943D0A81E055
:10467000D7CF6D32710530F36933710518F703C078
:1046800068327105B0F78489958994A783A7DACF3A
:10469000CF93DF93FC017381DC011D9681E090E0F4
:1046A00060E08717F0F452A94D9124A130E0082E64
:1046B00002C0359527950A94E2F720FD0DC05417E6
:1046C00021F080E0DF91CF9108952489358934ABC2
:1046D00023AB682F0196E5CF5413FCCF8FEF82AB4D
:1046E000F0CF8091B3019091B40123A934A9821B2A
:1046F000930B25A92817190609F068F48FEF82ABF0
:104700006623F9F2EF012396CE010E94C82260E0F1
:10471000CE010E94C82281E0D5CF7F928F929F92D6
:10472000AF92BF92CF92DF92EF92FF920F931F93BF
:10473000CF93DF93EC019B81911110C0F12C8F2D51
:10474000DF91CF911F910F91FF90EF90DF90CF906D
:10475000BF90AF909F908F907F9008959C848CA184
:1047600080FF13C0983041F460E070E0CE010E94F9
:104770000123FF24F394E3CF8AA99812F5CFCE0149
:104780000E9448238111DACFEFCF692DCE010E941C
:104790000522882309F470C0FDA0FF2009F46CC035
:1047A0000EA51FA5C8010E94B322882E8091B301D7
:1047B0009091B4012BA53CA5821B930B2AA5281729
:1047C000190609F010F57B80A090B301B090B401F8
:1047D0006E0101E010E0E12C202F071508F065C004
:1047E0008CA190E0002E02C0959587950A94E2F77F
:1047F00080FD12C0811040C0EE2009F454C07FEF4C
:10480000C71AD70A0F5F1F4FE7CF8110DCCFB8015F
:10481000CE010E940123D7CFF6019585FE013D967A
:1048200081E099122DC0EE2019F08EA1811110C0E7
:10483000882059F068A979A99AAA8C899D899CAB8E
:104840008BABCE010E9401237ACF6EA57FA5F4CF5A
:10485000F801EE0FFF1FEC0FFD1F44895589EE2D67
:10486000F0E0EE0FFF1FEC0FFD1F64897589CE018C
:104870000E9493228111C3CF6EA57FA577CF8F5F52
:10488000821708F0BCCF31913913F9CF4C895D897B
:10489000B501641B750B39A53617170609F078F7B3
:1048A00068A979A9CECFE02EAACF88E0781246CFAA
:1048B000E3CF0F931F93CF93DF93EC01FB01848130
:1048C0009DA5282F291B12162CF09B8191111CC02D
:1048D00080E01FC08DA780818033D0F7818187FD64
:1048E000F7CF8B018DA1811119C062817381CE0137
:1048F0000E94DB21882361F38EA59FA5D801139622
:104900009C938E931297E4CF9C81891B87FDE0CF07
:1049100082E0DF91CF911F910F9108952B81822F1B
:1049200090E03481FE01E80FF91F3483DB013C91F4
:104930003487880F991FFE01E80FF91F8091B3019A
:104940009091B401958B848B11964C913CA181E0A0
:1049500090E0A0E0B0E0022E04C0880F991FAA1FCB
:10496000BB1F0A94D2F740FF0CC041FD0AC0832B45
:104970008CA32F5F2B83CE010E948D238111FBCF4F
:10498000C7CF80958323F4CF0F931F93CF93DF93EB
:10499000EC012091B3013091B4018AA590E04BA5C0
:1049A0005CA5B901641B750B6817790738F0A9017C
:1049B00041505109481B590B5CA74BA78B81882399
:1049C000D9F08C899D89281B390B8FA198A52817B0
:1049D000390768F00EA51FA5C8010E94B322B801CF
:1049E000811102C068A979A9CE010E940123CE01DC
:1049F0000E948D238111FBCF80E0DF91CF911F9129
:104A00000F910895CF93DF93CFE1D3E019821882FD
:104A10001A821B8288E0E0E4F1E0ABE2B3E00190AF
:104A20000D928A95E1F781E08DA380E58EA38AEF50
:104A300090E098A78FA382E389A78BE48AA780E000
:104A400091E09CA78BA78FEF8DA78EA78FA788AB30
:104A500089AB8AAB88EC8DABDF91CF91089584E66A
:104A600090E00C9467040C94B8348F929F92AF92AC
:104A7000BF92CF92DF92EF92FF920F931F93CF934B
:104A8000DF938C01FC01E080F18015821482C280EA
:104A9000D380CE0CDF1C4701B12C8C149D0408F090
:104AA0004BC0E4012196C4010E9433258E3008F0EA
:104AB00043C0E82FF0E0E15AFA4D0C945E348E25A5
:104AC0006D256D257125712571256D256D256D254A
:104AD0006F256F256F2574258325E40122964E01ED
:104AE000DCCFE4012396FBCF4E01CE010E9433259B
:104AF000A82E2296C40101960E943325A110F4CF5E
:104B00008111F2CFECCF2C2F9D2F2196822F0E9466
:104B100033252C2F9D2F8111F8CFE1CFB394EB2DAE
:104B2000F0E03296EE0FFF1FE00FF11FCE018E195D
:104B30009F0991838083D3CF8B2DDF91CF911F91DC
:104B40000F91FF90EF90DF90CF90BF90AF909F902C
:104B50008F9008958F929F92AF92BF92CF92DF92E3
:104B6000EF92FF920F931F93CF93DF93FC01EC5BC7
:104B7000FF4F2081621708F0DFC07C01E62FF0E0D4
:104B80003296EE0FFF1FEE0DFF1DD7010D911C9108
:104B900080819181080F191FD12CF70180819181AB
:104BA00022813381820F931F0817190708F0C4C0B0
:104BB000E8012196C8010E94332581508D3008F00C
:104BC000BBC0E82FF0E0E951FA4D0C945E34132697
:104BD00022262E263F26502661266D2679261A2665
:104BE0001A261A26F42585268D2C912CB12CA12C61
:104BF000CE010E943325C82E8E010E5F1F4FCE01BD
:104C000001960E943325811102C0CC2091F0682FBB
:104C10007C2D81E093E00E943119C501B4010E940E
:104C20002E04E801E5CF0E5F1F4FCE010E94332511
:104C3000D82EE8016D2D70E090E080E00E942E04F7
:104C40008E01ABCF0E5F1F4FCE010E943325682F20
:104C500070E090E080E00E942E04EBCFCE010E9435
:104C60003325C82EE8012396C80102960E943325F9
:104C7000682F7C2D81E093E00E948D18DBCFCE0160
:104C80000E943325C82EE8012396C80102960E948F
:104C90003325682F7C2D81E093E00E94C818CACF8D
:104CA000CE010E943325C82EE8012396C801029642
:104CB0000E943325682F7C2D81E093E00E943119FA
:104CC000B9CF0E5F1F4FCE010E943325682F70E0D1
:104CD00081E093E00E948D18ACCF0E5F1F4FCE0194
:104CE0000E943325682F70E081E093E00E94C8188D
:104CF000A0CF0E5F1F4FCE010E943325682F70E0BA
:104D000081E093E00E94311994CFCE018D2C912C3B
:104D1000B12CA12C21960E943325882309F48ACF37
:104D2000682F70E081E093E00E943119C501B40161
:104D30000E942E04CE01EECFDF91CF911F910F91F3
:104D4000FF90EF90DF90CF90BF90AF909F908F90AB
:104D50000895292F30E0322F222790E08C55914D75
:104D6000280F391F81E02032310508F080E00895D6
:104D70000F931F93CF93DF938C01EB018A819B816B
:104D80000E94A9268823A9F0898181FF0DC080FD9A
:104D90000BC06A816C55C8010E94AA2581E0DF9191
:104DA000CF911F910F91089581E093E00E94F01838
:104DB000F5CF80E0F4CF6EEB75E086EA93E00E94D9
:104DC0003D2B0E942F2586EA93E00E94682B0E94CB
:104DD0002F2580E00895CF92DF92FF920F931F93CB
:104DE000CF93DF93EC018B018FED92E00E942F16A1
:104DF000882391F063EB75E086EA93E00E946C2BC8
:104E00000E942F2564EA75E086EA93E00E946C2BED
:104E10000E942F2580E05EC043EB55E0B8018FED86
:104E200092E00E948616882309F45CC08FED92E020
:104E30000E94931610E000E08823F9F08A819B819C
:104E40000817190708F045C088819981800F911FC4
:104E50000E9433254AE050E0682F86EA93E00E94E2
:104E6000262C0E942F2560E286EA93E00E94612BA7
:104E70000E942F250F5F1F4FE1CF8FED92E00E9420
:104E80009316811120C08A819B8108171907D8F4D5
:104E900041E070E060E086EA93E00E94C92CF62EC3
:104EA00068018FEFC81AD80A88819981080F191FE5
:104EB000C8010E94B834F81621F06F2DC8010E9475
:104EC000C0348601DACFCE010E943525CC5BDF4F9E
:104ED000888381E0DF91CF911F910F91FF90DF9048
:104EE000CF90089544EA55E0B8018FED92E00E941A
:104EF0008616882309F48ECF41E070E060E086EAF0
:104F000093E00E94C92CCE010E94AA25E2CF0F9304
:104F10001F93CF93DF93EC018B018EEC92E00E9404
:104F20004611998388831B830A83CE010E9435250D
:104F3000CC5BDF4F8883DF91CF911F910F91089554
:104F400084E690E00C94670464EE75E086EA93E0F2
:104F50000E943D2B0E94A02786EA93E00E94682BC6
:104F60000E94A02780E008957F928F929F92AF9237
:104F7000BF92CF92DF92EF92FF920F931F93CF9346
:104F8000DF9300D000D0CDB7DEB77C018B018FED71
:104F900092E00E942F168823D9F062ED75E086EA30
:104FA00093E00E946C2B0E94A02780E00F900F904E
:104FB0000F900F90DF91CF911F910F91FF90EF9085
:104FC000DF90CF90BF90AF909F908F907F9008958B
:104FD00042ED55E0B8018FED92E00E9486168823DD
:104FE00021F38FED92E00E94931610E000E08823F9
:104FF00009F471C0F701828093800815190508F043
:1050000046C05801FFEFAF1ABF0AF70180819181B6
:10501000800F911F0E94B834C82E8FEF8C0D8E3FE9
:10502000B0F54AE050E06C2D86EA93E00E94262C11
:105030000E94A02760E286EA93E00E94612B0E9412
:10504000A027D12C4501FFEF8F1A9F0AF70180811D
:1050500091818A0D9B1D0E94B834682F86EA93E0E7
:105060000E94612B0E94A02781E08D0D54018C11BC
:105070000CC00E5F1F4F0D0D111D6AE086EA93E014
:105080000E94612B0E94A027B5CFD82EDBCF4AE02B
:1050900050E070E060E086EA93E00E94122C0E94EB
:1050A000A02760E286EA93E00E94612B0E94A0277D
:1050B0006CEC75E086EA93E00E943D2B0E94A027ED
:1050C0004AE050E0B40186EA93E00E942D2C0E9451
:1050D000A02781E06BCFF701828193810817190720
:1050E000C0F741E070E060E086EA93E00E94C92CDE
:1050F000D62E41E050E0BE016C5F7F4F86EA93E020
:105100000E942A2D5801FFEFAF1ABF0AF7018081D4
:105110009181800F911F9A8389836D2DCE01019615
:105120000E94DF1077247A947D0CFDEFF71588F24A
:10513000C12C41E050E0BE016D5F7F4F86EA93E0F5
:105140000E942A2D6B8145018FEF881A980AF7017A
:1051500080819181A80EB91EBA82A982CE010196E2
:105160000E94DF10C3945401CD1418F30E5F1F4F3B
:10517000070D111DB0CF0F931F93CF93DF93EC0159
:105180008B018EEC92E00E944611998388831B83E9
:105190000A83DF91CF911F910F9108956FEE75E013
:1051A00086EA93E00E943D2B84E690E00E9467042B
:1051B00086EA93E00E94682B84E690E00E946704F0
:1051C00080E00895FB012381822F90E0982F8827AB
:1051D0002281280F392F311DC9018D52914D8A9797
:1051E00008F03FC081819091A50381FF1FC080FD21
:1051F0001DC083ED820F9F5F9093A50367E00E941F
:105200001C34E82FF0E0E156FC4F26E030E0291B8B
:10521000310981E090E0AC0102C0440F551F2A958E
:10522000E2F78081842B808381E008958FEF890FDE
:105230008093A5038111F8CF80919F0380688093AC
:105240009F0346E050E06FE973E086EA93E00E9436
:105250007F29EFE9F3E086E0DF011D928A95E9F707
:10526000E3CF80E00895CF93DF931F92CDB7DEB7F1
:105270006983DC01ED91FC910280F381E02D41E036
:1052800050E0BE016F5F7F4F09950F90DF91CF9186
:105290000895CF93DF93EC018C859D8597FF05C022
:1052A00082E00E94452E9D878C878C859D85DF91AD
:1052B000CF91089583E00E945C2E90E0089583E0F2
:1052C0000C94CB30FC018485958597FD06C082E067
:1052D0000E94F52D90E00196089582E00E94F52D40
:1052E00090E00895FC018485958597FD05C02FEF1A
:1052F0003FEF35872487089582E00C94452ECF93A5
:10530000DF93EC0180913801882331F083E00E9423
:10531000762E1816190634F081E090E09B838A837C
:1053200080E090E0DF91CF910895EEEFFFE72591C7
:10533000349181E02B3F3C4D09F080E00895FC0161
:1053400090819E5F908342E450E068EF75E080E8D2
:105350000C94272FFC0181819081913A61F4813274
:1053600009F083C047E050E061E371E080E00E9413
:10537000272F81E00895913209F077C0833269F4D4
:1053800082819381B0E0A0E080932D0190932E0163
:10539000A0932F01B0933001ECCF803239F467E055
:1053A00070E081E391E00E944D2FE3CF823209F754
:1053B0008281809338010E949529E0E0F8E08823FB
:1053C00011F0EEEFFAE08091310190913201A0915D
:1053D0003301B0913401803B9440A105B105D9F46B
:1053E0008091380180FD17C0EE3F8AE0F80771F523
:1053F00087E797E791838083809160008093F6032D
:1054000088E19BE00FB6F894A895809360000FBEEA
:1054100090936000AECF808191818737974709F0E4
:10542000A8CFA895809160008861809360008091EA
:10543000F60380936000EE3F8AE0F80789F08091E0
:10544000FE0A9091FF0A9183808393CF808191819E
:105450008737980769F29093FF0A8093FE0AC8CFB6
:105460001092FF0A1092FE0A84CF80E008952FEF79
:105470003FEFFC01358724870895E6EAF3E01382C5
:10548000128288EE93E0A0E0B0E084839583A68347
:10549000B78387E791E0918380838FEF9FEF9587B4
:1054A00084870895EF92FF920F931F93CF93DF931A
:1054B0007B01FC01C281D38110E000E0209791F0D4
:1054C000E881F9810280F381E02DB701CE010995D1
:1054D00097FD06C0080F191F0884D985C02DEECF8F
:1054E0000FEF1FEFC801DF91CF911F910F91FF9038
:1054F000EF9008950F931F93CF93DF938B01FC01DF
:10550000C281D381209771F0E881F9810480F5810F
:10551000E02DB801CE010995009731F40884D985B2
:10552000C02DF0CF90E080E0DF91CF911F910F91DF
:1055300008950F931F93CF93DF938B01FC01C281DA
:10554000D381209771F0E881F9810680F781E02D01
:10555000B801CE010995080F111D0884D985C02D09
:10556000F0CFF8011082DF91CF911F910F91089534
:105570000F931F93CF93DF938B01FC01C281D381E3
:10558000209771F0E881F9810190F081E02DB80158
:10559000CE010995811105C00884D985C02DF0CFB1
:1055A00080E0DF91CF911F910F910895CF93DF930A
:1055B000FC01DB01218114968C911497820F9927AD
:1055C000991F08978CF5C281D381209731F5738399
:1055D0006283908112969C93129713962C93139743
:1055E00015968C911597890F808380E014969C9175
:1055F00014978917E8F41696CD91DC911797C80F88
:10560000D11D9881C181D0E0C75CDE4F9883918124
:105610009F5F91838F5FEACFEC0188859985009722
:10562000D9F7B987A887D5CF80E0DF91CF910895CA
:1056300081E0FBCF8091F70381110DC082E0809360
:10564000FF0384E08093000410920204109201048E
:1056500081E08093F7038FEF93E00895FB010190C1
:105660000020E9F73197AF01461B570BDC01ED91A4
:10567000FC910280F381E02D0994EF92FF920F9349
:105680001F93CF93DF938C017B01D0E0C0E0F70143
:10569000EC0FFD1F6491662361F0D801ED91FC9140
:1056A0000190F081E02DC8010995892B11F0219618
:1056B000EECFCE01DF91CF911F910F91FF90EF9030
:1056C0000895DC01ED91FC910190F081E02D0994A9
:1056D00065E871E00C942E2B0F931F93CF93DF930B
:1056E000EC010E943D2B8C01CE010E94682B800FA3
:1056F000911FDF91CF911F910F9108958F929F92EB
:10570000AF92BF92EF92FF920F931F93CF93DF93CD
:10571000CDB7DEB7A1970FB6F894DEBF0FBECDBFF1
:105720007C01FA01CB0119A2223008F42AE08E0193
:105730000F5D1F4F822E912CB12CA12CBF01A50112
:1057400094010E943C34F901CA016A300CF5605D95
:10575000D8016E938D01232B242B252B79F790E014
:1057600080E0109721F0BD01C7010E942E2BA19669
:105770000FB6F894DEBF0FBECDBFDF91CF911F9162
:105780000F91FF90EF90BF90AF909F908F900895F2
:10579000695CDECFCF92DF92EF92FF920F931F935F
:1057A000CF93DF932115310581F4DC01ED91FC915C
:1057B0000190F081E02D642FDF91CF911F910F9127
:1057C000FF90EF90DF90CF9009942A30310501F5DA
:1057D0002AE077FF1DC06A017B01EC016DE20E94A7
:1057E000612B8C0144275527BA014C195D096E09BC
:1057F0007F092AE0CE010E947E2B800F911FDF914E
:10580000CF911F910F91FF90EF90DF90CF9008956F
:10581000DF91CF911F910F91FF90EF90DF90CF908C
:105820000C947E2B9A01AB01770F660B770B0C94CF
:10583000CA2B2115310541F4DC01ED91FC91019059
:10584000F081E02D642F09940C947E2B9A01462F51
:1058500050E070E060E00C94192C9A01AB0170E00C
:1058600060E00C94192C0F931F93CF93DF93EC01FE
:105870000E94FD03688779878A879B87E881F98181
:105880000284F385E02DCE01099597FF15C00E9493
:10589000FD03088519852A853B85601B710B820BEA
:1058A000930B0C811D812E813F8160177107820748
:1058B000930720F38FEF9FEFDF91CF911F910F910F
:1058C00008950F931F93CF93DF93EC010E94FD0384
:1058D000688779878A879B87E881F9810484F585C1
:1058E000E02DCE01099597FF15C00E94FD030885A4
:1058F00019852A853B85601B710B820B930B0C81EC
:105900001D812E813F81601771078207930720F365
:105910008FEF9FEFDF91CF911F910F910895FF922D
:105920000F931F93CF93DF93EC018B01F42ECE01E5
:105930000E94612C97FD1DC08D329105D1F09C0114
:10594000205331092A303105A0F0FF2019F08E32A2
:10595000910579F00130110551F00230110589F4FB
:105960008D30910571F05CF40997029750F08FEF3C
:105970009FEFDF91CF911F910F91FF900895809736
:10598000B1F7E881F9810284F385E02DCE01099514
:10599000CECFBF92CF92DF92EF92FF920F931F93E1
:1059A000CF93DF938C01C42F40E00E948F2CFC0129
:1059B000C12CD12C760197FD3EC0B12C0C2E000CD1
:1059C000DD0BCE17DF07D9F0ED32F10509F43FC04A
:1059D000CF01C0970A9798F4AAE0B0E0A70196011A
:1059E0000E9473346F01FF0FEE08FF08C60ED71E2A
:1059F000E81EF91E80E3C81AD108E108F108D801B1
:105A0000ED91FC910284F385E02DC8010995C80150
:105A10000E94612CFC01C0970A9798F2CE17DF070D
:105A200081F2BB2041F0F094E094D094C094C11C6A
:105A3000D11CE11CF11CC701B601DF91CF911F9170
:105A40000F91FF90EF90DF90CF90BF900895BB240F
:105A5000B394D5CFAF92BF92CF92DF92EF92FF92E5
:105A60000F931F93CF93DF935C017B018B01040F96
:105A7000151FEB016E01CE18DF08C017D10739F0F2
:105A8000C5010E94332C97FD02C08993F3CFC60154
:105A9000DF91CF911F910F91FF90EF90DF90CF900A
:105AA000BF90AF9008954091060450910704209153
:105AB00004043091050442175307B4F49091E800B0
:105AC0009570E1F39091E80092FD19C08093F10088
:105AD000809106049091070401968F739927892B72
