:100000000C946E030C9496030C9496030C94960334
:100010000C9496030C9496030C9496030C949603FC
:100020000C9496030C9496030C941F2F0C949F2D04
:100030000C9496030C9496030C9496030C949603DC
:100040000C9496030C9496030C9496030C949603CC
:100050000C94990C0C9496030C9496030C9418260B
:100060000C9496030C9496030C9496030C949603AC
:100070000C9496030C9496030C9496030C9496039C
:100080000C9496030C9496030C9496030C9496038C
:100090000C9496030C9496030C9496030C9496037C
:1000A0000C9496030C9496030C9496036C6F636106
:1000B0006C6C79206275696C74206F6E204A756E65
:1000C00020313920323032342061742031373A30D7
:1000D000333A3234004B6579626F617264696F2024
:1000E000417472657573202D204B616C6569646F76
:1000F00073636F7065200014001A00080015001764
:1001000000000000001C0018000C00120013000486
:10011000001600070009000A00000000000B000D97
:10012000000E000F0033001D001B00060019000523
:10013000003500310011001000360037003800296A
:10014000002B00E300E1002A00E000E2002C002B7D
:10015000442D003400280002445744520021081E58
:10016000080000000023082400250026002A00269D
:1001700008500051004F00270800000000380021FF
:10018000002200230025082F00300020082F08300F
:1001900008380824082D001E001F0020002E08FF2C
:1001A000FFFFFFFFFFFFFFFFFFFFFFFFFFFFFFFF5F
:1001B000FF370027002E0049004A0052004D004B37
:1001C0000000000000E94840004100420043004CAC
:1001D00000500051004F004E0000000000EA483D72
:1001E000003E003F0044000000000000000000004E
:1001F000000000000000003A003B003C00450054B5
:1002000044FFFFFFFFFFFFFFFFFFFFFFFFFFFF00B8
:100210000046004700CD48544400000000000000A4
:10022000000000000000000000000000000000349A
:10023000D136D138D13AD13ED10000000047D14962
:10024000D14BD14DD14FD135D137D139D13BD13F20
:10025000D143D144D148D14AD14CD14ED156D154B9
:10026000440000000000003CD13DD145D146D10002
:1002700000000000000000515745525459202B2027
:100280005354454E4F0076657273696F6E000501D9
:100290000906A101050819012908150025017501A4
:1002A00095089102050719E029E78102750895076D
:1002B0008101750195048101190429DD95DA810216
:1002C00095028101C005010906A101950875010586
:1002D0000819012908150025019102050719E029CF
:1002E000E78102950175088101950626DD00190058
:1002F00029DD8100C0050C0901A101850415002636
:10030000FF0319002AFF03950475108100C0050141
:100310000980A1018505150026FF00190029FF9518
:100320000175088100C0656570726F6D2E65726120
:10033000736500656570726F6D2E66726565006528
:100340006570726F6D2E636F6E74656E7473002FBF
:100350000073657474696E67732E637263007365EE
:100360007474696E67732E76657273696F6E00734D
:10037000657474696E67732E76616C69643F00738F
:10038000657474696E67732E64656661756C744C10
:1003900061796572006B65796D61702E6F6E6C7935
:1003A000437573746F6D006B65796D61702E646554
:1003B0006661756C74006B65796D61702E63757321
:1003C000746F6D00454550524F4D4B65796D6170AE
:1003D000006573636170655F6F6E6573686F742E1F
:1003E00063616E63656C5F6B657900457363617013
:1003F000654F6E6553686F740068656C7000666168
:100400006C7365007472756500706C7567696E73E6
:10041000006C65642E6D6F64657300646576696356
:10042000652E72657365740068656C70000D0A2E28
:10043000004D6163726F73001E08340820082108A4
:100440002208240834002608270825082E0836002C
:100450002D003700380027003308330036082E00FF
:10046000370838081F082F003100300023082D08F6
:1004700035002F083108300835084D6F7573654B0E
:10048000657973006D6F7573656B6579732E776130
:1004900072705F677269645F73697A65006D6F750A
:1004A00073656B6579732E616363656C5F647572E8
:1004B0006174696F6E006D6F7573656B6579732E0E
:1004C000626173655F7370656564006D6F757365F8
:1004D0006B6579732E696E69745F7370656564000E
:1004E0006D6F7573656B6579732E7363726F6C6C6A
:1004F0005F696E74657276616C004F6E6553686FEC
:1005000074006F6E6573686F742E6175746F5F6CC5
:100510006179657273006F6E6573686F742E6175B3
:10052000746F5F6D6F6473006F6E6573686F742EA8
:10053000737469636B61626C655F6B657973006F7F
:100540006E6573686F742E646F75626C655F74613D
:10055000705F74696D656F7574006F6E6573686F39
:10056000742E686F6C645F74696D656F7574006F6D
:100570006E6573686F742E74696D656F7574004F66
:100580006E6553686F74436F6E6669670051756B73
:10059000657973006D6163726F732E74726967673A
:1005A0006572006D6163726F732E6D6170004479C6
:1005B0006E616D69634D6163726F730073697A6513
:1005C0003D006B65796D61702E6C617965724E616D
:1005D0006D6573004C617965724E616D657300479E
:1005E000656D696E69505200080B0002020200003E
:1005F0000904000001020200000524001001052486
:1006000001010104240206052406000107058103F7
:1006100010004009040100020A0000000705020260
:100620004000000705830240000012010002EF02B3
:100630000140091203230001010203014B657962A5
:100640006F617264696F00417472657573000403B1
:10065000090405010902A1010901A100850105099B
:100660001901290815002501750195088102050168
:100670000930093109381581257F750895038106F0
:10068000050C0A380295018106C0C005010902A1C6
:10069000010901A100050919012908150025019585
:1006A000087501810205010930093116000026FF95
:1006B0007F75109502810209381581257F7508958F
:1006C000018106C0C000650C7E0DC40D5710961345
:1006D000091AFE213728CD2FEB313B3211241FBEE2
:1006E000CFEFDAE0DEBFCDBF11E0A0E0B1E0E8EF90
:1006F000F5E602C005900D92A03FB107D9F724E0BE
:10070000A0EFB1E001C01D92AC3FB207E1F713E0EA
:10071000CEE6D3E004C02197FE010E948332C336A7
:10072000D107C9F70E9499030C94FA320C94000087
:1007300008950E94D7260E94980388E394E00E94BF
:10074000972F0E948B04C0E0D0E00E94AD04209758
:10075000E1F30E940000F9CF089586E0E8E4F1E0BB
:10076000DB0101900D928A95E1F786E0089584E01F
:1007700093E00E94D91086EC93E00E9482248BE4DF
:1007800093E00E94C31E84E191E00E94731B89E400
:1007900093E00E949C1D89E093E00E945D128CE230
:1007A00093E00E94631581E893E00E94B92387E0FB
:1007B00091E00E9485168AEC93E00C94B32580E0CA
:1007C00008958AEF92E00E94F50D84E093E00E9484
:1007D000CF1089E493E00E945D1D89E093E00E94C0
:1007E000291287E091E00E9499168EE393E00E941F
:1007F000411880E008958AEF92E00E94FA0E80E0AE
:100800000895BC018BE493E00C945521CF93DF93C2
:10081000EC01BC0184E191E00E94301C811123C0F5
:10082000BE0185E091E00E94E31281111CC0BE016F
:100830008CE293E00E942B15811115C0BE0181E866
:1008400093E00E94962381110EC0BE0187E091E0E3
:100850000E94E016811107C0BE018AEC93E0DF918F
:10086000CF910C94C725DF91CF910895BC0187E00B
:1008700091E00C949B1680E00895CF93DF93EC01F8
:10088000BC018DE293E00E944016811107C0BE01B9
:100890008DE293E0DF91CF910C944016DF91CF91E0
:1008A0000895CF93DF93EC01BC0184E191E00E94B5
:1008B000161CBE0187E091E00E94D21780E0DF9114
:1008C000CF9108958BE093E00E94D0138BE493E0E6
:1008D0000E94C02184E191E00E94871B87E091E0A3
:1008E0000E94AD1780E00895FB01918191FF10C037
:1008F00090FD0EC0813061F465ED70E08CE293E014
:100900000E940C156CEA70E08CE293E00E940C15DA
:1009100090E080E0089580914F01909150010E94F5
:10092000040889E00E94F81040E855E260E070E0B9
:100930008BED93E00E94312860E470E081E893E061
:100940000E94652460E870E086EC93E00E94A02598
:100950008091FE028F770C94580B80914F019091FB
:1009600050010C94AF080F931F93CF93DF93EC01CA
:100970006881798184E093E00E946B1181116EC0DF
:10098000688179818BE093E00E942A13811166C00F
:100990006881798189EF92E00E94020F81115EC027
:1009A0006881798188EF92E00E94A60F811156C07C
:1009B00008811981B8018BE093E00E941F138823FE
:1009C000A1F166E872E08BED93E00E94662984E66F
:1009D00090E00E94CC266881798186EC93E00E94A9
:1009E000922481113BC06881798189E493E00E945F
:1009F000AC1D811133C06881798189E093E00E9448
:100A0000711281112BC06881798181E893E00E9485
:100A1000C923811123C0688179818EE393E0DF913E
:100A2000CF911F910F910C94861846E852E0B801BF
:100A30008BE093E00E948C13882369F267E772E0F1
:100A40008BED93E00E94372984E690E00E94CC264B
:100A500060E28BED93E00E945B29B9CFDF91CF91EB
:100A60001F910F910895CF93DF9300D0CDB7DEB7DC
:100A70009A838983CE0101960E94B3040F900F9050
:100A8000DF91CF9108950E942C0DDC01ED91FC9136
:100A90000088F189E02D0994CF93C82F0E942C0D76
:100AA000CE3D98F4EC2FE695E695E695E80FF92F04
:100AB000F11DC77021E030E001C0220FCA95EAF7AE
:100AC000828D822B828FCF910895C05EC830D8F777
:100AD00041E050E001C0440FCA95EAF7FC01218DC6
:100AE000242B218FF0CFCF93C82F0E942C0DCE3D09
:100AF000A0F4EC2FE695E695E695E80FF92FF11DA9
:100B0000C77021E030E001C0220FCA95EAF72095B6
:100B1000828D2823228FCF910895C05EC830D8F7E8
:100B200021E030E001C0220FCA95EAF72095FC01D0
:100B3000318D2323218FEFCF0E942C0D49962DE17B
:100B4000DC011D922A95E9F70E944305882339F0BC
:100B5000EAECF2E088E0DF011D928A95E9F708955A
:100B6000CF93C82F83FF03C081EE0E944C05C0FFC6
:100B700003C080EE0E944C05C1FF03C082EE0E94BC
:100B80004C05C2FF03C086EE0E944C05C4FF04C0A2
:100B900083EECF910C944C05CF910895CF93C82F3D
:100BA000892F0E94B0058C2FCF910C944C050C948A
:100BB0002C0DE7E5F1E050E040E070E060E000007F
:100BC0009191A92FB0E084E0B595A7958A95E1F7BA
:100BD00090962C9130E09F7002C0359527959A959C
:100BE000E2F72095309521703327042E02C0220FA2
:100BF000331F0A94E2F7622B732B4F5F5F4F4C3029
:100C00005105E9F6CB010895FF920F931F93CF93FF
:100C1000DF93C4E4D2E0F12C2A813B8110E000E0B4
:100C200005C00F5F1F4F0C30110509F14881598134
:100C3000002E02C0569547950A94E2F74170C9010B
:100C4000002E02C0969587950A94E2F7880F82706D
:100C5000482B39F36F2D600F80E090E00E946D0CFF
:100C60002A813B810F5F1F4F0C301105F9F6398344
:100C700028832A968CE0F80E80E3F812CDCFDF911E
:100C8000CF911F910F91FF900895FC019081DB019E
:100C90008C91981305C081E0218111969C912913B4
:100CA00080E008951F93CF93DF9300D000D0CDB79D
:100CB000DEB7182F803368F5E82FF0E0EE0FFF1F46
:100CC000ED5BFB4F808191819C838B838FEF8983C8
:100CD0008A83BE016F5F7F4FCE0103960E94450657
:100CE000882369F0A12FB0E0A950BE4FE091020126
:100CF000F0910301612F8C9109958B839C838B81EB
:100D00009C810F900F900F900F90DF91CF911F91CA
:100D100008951092A3041092A404E3EAF4E0D2CF61
:100D2000EF92FF920F931F93CF93DF93CDB7DEB770
:100D3000A4970FB6F894DEBF0FBECDBF8C01DC01C7
:100D40005F968C9189831A828CE1F801B096DE015E
:100D5000199601900D928A95E1F7FE01339686E08F
:100D6000DF011D928A95E9F77E01B9E0EB0EF11CD7
:100D700090E020E0D7014D917D01442309F445C066
:100D800030E0842F817046958823D9F1263088F190
:100D900046E050E061E070E0CF010E94DD32D80112
:100DA000ED91FC910084F185E02DC801099588231F
:100DB00031F0F80184AD44E250E0882311F048E0BE
:100DC00050E0D801ED91FC910480F581E02DBE0149
:100DD0006F5F7F4FC8010995A4960FB6F894DEBFE8
:100DE0000FBECDBFDF91CF911F910F91FF90EF907C
:100DF0000895BF01620F711D892F830FDB018C9352
:100E00002F5F3F5F383009F0BCCF985F903E09F00C
:100E1000B1CFC5CFCF93DF93D62FC72F862F972F74
:100E20000E943604823071F1C63419F4D770D05262
:100E3000C0E08C2F807C59F480E28D0F883008F060
:100E4000C0E08D2F9C2FDF91CF910C94CE058C2F7D
:100E5000887C8834B9F4EAECF2E090E080E02191FB
:100E600031910196232B89F4880F991FFC01E853D7
:100E7000FD4F6C2F70E0762F66276D0F711D73701C
:100E800071836083DF91CF9108958430910539F7A4
:100E9000F9CF8F929F92BF92CF92DF92EF92FF9203
:100EA0000F931F93CF93DF9300D000D000D0CDB726
:100EB000DEB77C016B010E949C0510E000E0BB24C2
:100EC000BA940033110599F1F6019081901729F138
:100ED000003330F5F801EE0FFF1FED5BFB4F808014
:100EE00091809E828D82BB82BC82BE016D5F7F4FEE
:100EF000CE0105960E94450681110FC019821A8203
:100F0000BE016F5F7F4FCE0105960E94450681119D
:100F100004C0B401C7010E940A070F5F1F4FD1CF61
:100F20001092A3041092A404E3EAF4E0D8CF26962A
:100F30000FB6F894DEBF0FBECDBFDF91CF911F91EA
:100F40000F91FF90EF90DF90CF90BF909F908F9088
:100F50000895CF930FB6F894A895809160008861AA
:100F600080936000109260000FBEA7E5B1E043E6F9
:100F700051E061E070E08D91E82FF0E024E0F5951C
:100F8000E7952A95E1F7C1A18F709B0101C0220F5F
:100F90008A95EAF7922F90959C2391A382A1822BA8
:100FA00082A34A175B0739F7A3E6B1E047E651E0B1
:100FB00061E070E08D91E82FF0E094E0F595E79521
:100FC0009A95E1F791A18F709B0101C0220F8A953C
:100FD000EAF7922B91A382A1822B82A34A175B0787
:100FE00049F780E1809381001092800080EE9EE2BC
:100FF000909387008093860081E18093810081E057
:1010000080936F00CF9108950E94D7058EE392E000
:101010000E94A90740E855E260E070E08BED93E0A4
:101020000E9431280E94AC030E94E103E3E4F4E053
:1010300081E39FEF815021F0908391833296FACF24
:1010400086EF91E00C94560B8F929F92AF92BF92D5
:10105000CF92DF92EF92FF920F931F93CF93DF9384
:10106000C4E4D2E004E611E086EFD12CC12CEE24DA
:10107000E394F12C882E912C9594879495948794E1
:101080009594879495948794F40192A18F70570159
:1010900001C0AA0C8A95EAF7892F8A2582A30E94AB
:1010A000D905F40122A1A226A2A248855985842748
:1010B00095276C817D812E813F8126273727282324
:1010C00039233F832E83FB01E095F095E823F92334
:1010D000FD83EC83862397232095309582239323E9
:1010E0004827592759874887C82AD92AC114D104C3
:1010F00001F180914C0290914D02909347028093B0
:10110000460280915602909157029093510280932B
:101110005002809160029091610290935B028093F3
:101120005A0280916A0290916B02909365028093BB
:1011300064022A96F2E0CC36DF0721F0F8018191B3
:101140008F0198CFDF91CF911F910F91FF90EF907A
:10115000DF90CF90BF90AF909F908F9008950E94A6
:1011600062266093F2017093F3018093F4019093EF
:10117000F5018091F001E0914002F091410201906F
:10118000F081E02D882301F180E492E0099581113E
:101190000BC01092F0010E942C0DDC01ED91FC912E
:1011A0000684F785E02D09950E94FB0380913E029D
:1011B000882331F010923E028EE392E00E942408D0
:1011C0000E9404060C94620480E492E0099588234E
:1011D00059F381E08093F001E7CFDF92EF92FF9225
:1011E0000F931F93CF93DF930E942C0DEC018C0182
:1011F000095E1F4FD98C8EA99E01265E3F4F790153
:101200008D15D1F0F901245E3F4F40E0858D50816E
:101210003196952F9095982319F08523848F41E07E
:10122000E217F30799F7442319F0C8010E949006CA
:10123000DEAAC8010E949006E7964CE150E0B70193
:10124000CE010E94B532892B51F08CE1F701DE010D
:1012500001900D928A95E1F7C8010E9490060E94C4
:1012600043058823B9F048E050E06AEC72E082ED73
:1012700092E00E94B532892B69F088EC92E00E94DE
:101280003B0D88E0EAECF2E0A2EDB2E001900D92B5
:101290008A95E1F7DF91CF911F910F91FF90EF9029
:1012A000DF900895EF92FF920F931F93CF93DF93F8
:1012B0008C01EB01898181FF28C080FD26C08B81D4
:1012C000807C19F5888180930101FA800E942C0DA1
:1012D0002DED2F1590F04F2D477021E030E001C02B
:1012E000220F4A95EAF7EF2DE695E695E695E80F89
:1012F000F92FF11D828D822329F58B81882351F0EE
:101300000E94B0050E94ED0805C0E09101018881AE
:10131000E81339C0898181FF07C080FD05C06A815B
:101320007B81C8010E940A07CE010E943D048230E1
:1013300009F43FC0DF91CF911F910F91FF90EF9083
:101340000C94ED08FB80EA80F3FE03C081EE0E945E
:101350007305F0FE03C080EE0E947305F1FE03C02A
:1013600082EE0E947305F2FE03C086EE0E947305B2
:10137000F4FE03C083EE0E9473058E2D0E94730558
:101380000E94ED08BACFE03368F4F0E0EE0FFF1FE3
:10139000ED5BFB4F8181982F907C09F0BBCF0E94C1
:1013A000B005B8CF1092A3041092A404E3EAF4E0CD
:1013B000F1CFDF91CF911F910F91FF90EF900895A2
:1013C000FF920F931F93CF93DF93CDB7DEB72D9787
:1013D0000FB6F894DEBF0FBECDBF8C0129873A87C8
:1013E0004B875C876D87203348F430FF82C031FD26
:1013F00080C089850E9452069C878B87CE01099602
:101400000E940604823009F468C0E985E03368F47C
:101410009A85F0E0EE0FFF1FED5BFB4F90FF76C06B
:1014200091FD74C09FEF90839183811156C01F82FC
:101430001886BE01695F7F4FCE010B960E9445065C
:1014400081114BC01D821E82BE016B5F7F4FCE019A
:101450000B960E944506811140C0FF24FA94FB823E
:10146000FC82BE016D5F7F4FCE010B960E94450648
:10147000811133C0F982FA82BE016F5F7F4FCE01C6
:101480000B960E944506811128C08C858D7F84347F
:1014900021F4CE0109960E94CF0B8C858434E9F0AB
:1014A0008F7C813409F045C08A851B8581FF32C05D
:1014B00080FD30C01983612F88EE92E00E94980D64
:1014C000811109C041E050E0BE016F5F7F4F88EE9F
:1014D00092E00E94820D10933B022D960FB6F89475
:1014E000DEBF0FBECDBFDF91CF911F910F91FF9057
:1014F00008958FEF89838A83BE016F5F7F4FCE018E
:101500000B960E944506811174CF78CF9C852B8560
:1015100020838ACF80913B028113DFCF198241E083
:1015200050E0BE016F5F7F4F88EE92E00E94820D17
:10153000D4CFBE01675F7F4FC8010E944907BE013B
:10154000675F7F4FC8010E945209CE0109960E9431
:101550005104C3CFEF92FF920F931F93CF93DF936A
:1015600000D000D000D01F92CDB7DEB7022F2B8362
:101570003C834D835E836F83203308F042C07C013F
:10158000832F817031FF22C081113BC08FEF89838F
:101590008A83BE016F5F7F4FCE0105960E9445068C
:1015A000882329F0802F0E9452069E838D83CE01CE
:1015B00003960E940104811124C02B813C814D813E
:1015C0005E816F81C7010E94E0091BC08823C9F0BA
:1015D00010E0000F111F0D5B1B4FF80180819181FE
:1015E0009E838D8319821A82BE016F5F7F4FCE0169
:1015F00005960E9445068823D1F28FEFF80180837B
:10160000818327960FB6F894DEBF0FBECDBFDF9162
:10161000CF911F910F91FF90EF90089570E090E3AC
:10162000899F600D711D1124660F771FFB01E95022
:10163000FF4F8491FB01E850FF4F94910895EF9282
:10164000FF920F931F93CF93DF93E7EFF1E080E3D7
:10165000DF011D928A95E9F77F0100E00033F9F080
:10166000C0910401D0E0C95DDD4FB2E0C732DB07B5
:1016700089F01A911A3208F01A52E0910201F091A1
:101680000301602F812F09958F3F11F49F3F69F36C
:10169000F70110830F5FFFEFEF1AFF0ADFCFDF9133
:1016A000CF911F910F91FF90EF9008950C941F0B15
:1016B00090910001891748F491E090930401809380
:1016C00027020E941F0B0C943B040895CF93C091F6
:1016D000040190E0BC016F5F7F4F4C2F50E0461B30
:1016E000570B695D7D4F895D9D4F0E94CB32C15084
:1016F000C0930401CF9108954091040150E090E01F
:10170000682F70E0292F092E000C330B24173507A2
:1017100064F4295D3D4FF9012081022E000C330B4A
:101720002617370719F09F5FEDCF9FEF892F089598
:10173000CF9396ED980F8A3208F4982F20910001EC
:101740009217C8F4C82F0E947C0B87FF0E94660B7B
:10175000E0910401E03110F080E0F8CF81E08E0FDD
:1017600080930401F0E0E95DFD4FC0830E941F0BF0
:10177000CF910C943B04CF9108950E947C0B87FD80
:101780000DC090910401923018F480E00C94580B35
:101790000E94660B0E941F0B0C943B0408950F934C
:1017A0001F93CF93FC01C2819181292F22708381E5
:1017B000863479F5C695C695C695C65D8F0186EDCA
:1017C0008C0F35EB3C0F323008F060C02223E9F07B
:1017D00090FD1BC0E0910401F0E0EA5DFD4F9081B7
:1017E0009A3208F09A528232B1F59F5F80910001DF
:1017F000981798F1D801EC91E03338F4F0E0EE0F4F
:10180000FF1FED5BFB4F10821182CF911F910F9153
:101810000895C43558F02223C1F390FDF6CF8CEA29
:101820008C0FCF911F910F910C94580BCA3230F648
:10183000222359F390FDE9CF30910401E7E2F2E071
:1018400020E08FEF321789F191919A320CF0982FA6
:101850002F5F892FF7CF9150C9CFCAE2C90F8C2FC4
:101860000E94980BD801EC91E03348F4F0E0EE0FC1
:10187000FF1FED5BFB4FC08384E48183C6CF1092D2
:10188000A3041092A404E3EAF4E0F5CF8C2F222302
:1018900099F090FD11C00E947C0B87FFB6CF8C2F72
:1018A000CF911F910F910C94980B082E000C990B5F
:1018B000C8171906A1F78C2FCF911F910F910C9487
:1018C000BD0B88E394E00C94AA2FE7E3F2E01482C6
:1018D00085E591E0928781870895CF93DF9300D0CB
:1018E00000D01F92CDB7DEB7262F342F842F817002
:1018F00041FF15C0811115C08091420461E0680F5D
:10190000609342044FEF5FEF81EF91E00F900F90F3
:101910000F900F900F90DF91CF910C94AA0A811134
:10192000EBCF0F900F900F900F900F90DF91CF9112
:1019300008951F920F920FB60F9211248F9381E09A
:1019400080933E028F910F900FBE0F901F901895BD
:10195000FC0182818F5BFB01808381E00895089503
:10196000FC01838908954797FC0183890895FC0150
:10197000848908954797FC0184890895FC016623B2
:1019800049F085EC92E09387828780E390E0958729
:10199000848708958EE892E09387828787E390E0BA
:1019A000F6CF47970C94BE0C21E0FC01238B0895E1
:1019B000479721E0FC01238B08950F931F93CF934A
:1019C000DF93EB018A019A01AB0160E00E946F3165
:1019D000E091C604F091C704309729F09C01A8015A
:1019E000BE0182E00995DF91CF911F910F9108957B
:1019F00047970C94DD0CCF92EF920F931F93CF93E8
:101A0000DF93EC01162FC12CEE24E39400E020E4D8
:101A100050E040E070E060E00E944A31FE01ED5A83
:101A2000FF4F10838BE691E09983888385E891E0EE
:101A3000988F8F8B81E08F87612FCE0147960E9410
:101A4000D10C0E941429BE01DF91CF911F910F91FB
:101A5000EF90CF900C94D02880916C02811108C037
:101A600060E084E792E00E94FB0C81E080936C02CE
:101A700084E792E00895CF93DF93EC010E944C300D
:101A8000AE014E5F5F4FDC01ED91FC910084F1856A
:101A9000E02D28E030E064E0DF91CF91099428E068
:101AA000FC013296DF01322F1D923A95E9F7389604
:101AB000DF011D922A95E9F723E931E0FC0131832A
:101AC00020838091DA02811113C01092E3021092F8
:101AD000E20285EF92E09093E5028093E40289E1CF
:101AE00090E09093E7028093E60281E08093DA022F
:101AF0000E944C3062EE72E00C940C3088EC92E064
:101B00000C944F0D0F931F93CF93DF93EB018A013A
:101B10000E944C30DC01ED91FC910084F185E02DB8
:101B20009801AE0165E0DF91CF911F910F9109946B
:101B3000633831F488E394E00E94B12F81E0089586
:101B400080E0089529E931E0FC0131832083809110
:101B5000EA02811113C01092F3021092F2028EE099
:101B600093E09093F5028093F40288E190E09093E3
:101B7000F7028093F60281E08093EA020E944C30E3
:101B800062EF72E00C940C3088EE92E00C94A20D9F
:101B900084E690E00C94CC264AE050E0682F8BED70
:101BA00093E00E94372A0E94C80D60E28BED93E01B
:101BB0000E945B290C94C80DFF920F931F93CF9343
:101BC000DF93EC01F62E08811981C8010E94E432EE
:101BD000F81621F06F2DC8010E94EC32CE01DF9182
:101BE000CF911F910F91FF900895AF92BF92CF9226
:101BF000DF92EF92FF920F931F93CF93DF9300D06A
:101C0000CDB7DEB78C016C0184E0C80ED11C560143
:101C1000F12CE12CC7010E94E432F50181935F01B0
:101C2000FFEFEF1AFF0A84E0E816F10499F7F801D4
:101C300085818F3FD1F48481982F9F779F3711F44E
:101C400087FD148281E0F801858310E000E01A83AB
:101C50000983F60161916F01CE0101960E94DC0DAE
:101C60000F5F1F4F0430110591F780E00F900F9028
:101C7000DF91CF911F910F91FF90EF90DF90CF9068
:101C8000BF90AF9008950F931F93CF93DF9300D031
:101C9000CDB7DEB77A836983FC01238110E000E0D1
:101CA00021110FC000811181CB01800F911F918301
:101CB000808342E0BE016F5F7F4F82E093E00E942D
:101CC0007710C8010F900F90DF91CF911F910F9166
:101CD0000895CF92DF92EF92FF920F931F93CF93CD
:101CE000DF9300D0CDB7DEB77C016C0184E0C80E75
:101CF000D11C10E000E01A830983F60161916F01A5
:101D0000CE0101960E94DC0D0F5F1F4F04301105BC
:101D100091F781E0F70182830F900F90DF91CF91CF
:101D20001F910F91FF90EF90DF90CF9008951F9338
:101D3000CF93DF93EC01162F80910001681748F4D0
:101D4000862F0E94580B8C818078912F9F77892B4A
:101D50008C831E3720F08C8180788E678C83CE0137
:101D60000E94690E8C818F77DF91CF911F9108952A
:101D7000FC01948160FB97F99483892F8F778F37CB
:101D800019F490789E679483CF010C94690ECF93D9
:101D9000DF93EC0181E08B8360E182E093E00E94BD
:101DA0005E108D81813021F01A82DF91CF910895EC
:101DB0002E813F8180910203909103032F3F3207D0
:101DC000A9F49F838E83CE010E94690E81E08A83ED
:101DD0008C818F778E3748F72091000130E0821791
:101DE00013061CF7DF91CF910C94580B2817390775
:101DF000E1F6ECCFFC012381211102C00E94C70E45
:101E000080E00895CF93DF93EB018BE093E00E9495
:101E10001F13882311F16FE773E08BED93E00E94AD
:101E200066290E94C80D6FE673E08BED93E00E9477
:101E300066290E94C80D6EE573E08BED93E00E9469
:101E400066290E94C80D61E573E08BED93E00E9466
:101E500066290E94C80D80E021C04FE753E0BE0113
:101E60008BE093E00E948C138823D9F08BE093E001
:101E70000E949913882331F08091FE028F770E948F
:101E8000CC0D0BC041E070E060E08BED93E00E9470
:101E9000DA2A8AEF92E00E94970E81E0DF91CF91DB
:101EA00008954FE653E0BE018BE093E00E948C134F
:101EB000882381F06091FC028BE093E00E94141370
:101EC0000E94C80D60E28BED93E00E945B290E94A6
:101ED000C80DE3CF4EE553E0BE018BE093E00E94D6
:101EE0008C13882319F08091FF02C9CF41E553E09C
:101EF000BE018BE093E00E948C13882309F4ABCFE2
:101F00008091FD02C0910003D0910103811102C0B4
:101F1000D0E0C0E060910203709103034AE050E01A
:101F20008BED93E00E943E2A0E94C80D6FE473E09F
:101F30008BED93E00E9437290E94C80D4AE050E0E3
:101F4000BE018BED93E00E943E2AC1CF0F931F93F9
:101F5000CF93DF9300D0CDB7DEB78B018BE093E05A
:101F60000E941F138823D1F06FE373E08BED93E0A1
:101F70000E9466290E94C80D63E373E08BED93E035
:101F80000E9466290E94C80D66E273E08BED93E023
:101F90000E9466290E94C80D80E01DC04FE353E0F7
:101FA000B8018BE093E00E948C138823A9F18BE0A9
:101FB00093E00E94991310E000E0882399F0C80193
:101FC0000E94E4320E94CC0D0F5F1F4F011584E088
:101FD0001807A9F781E00F900F90DF91CF911F9123
:101FE0000F9108958BE093E00E9499138111F2CF35
:101FF00041E070E060E08BED93E00E94DA2A1A8302
:102000000983CE0101960E94DC0D0F5F1F4F011561
:1020100084E0180739F7DECF43E353E0B8018BE0E3
:1020200093E00E948C138823C1F08091FA02909172
:10203000FB0260E074E0681B790B4AE050E08BED36
:1020400093E00E943E2A0E94C80D60E28BED93E06F
:102050000E945B290E94C80DBDCF46E253E0B80143
:102060008BE093E00E948C13882309F495CF10E055
:1020700000E01A8309836FEFCE0101960E94DC0D08
:102080000F5F1F4F011584E0180799F787E797E75F
:10209000909301088093000888E19BE00FB6F894C4
:1020A000A895809360000FBE90936000FFCF84E0FE
:1020B00090E09093FB028093FA020895FC01208146
:1020C00031812170332781E0861770F4408151817E
:1020D0005695479551834083220F331F41705527F2
:1020E000242B352B8F5FF0CF318320830895DC01C3
:1020F000FB01415000F181912D913C91119768E0D5
:1021000070E051E0982F952399F4932F991F992708
:10211000991F220F331F992319F095E02927305872
:10212000550F6150710971F711963C932E93E1CFD1
:10213000932F9095EBCF089584E690E00C94CC26F5
:102140001F93CF93DF9390910603891730F080E0BF
:1021500090E0DF91CF911F910895C62FD0E090E3DA
:10216000899FC00DD11D1124CC0FDD1F6091070385
:1021700070910803C60FD71FCE010E94E432182FBA
:10218000CE0101960E94E432912FE3CF9091050396
:10219000891710F40C940E0B891B0C94A0108AEF75
:1021A00092E00E94F50D809100018093050380E08C
:1021B000089564EC73E08BED93E00E9437290E9450
:1021C0009C108BED93E00E9462290E949C1080E09D
:1021D00008958093060390E6899FB00111248AEF49
:1021E00092E00E94430E90930803809307030895A2
:1021F000809300019091FE0220EA30E197FD07C034
:1022000090910503980F9093000126EC30E13093F4
:102210000301209302010C94E910FF920F931F9386
:10222000CF93DF9300D0CDB7DEB7F62E672F8C01AA
:10223000000F111F8091070390910803800F911FD9
:102240009A838983CE0101960E94DC0D8091070359
:10225000909108030196800F911F9A8389836F2DB7
:10226000CE0101960E94DC0D0F900F90DF91CF916F
:102270001F910F91FF900895FF920F931F93CF939B
:10228000DF93F82E8B01C0E0CF15F9F0D0E06D2F71
:102290008C2FF8010995692F70E0762F6627680F5B
:1022A000711D4AE050E08BED93E00E943E2A0E94AF
:1022B0009C1060E28BED93E00E945B290E949C10D1
:1022C000DF5FD03321F7CF5FDFCFDF91CF911F9159
:1022D0000F91FF900895FF920F931F93CF93DF9379
:1022E0001F92CDB7DEB78B018BE093E00E941F13E6
:1022F000882301F166EB73E08BED93E00E94662981
:102300000E949C1067EA73E08BED93E00E946629BF
:102310000E949C1065E973E08BED93E00E946629B2
:102320000E949C1080E00F90DF91CF911F910F9140
:10233000FF90089545E953E0B8018BE093E00E94D7
:102340008C138823F1F18BE093E00E94991388238A
:10235000B1F06091FE0267FB662760F94AE050E049
:102360008BED93E00E94372A0E949C1060E28BED77
:1023700093E00E945B290E949C1081E0D4CF41E051
:1023800070E060E08BED93E00E94DA2A162F6983FB
:102390008AEF92E00E94B80E90910603909300019C
:1023A000112339F080EA90E19093030180930201B8
:1023B000E4CF80910503890F8093000186EC90E1C2
:1023C000F3CF47EA53E0B8018BE093E00E948C130F
:1023D000882339F06EE07BE0809105030E943C1178
:1023E000CCCF46EB53E0B8018BE093E00E948C1316
:1023F000882309F497CF8BE093E00E94991310E0B3
:1024000000E090E3F92E882329F060EA70E18091E2
:102410000603E4CF8BE093E00E9499138111ADCFC6
:10242000809106038F9DC00111240817190708F039
:10243000A4CF41E070E060E08BED93E00E94DA2AE7
:10244000272F3327722FC8010E940D110F5F1F4FD6
:10245000E1CFEF92FF920F931F93CF93DF938C0105
:1024600062E070E08AEF92E00E94430EEC01F80116
:10247000918380838C017C01F2E0EF0EF11C0E153C
:102480001F0598F4C8010E94E4328F3F19F40F5FD2
:102490001F4FF5CFCE010E94E43280930501CE019B
:1024A00001960E94E4328093060180E0DF91CF9193
:1024B0001F910F91FF90EF9008956BEE73E08BEDFD
:1024C00093E00E94372984E690E00E94CC268BEDB1
:1024D00093E00E94622984E690E00E94CC2680E08E
:1024E0000895EF92FF920F931F93CF93DF937C0198
:1024F000EB018BE093E00E941F13882361F061EDF4
:1025000073E08BED93E00E94662984E690E00E94E0
:10251000CC2680E02CC041ED53E0BE018BE093E07F
:102520000E948C138823A9F38BE093E00E949913F7
:10253000882321F16091060170E0762F6627809153
:102540000501680F711D4AE050E08BED93E00E9499
:102550003E2A84E690E00E94CC2660E28BED93E078
:102560000E945B2984E690E00E94CC2681E0DF9106
:10257000CF911F910F91FF90EF90089541E070E08F
:1025800060E08BED93E00E94DA2A162F609305013C
:1025900070930601F701C081D181CE010E94E4321F
:1025A000811721F0612FCE010E94EC3210910601BB
:1025B0002196CE010E94E4321817C1F2612FCE019C
:1025C0000E94EC32D3CFCF93DF93DC01EB019A81F1
:1025D0008C91981305C02B8111968C91281749F086
:1025E0009E3721F080E0DF91CF9108958B81813D6E
:1025F000C9F7898181FFF6CF80FDF4CF87FDF2CF47
:1026000084E191E00E947E1A882361F361E084E115
:1026100091E00E94E51A1A821B8281E0E4CFBC019E
:102620008BED93E00C947829611106C06EEF73E096
:102630008BED93E00C94372964E074E0F9CFCB0183
:1026400069EF73E00E94AC3221E0892B09F020E0B1
:10265000822F0895CF93DF93EB010E941F138823ED
:1026600051F168E274E08BED93E00E94662984E604
:1026700090E00E94CC266BE174E08BED93E00E9429
:10268000662984E690E00E94CC2661E174E08BED3F
:1026900093E00E94662984E690E00E94CC2669E0DF
:1026A00074E08BED93E00E94662984E690E00E943E
:1026B000CC2680E024C06BE174E0CE010E94AC32F5
:1026C000892B89F487E797E79093010880930008A6
:1026D00088E19BE00FB6F894A895809360000FBE48
:1026E00090936000FFCF61E174E0CE010E94AC32B4
:1026F000892B41F48FE093E10E94DF0381E0DF91B9
:10270000CF91089569E074E0CE010E94AC32892B2C
:1027100081F60E94B703F2CFCB01BA010E94AC321E
:1027200021E0892B09F020E0822F089510922B03DD
:1027300008958F929F92AF92BF92CF92DF92EF92C5
:10274000FF92C090DF03D090E003E090E103F090AF
:10275000E2030E9462264B015C018BED93E00E9434
:102760004327082E000C990B8A30910569F097FFDA
:1027700015C00E946226681979098A099B096C159F
:102780007D058E059F0548F381E0FF90EF90DF9077
:10279000CF90BF90AF909F908F90089580E0F5CF3D
:1027A000CF93DF93EC018BED93E00E9459278BEDE3
:1027B00093E00E945C27892B09F442C08BED93E0E3
:1027C0000E9443278A3099F18BED93E00E946C2799
:1027D00080329105E1F4CE010E9433058BED93E048
:1027E0000E945C27892B31F08BED93E00E946C27CF
:1027F0000A97A1F76DE274E08BED93E00E946629E1
:1028000018A280E2FE0111928A95E9F719C0E8A1A9
:1028100091E09E0F98A3EC0FFD2FF11D80839F3157
:1028200030F48BED93E00E945C27892B39F68BED19
:1028300093E00E9443270A9771F288A18F3158F6DE
:1028400080E0DF91CF910895FC01849131969491BD
:1028500008958F929F92AF92BF92CF92DF92FF9294
:102860000F931F93CF93DF936115710509F481C016
:10287000F12CEB012196FB011491EFEFE10FED300C
:1028800008F077C0F0E0E95BFB4E0C9483326C14E7
:102890007914851485148514851485148514711490
:1028A00071147114541454148F2C912CB12CA12C2C
:1028B00070E01D3029F0CE010196FE017491EC010B
:1028C0006E01FFEFCF1ADF0AFE016491611147C06C
:1028D000711145C0E60105C06E5F7F4FFE01F490A7
:1028E000EB016F2D70E090E080E00E949326BE0126
:1028F000C0CF8B010E5F1F4FFE01649170E090E02E
:1029000080E00E949326E801ECCF8AEF810F8330AC
:1029100098F06E5F7F4FFE018491EB012196FB01E1
:102920006491153081F058F4143099F0782F8DE2CD
:1029300093E00E947715D5CFBE0180E0EECF17302F
:1029400041F0183099F7782F8DE293E00E941B1622
:10295000C8CF782F8DE293E00E94B215C2CF8DE2EE
:1029600093E00E941B16C501B4010E949326E60164
:102970009FCFDF91CF911F910F91FF90DF90CF906C
:10298000BF90AF909F908F900895862F90E0613414
:10299000E0F46A33B0F5603269F170F46A3039F10D
:1029A00030F482E2683050F590E080E008956B31B9
:1029B000D9F790E089E208956133F8F4880F991F00
:1029C0008A509C4F0E9424140895613638F46B3568
:1029D000E8F0880F991F80559C4FF4CF6B37D0F0EB
:1029E0006F3710F7880F991F84589C4FEBCF90E0FA
:1029F00088E2089590E08CE208958DEE860F90E0D5
:102A00000895880F991F8C519C4FDCCF83EC860F63
:102A100098E0089583EAF2CF0F931F93CF93DF934B
:102A20008C01EB01FE016491662371F0C8010E94E4
:102A3000C514811102C0992329F0BC018DE293E0F5
:102A40000E941B162196EECF90E080E0DF91CF919F
:102A50001F910F9108950F931F93CF93DF93EB0175
:102A60002B8130E0322F22274A8150E0BA01705684
:102A7000260F371F2F3F310509F0F8F48C01BE01F6
:102A8000842F0E947404BC01C8010E94291489810A
:102A900080FF02C081FF0DC08A8190E090562B819B
:102AA00030E0322F2227820F931F8F3F910529F0AC
:102AB00020F08DE293E00E94DA1580E0DF91CF9163
:102AC0001F910F91089561E374E08BED93E00E94F4
:102AD000372984E690E00E94CC268BED93E00E949B
:102AE000622984E690E00E94CC2680E00895EF926F
:102AF000FF920F931F93CF93DF9300D000D01F92CC
:102B0000CDB7DEB78C01F62EE72E609142048FEF31
:102B1000898382E88A83FB827C836D832FEF32E88E
:102B20004F2D572F81EF91E00E94E009C801409698
:102B3000F801E817F90741F02081211111C0218126
:102B400021110EC0F082E1820F900F900F900F9034
:102B50000F90DF91CF911F910F91FF90EF9008950B
:102B60003296E7CFCF93DF9300D000D01F92CDB73E
:102B7000DEB7AB019C01205F3F4FFC012E173F07E2
:102B800051F08081841305C08181851302C01082B9
:102B900011823296F3CF609142042FEF31E881EF3A
:102BA00091E00F900F900F900F900F90DF91CF91C9
:102BB0000C94E009CF92DF92EF92FF920F931F9354
:102BC000CF93DF9300D000D01F92CDB7DEB77C014A
:102BD00020E1E20EF11C8C01DD24DA9481E8C82E9C
:102BE000E016F106D1F0F80140815181411102C097
:102BF000552381F060914204D982CA824B835C8361
:102C00006D832FEF31E881EF91E00E94E009F80138
:102C1000108211820E5F1F4FE3CF0F900F900F9025
:102C20000F900F90DF91CF911F910F91FF90EF9038
:102C3000DF90CF9008950F931F93CF93DF9300D031
:102C400000D01F92CDB7DEB78B01609142042FEF09
:102C500032E8A80181EF91E00E94E009609142040E
:102C60002FEF31E8A80181EF91E00F900F900F90C6
:102C70000F900F90DF91CF911F910F910C94E0096D
:102C80000F931F93CF93DF938C01005F1F4FEC01D5
:102C90000C171D0771F068817981898198819111E4
:102CA00002C0882321F081EF91E00E940A0722965A
:102CB000EFCF80E0DF91CF911F910F910895CF93D7
:102CC000DF93EC019A818F8198130CC08B81811165
:102CD00009C08C81811106C08D81811103C08E8154
:102CE000882349F0E881F9810190F081E02DCE013F
:102CF00009958A818F83DF91CF9108952EEF260F5A
:102D0000223010F4FC01658308956AE774E08BEDCE
:102D100093E00E94372984E690E00E94CC268BED58
:102D200093E00E94622984E690E00E94CC2680E035
:102D3000089580E00895FC01703579F4862F80763F
:102D4000803429F49485862F8F7B892B8487862F66
:102D5000807729F48385682B638780E0089580312C
:102D6000E1F780E1689FB0011124F4CFEAECF4E0D0
:102D700025E0DF011D922A95E9F7FC018485809307
:102D8000CA0488EC94E00C945F16FB01828186FBF8
:102D9000992790F960E080FD62E0692B90E081FD69
:102DA00094E0692B90E082FD98E0692B83FD06C0DA
:102DB00080E0682B80E493E00C94971980E1F9CFD0
:102DC000FB0123812035A9F4DC011B961C921B9783
:102DD00022812076203411F41C961C92218121FF3F
:102DE00008C020FD06C0BF01228125FF04C00E944B
:102DF000C51680E0089580E493E00E949419F9CF0D
:102E00006091F2017091F301FC0126813781621B10
:102E1000730B238134812617370760F090E080E040
:102E2000982F872F762F662750E040E00E9461326E
:102E3000822F08958FEF0895482F50E087FD0AC034
:102E4000889FC0011124880F892F881F990B9195A5
:102E50008F5F089520E031E0241B350B229FC001D5
:102E6000239F900D900D1124880F892F881F990B97
:102E7000919580950895CF93DF93EC010E94001700
:102E80000E941C1729819A81921B30E0322F222741
:102E9000989F200D311D112454E0369527955A95A1
:102EA000E1F7220F331F220F331F80913D0390E083
:102EB000805C9F4F280F391F20933D03832FDF91A4
:102EC000CF910895CF93FC01C2852C2F2F70D9F09C
:102ED0000E943B17282F2195C2FF20E0C3FD280F39
:102EE000982F9195C0FF90E0C1FD980F2093CB04DF
:102EF0009093CC041092CD041092CE0488EC94E010
:102F0000CF910C945F16CF910895FC01828590E0DB
:102F100054E0959587955A95E1F70097E9F09C0163
:102F200036952795369527952170422F419583FF39
:102F300002C041E0421B9C012170332781FD2150DA
:102F40001092CB041092CC042093CD044093CE0475
:102F500088EC94E00C945F160895CF93DF93FC0106
:102F600022852223D9F0EC018091F2019085891B02
:102F7000843030F0CF010E94621788858C5F88878B
:102F80008091F2019985891B9881891738F0CE01CB
:102F90000E94851789859881890F898780E0DF9154
:102FA000CF9108950F931F93CF93DF93FB0123815C
:102FB000203521F58B01EC0182818076803419F473
:102FC000CE010E94B6168A858F7031F48091F2018D
:102FD0009091F3019F838E838B858A871B86F801EE
:102FE000818181FF0BC080FD09C08281807761F4FF
:102FF000CE010E9462178091F201888780E0DF9104
:10300000CF911F910F9108958031C1F7CE010E9499
:1030100085178091F2018987F1CF84E690E00C94C6
:10302000CC269F92AF92BF92CF92DF92EF92FF9207
:103030000F931F93CF93DF935C017B018B01D0E053
:10304000C0E0F80191908F016501CC0EDD1EC60134
:103050000E94E432981621F0692DC6010E94EC32DC
:103060002196C630D10569F7C701DF91CF911F9135
:103070000F91FF90EF90DF90CF90BF90AF909F9017
:103080000895EF92FF920F931F93CF93DF938C01DC
:1030900066E070E08AEF92E00E94430EEC01F801D6
:1030A000918380838C017C01F6E0EF0EF11C0E15FC
:1030B0001F0530F5C8010E94E4328F3F19F40F5FFD
:1030C0001F4FF5CF07E011E0C750D140CE01800F70
:1030D000911F0E94E432F80181938F01F1E00D30DD
:1030E0001F07A1F760910C0187E091E00E947E1616
:1030F00080E0DF91CF911F910F91FF90EF900895A5
:1031000067E071E0CE010E941118ECCF0F931F937E
:10311000CF93DF938C01EB018BE093E00E941F13B0
:10312000882351F160EE74E08BED93E00E946629F4
:103130000E940D186BEC74E08BED93E00E94662901
:103140000E940D1866EB74E08BED93E00E946629F7
:103150000E940D186DE974E08BED93E00E946629E2
:103160000E940D1864E874E08BED93E00E946629DC
:103170000E940D1880E061C040EE54E0BE018BE07B
:1031800093E00E948C13811135C04BEC54E0BE01DA
:103190008BE093E00E948C1381112EC046EB54E02B
:1031A000BE018BE093E00E948C13811127C04DE992
:1031B00054E0BE018BE093E00E948C13811120C08B
:1031C00044E854E0BE018BE093E00E948C13C4E01D
:1031D000882381F28BE093E00E9499138823A9F160
:1031E000C23081F178F460910801C130A9F060919A
:1031F000070112C0C0E0EECFC1E0ECCFC2E0EACFE1
:10320000C3E0E8CF60910A0170910B01C33029F04F
:1032100060910C01C43059F770E04AE050E08BED4A
:1032200093E00E943E2A0E940D1860E28BED93E02D
:103230000E945B290E940D1881E0DF91CF911F91C0
:103240000F91089560910901E7CF41E070E060E0DF
:103250008BED93E00E94DA2AC230C9F060F4C130ED
:1032600099F06093070167E071E0F8018081918136
:103270000E941118E1CFC33069F0C43091F787E0A4
:1032800091E00E947E16EFCF60930801ECCF60932F
:103290000901E9CF60930A0170930B01E4CF0F930A
:1032A0001F93CF93DF9300D000D000D0CDB7DEB70F
:1032B00016950795600F711F36952795420F531F7E
:1032C000EEEDF4E0728F618F548F438F858D89838B
:1032D0007B836A835D834C831E820788F08DE02D9B
:1032E0000190F081E02D46E050E0BE016F5F7F4F1E
:1032F00085EF94E0099526960FB6F894DEBF0FBED1
:10330000CDBFDF91CF911F910F910895FC011782DE
:103310001682158214828FEF9FE7918380839383B7
:10332000828381E080870895FC0110860895FF92D2
:103330000F931F93CF93DF93EC01F62E88858111B5
:1033400003C0CE010E948619F0FE07C01886DF91E7
:10335000CF911F910F91FF90089560910C0170E043
:10336000888199810E944D328B01798368836091B5
:103370000C0170E08A819B810E944D329B017B830E
:103380006A836F2D64704C815D818E819F817F2D5A
:103390007670763069F4B801680F791F7F836E8389
:1033A000420F531F5D834C83CE010E944F19CFCF34
:1033B000662329F1E0910C01E150FF0BE29FB0017F
:1033C000E39F700DF29F700D1124460F571F5D8310
:1033D0004C83F4FE19C040910C014150550B409FA5
:1033E000B001419F700D509F700D1124860F971FE3
:1033F0009F838E834C815D816E817F81D5CFF1FC6F
:10340000E8CF420F531FE3CFF3FCF4CF800F911F9F
:10341000EFCF109248030895FC018281DB019C915B
:10342000891730F5A081B181A80FB11D2C9130E032
:10343000938102C0359527959A95E2F724834481BC
:10344000442391F0242F30E0938140FF07C0880F80
:10345000880F880F890F858381E00895359527951A
:1034600024839F5F9383EBCF8F5F82831382D5CFBB
:1034700080E00895262F269526952695820F911D8A
:10348000FC01808190E0677002C0959587956A95F0
:10349000E2F781700895E62FE695E695E695E80F48
:1034A000F92FF11D677081E090E0A0E0B0E004C06A
:1034B000880F991FAA1FBB1F6A95D2F72081822B04
:1034C00080830895E62FE695E695E695E80FF92FB7
:1034D000F11D862F877041E050E060E070E004C08D
:1034E000440F551F661F771F8A95D2F74095509558
:1034F000609570958081482340830895EF92FF92F4
:103500000F931F93CF93DF93CDB7DEB72C970FB6F2
:10351000F894DEBF0FBECDBF8C010A9698878F83CB
:1035200019861A86FF24FA94FC869A83898386E09A
:10353000E82EEB821C82FE82BE016D5F7F4FCE01C2
:1035400007960E940C1A811113C0005F1F4F188745
:103550000F8319861A86FC861A830983EB821C82E4
:10356000FE82BE016D5F7F4FCE0107960E940C1A4E
:103570002C960FB6F894DEBF0FBECDBFDF91CF9172
:103580001F910F91FF90EF900895272F207C69F4F1
:10359000605E683080F4FC018681978102C0969558
:1035A00087956A95E2F781700895743431F426EDB9
:1035B000260F2A3220F081E008957634E1F7625236
:1035C00060314CF3F8CF0C94C51AAF92BF92DF92E2
:1035D000EF92FF920F931F93CF93DF93CDB7DEB798
:1035E00061970FB6F894DEBF0FBECDBF8C010A966F
:1035F0007C01662381F1580190E1A90EB11CB886C7
:10360000AF8219861A868FEF8C87BA82A98296E0DC
:103610009B831C828E83BE016D5F7F4FCE01079618
:103620000E940C1A8823B9F0DC846D2DC5010E941C
:10363000621A6D2DC7010E94621A609142042D2DFD
:1036400031E84FEF5FEF81EF91E00E94E0098A855A
:103650008F5F8A87E0CFF886EF8219861A868FEF10
:103660008C87FA82E98296E09B831C828E83005FBE
:103670001F4FBE016D5F7F4FCE0107960E940C1A4F
:10368000882309F1DC846D2DC8010E943A1A6D2D42
:103690008823A9F0C8010E94621A6D2DC7010E94FB
:1036A000621A609142042D2D31E84FEF5FEF81EFF8
:1036B00091E00E94E0098A858F5F8A87DACFC7018F
:1036C0000E94621AF8CF61960FB6F894DEBF0FBE63
:1036D000CDBFDF91CF911F910F91FF90EF90DF90C1
:1036E000BF90AF9008956AEF74E08BED93E00E9475
:1036F000372984E690E00E94CC268BED93E00E946F
:10370000622984E690E00E94CC2680E008954F92E2
:103710005F926F927F928F929F92AF92BF92CF9261
:10372000DF92EF92FF920F931F93CF93DF93CDB76A
:10373000DEB761970FB6F894DEBF0FBECDBF8C0128
:10374000FC0160807180C090F201D090F301868905
:103750009789C81AD90A828093807801FAE0EF0E1F
:10376000F11CF886EF8219861A868FEF8C87FA8211
:10377000E98296E09B831C828E83512C580180E164
:10378000A80EB11CBE016D5F7F4FCE0107960E944F
:103790000C1A482E882349F15C84652DC5010E94CE
:1037A0003A1A8823D1F0C614D70490F0652DC501CC
:1037B0000E94621A652DC7010E94621A609142043C
:1037C000252D31E84FEF5FEF81EF91E00E94E00996
:1037D0008A858F5F8A87542CD5CFC814D904C0F34B
:1037E000652DC7010E94621AF3CF511007C0809166
:1037F000F2019091F301F801978B868B80E061963E
:103800000FB6F894DEBF0FBECDBFDF91CF911F91F1
:103810000F91FF90EF90DF90CF90BF90AF909F906F
:103820008F907F906F905F904F900895FB01208163
:10383000203320F4218127FF0C94871B80E008951A
:10384000872F90E0982F8827860F911D2FEF280F44
:10385000283018F4815290E008958F5D94E4089523
:103860009F92AF92BF92CF92DF92EF92FF920F930F
:103870001F93CF93DF93FB01F080FFE2FF1508F465
:103880005FC0FB01E180E7FC5BC08B01EC016C01D8
:10389000FAE0CF0ED11C6F2DC6010E943A1A982E65
:1038A0005E0120E1A20EB11C6F2DC5010E943A1AE3
:1038B000E1FE95C0E0FC93C0911056C081118AC012
:1038C000F80182819381292F30E0322F2227482F5F
:1038D00050E04150504C240F351F20313105A0F4E9
:1038E00062817381CE010E94201CF8019383828340
:1038F000F8016081C6010E944B1A8091F2019091FB
:10390000F3019F8B8E8B19C02885222339F0292F34
:10391000207C21F420E2280F283050F3298522232F
:1039200031F0943479F426ED280F2A3208F3292F48
:10393000207C59F4805E883068F4F8018081888F9B
:1039400080E03CC0963499F7D3CF943451F48A5236
:103950008A3298F38E899F8928813981821B930B43
:10396000D0CF963451F3F6CF882339F36F2DC601AB
:103970000E94621AF8019081888D981731F0F80141
:103980006081C5010E94621AD8CF62817381CE0125
:103990000E94E31A882399F38C819D8197FF02C0CE
:1039A000888199812091F2013091F3014E895F89DC
:1039B000241B350B2817390710F782E0DF91CF91D0
:1039C0001F910F91FF90EF90DF90CF90BF90AF903D
:1039D0009F9008956F2DC6010E94621AD0CF91105A
:1039E00003C0882309F4ACCFF8016081C5010E94AF
:1039F0004B1AE3CF84E690E00C94CC26CF93DF9370
:103A0000EC0141E070E060E08BED93E00E94DA2A87
:103A100079836883DF91CF9108954AE050E0BC013B
:103A20008BED93E00E943E2A0E94FA1C60E28BED2F
:103A300093E00E945B290C94FA1C4AE050E0BC0120
:103A40008BED93E00E94232A0E94FA1C60E28BED2A
:103A500093E00E945B290C94FA1C9F92AF92BF9254
:103A6000CF92DF92EF92FF920F931F93CF93DF934A
:103A70005C017B018B01D0E0C0E0F80191908F01E7
:103A80006501CC0EDD1EC6010E94E432981621F0BD
:103A9000692DC6010E94EC322196CA30D10569F722
:103AA000C701DF91CF911F910F91FF90EF90DF90B1
:103AB000CF90BF90AF909F900895EF92FF920F9399
:103AC0001F93CF93DF938C016AE070E08AEF92E05E
:103AD0000E94430EEC01F801918380838C017C01EC
:103AE000FAE0EF0EF11C0E151F0500F5C8010E944B
:103AF000E4328F3F19F40F5F1F4FF5CF04E111E05F
:103B0000C451D140CE01800F911F0E94E432F801D0
:103B100081938F01F1E00E311F07A1F780E0DF9163
:103B2000CF911F910F91FF90EF90089564E171E0A4
:103B3000CE010E942D1DF2CF6FE775E08BED93E073
:103B40000E9437290E94FA1C8BED93E00E946229A3
:103B50000E94FA1C80E00895EF92FF920F931F934A
:103B6000CF93DF9300D0CDB7DEB77C018B018BE024
:103B700093E00E941F13882391F16FE675E08BEDAF
:103B800093E00E9466290E94FA1C6AE575E08BEDBD
:103B900093E00E9466290E94FA1C6FE375E08BEDAA
:103BA00093E00E9466290E94FA1C68E275E08BEDA2
:103BB00093E00E9466290E94FA1C66E175E08BED95
:103BC00093E00E9466290E94FA1C62E075E08BED8A
:103BD00093E00E9466290E94FA1C80E04FC04FE6E5
:103BE00055E0B8018BE093E00E948C1381114FC027
:103BF0004AE555E0B8018BE093E00E948C138111F7
:103C000048C04FE355E0B8018BE093E00E948C136D
:103C1000811141C048E255E0B8018BE093E00E9479
:103C20008C1381113AC046E155E0B8018BE093E076
:103C30000E948C13811133C042E055E0B8018BE043
:103C400093E00E948C1315E0882339F28BE093E017
:103C50000E9499138823E1F1133091F110F511308E
:103C600051F18091180190911901123009F1809160
:103C70001401909115010E940D1D81E00F900F908D
:103C8000DF91CF911F910F91FF90EF90089510E079
:103C9000DDCF11E0DBCF12E0D9CF13E0D7CF14E0B6
:103CA000D5CF143091F080911D01153001F790E0CF
:103CB0000E941D1DE2CF8091160190911701DBCF6C
:103CC00080911A0190911B01D6CF80911C01EFCFFA
:103CD000133009F43FC0B0F4113031F1123079F1F2
:103CE000CE0101960E94FE1C89819A819093150154
:103CF0008093140164E171E0F701808191810E9459
:103D00002D1DBBCF143089F1153051F741E070E023
:103D100060E08BED93E00E94DA2A81E0611101C03E
:103D200080E080931D01E6CFCE0101960E94FE1C2B
:103D300089819A819093170180931601DBCFCE0180
:103D400001960E94FE1C89819A81909319018093AB
:103D50001801D0CFCE0101960E94FE1C89819A8164
:103D600090931B0180931A01C5CF41E070E060E0A1
:103D70008BED93E00E94DA2A81E0611101C080E0BE
:103D800080931C01B7CF6DE875E08BED93E00E9446
:103D9000372984E690E00E94CC268BED93E00E94C8
:103DA000622984E690E00E94CC2680E00895FC0120
:103DB000872F90E0982F8827680F792F711D613128
:103DC00080EC7807E0F0623188EC780750F46151BC
:103DD000704C66A717A611AA80EE870F80AB81E012
:103DE0000895633180ED780750F46251784C66A7EE
:103DF00017A68AE2870F80AB84E481ABF0CF80E026
:103E000008958F929F92AF92BF92CF92DF92EF92DE
:103E1000FF920F931F93CF93DF9300D000D0CDB7C5
:103E2000DEB78C01F62E2FE2261708F469C0E62FC4
:103E3000F0E0EE0FFF1FED5BFB4FD080E1808FEFD6
:103E4000D8120FC0E8120DC0AF2DB0E0A950BE4F80
:103E5000E0910201F09103016F2D8C910995D82E0C
:103E6000E92E6D2D7E2DC8010E94D71EB82E81111E
:103E700035C0EF2DF0E0E950FE4F8080C12CAA2420
:103E8000AA94912CF8018281C81608F042C0F4E08F
:103E9000CF9EC0011124F80160817181680F791FE4
:103EA000AA8244E050E0CE0101960E94A3328981AB
:103EB0009A813B812C81F9122AC0482F082E000CD0
:103EC000550B4815590511F08F3F09F5F801D6A695
:103ED000E7A6C90190AB21ABBB24B3948B2D0F9007
:103EE0000F900F900F90DF91CF911F910F91FF9046
:103EF000EF90DF90CF90BF90AF909F908F900895FC
:103F00001092A3041092A404E3EAF4E096CFC394C1
:103F1000B9CFD6A6E7A68FEF80AB81ABDFCFCF932B
:103F2000DF93FC01EB019A01261B370BA4E6B0E0FE
:103F30000E94893226A130E050E040E00E946132C8
:103F40008091F2019091F301BC016C1B7D0B81E02B
:103F50006217730708F080E0DF91CF910895292F51
:103F6000207C29F4805E883058F481E00CC09434C1
:103F700039F496ED980F81E09A3228F080E00895A8
:103F800081E09634D9F70895CF93DF93EC018881CF
:103F9000681780F5882371F181508883E62FF0E05F
:103FA000DF011196AC0FBD1FEE0FFF1F7196EC0FD6
:103FB000FD1F962F981780F411962C9111972D9331
:103FC00018962C91189717962C9317972281338166
:103FD000219331939F5FEECF2FEF30E001C0220F8E
:103FE0006A95EAF789A1922F909598238695822366
:103FF000892B89A3DF91CF910895CF93DF9300D0D0
:1040000000D01F92CDB7DEB7FC01348584A1982F74
:10401000917080FD28C082E0248139838A836B837C
:104020007C832D8391110AC0872F90E0982F8827D9
:10403000680F792F711D64307105F0F460E0CF01D5
:1040400003960E94C41F29813A814B815C816D8156
:1040500081EF91E00F900F900F900F900F90DF91F4
:10406000CF910C94AA0A81E0D7CF6D32710530F35D
:104070006933710518F703C068327105B0F7848998
:10408000958994A783A7DACFCF93DF93FC0173813F
:10409000DC011D9681E090E060E08717F0F452A902
:1040A0004D9124A130E0082E02C0359527950A9441
:1040B000E2F720FD0DC0541721F080E0DF91CF9191
:1040C00008952489358934AB23AB682F0196E5CF59
:1040D0005413FCCF8FEF82ABF0CF8091F20190911F
:1040E000F30123A934A9821B930B25A928171906CC
:1040F00009F068F48FEF82AB6623F9F2EF012396A3
:10410000CE010E94C41F60E0CE010E94C41F81E066
:10411000D5CF7F928F929F92AF92BF92CF92DF9234
:10412000EF92FF920F931F93CF93DF93EC019B814C
:10413000911110C0F12C8F2DDF91CF911F910F9114
:10414000FF90EF90DF90CF90BF90AF909F908F90B7
:104150007F9008959C848CA180FF13C0983041F417
:1041600060E070E0CE010E94FD1FFF24F394E3CFD6
:104170008AA99812F5CFCE010E9444208111DACF8E
:10418000EFCF692DCE010E94011F882309F470C072
:10419000FDA0FF2009F46CC00EA51FA5C8010E9458
:1041A000AF1F882E8091F2019091F3012BA53CA5C1
:1041B000821B930B2AA52817190609F010F57B809E
:1041C000A090F201B090F3016E0101E010E0E12C4B
:1041D000202F071508F065C08CA190E0002E02C0CA
:1041E000959587950A94E2F780FD12C0811040C032
:1041F000EE2009F454C07FEFC71AD70A0F5F1F4F94
:10420000E7CF8110DCCFB801CE010E94FD1FD7CFD0
:10421000F6019585FE013D9681E099122DC0EE20B4
:1042200019F08EA1811110C0882059F068A979A9D0
:104230009AAA8C899D899CAB8BABCE010E94FD1FF5
:104240007ACF6EA57FA5F4CFF801EE0FFF1FEC0F1C
:10425000FD1F44895589EE2DF0E0EE0FFF1FEC0F96
:10426000FD1F64897589CE010E948F1F8111C3CF04
:104270006EA57FA577CF8F5F821708F0BCCF3191F5
:104280003913F9CF4C895D89B501641B750B39A5CC
:104290003617170609F078F768A979A9CECFE02E6E
:1042A000AACF88E0781246CFE3CF0F931F93CF9326
:1042B000DF93EC01FB0184819DA5282F291B121699
:1042C0002CF09B8191111CC080E01FC08DA78081C4
:1042D0008033D0F7818187FDF7CF8B018DA18111CC
:1042E00019C062817381CE010E94D71E882361F3B9
:1042F0008EA59FA5D80113969C938E931297E4CF19
:104300009C81891B87FDE0CF82E0DF91CF911F91D7
:104310000F9108952B81822F90E03481FE01E80FE8
:10432000F91F3483DB013C913487880F991FFE010C
:10433000E80FF91F8091F2019091F301958B848B26
:1043400011964C913CA181E090E0A0E0B0E0022EFB
:1043500004C0880F991FAA1FBB1F0A94D2F740FF01
:104360000CC041FD0AC0832B8CA32F5F2B83CE0191
:104370000E9489208111FBCFC7CF80958323F4CF82
:104380000F931F93CF93DF93EC012091F2013091B3
:10439000F3018AA590E04BA55CA5B901641B750BE0
:1043A0006817790738F0A90141505109481B590B8A
:1043B0005CA74BA78B818823D9F08C899D89281B0A
:1043C000390B8FA198A52817390768F00EA51FA5EE
:1043D000C8010E94AF1FB801811102C068A979A964
:1043E000CE010E94FD1FCE010E9489208111FBCFCA
:1043F00080E0DF91CF911F910F910895CF93DF93CC
:10440000CBE4D3E0198218821A821B8288E0E0E4B0
:10441000F1E0A7E5B3E001900D928A95E1F781E024
:104420008DA380E58EA38AEF90E098A78FA382E307
:1044300089A78BE48AA780E091E09CA78BA78FEFE8
:104440008DA78EA78FA788AB89AB8AAB88EC8DAB85
:10445000DF91CF91089584E690E00C94CC260C94E3
:10446000E4328F929F92AF92BF92CF92DF92EF92FF
:10447000FF920F931F93CF93DF937C01FC01C080C9
:10448000D18015821482028113810C0D1D1D4601FD
:10449000B12C8016910608F054C0FFE1FB1508F41A
:1044A00050C0E4012196C4010E942F228E3008F0F2
:1044B00048C0E82FF0E0E15AFD4D0C94833293227E
:1044C0006D226D227122712271226D226D226D2268
:1044D0006F226F226F2274228722E40122964E01FE
:1044E000D8CFE4012396FBCF4E01CE010E942F22AC
:1044F000A82E2296C40101960E942F22A11002C06C
:10450000882369F34E01C017D10778F3E8CFCE01B5
:1045100021960E942F22282FC017D10700F7CE0125
:104520002111F6CFDCCFB394EB2DF0E03296EE0FF5
:10453000FF1FEE0DFF1DCE018C199D099183808315
:10454000CECF8B2DDF91CF911F910F91FF90EF90E8
:10455000DF90CF90BF90AF909F908F9008954F9233
:104560005F926F927F92BF92CF92DF92EF92FF9213
:104570000F931F93CF93DF93FC01EC5BFF4F2081E0
:10458000621708F0B6C07C01E62FF0E03296EE0F1D
:10459000FF1FEE0DFF1DD701CD91DC918081918130
:1045A000C80FD91FB12CF7018081918122813381FD
:1045B000820F931FC817D90708F09BC08E010F5FA9
:1045C0001F4FCE010E942F22D82EEFEFE80FED30C3
:1045D00008F08FC0F0E0E151FD4D0C9483322B23A5
:1045E0003723422342234223422342234223772379
:1045F00077237723FC22FC224B2C512C712C612C2D
:10460000C8010E942F22C82EEDE0DE1609F46DC00D
:104610000F5F1F4FE8012196C8010E942F228111D0
:1046200002C0CC20E9F0D7012D913C911197129650
:104630004D915C91240F351FC217D30788F4682F62
:104640007C2D8DE293E00E941B16C301B2010E94F3
:1046500093268E01D5CF2296C8010E942F22B82E14
:104660006B2D70E090E080E00E9493269CCF229614
:10467000C8010E942F22682F70E090E080E00E9425
:104680009326EECFC8010E942F22C82E8AEF8D0DEF
:104690008330B8F08E010E5F1F4FE8012196C801EC
:1046A0000E942F22682FF5E0DF1699F0FD1558F0D3
:1046B00084E0D816A1F07C2D8DE293E00E9477155E
:1046C000CFCFC12CEACFA7E0DA1649F0B8E0DB1271
:1046D000F2CF7C2D8DE293E00E941B16C1CF7C2D82
:1046E0008DE293E00E94B215BBCFC12C93CFE801BD
:1046F000B7CFDF91CF911F910F91FF90EF90DF9097
:10470000CF90BF907F906F905F904F900895292F2A
:1047100030E0322F222790E08C55914D280F391F21
:1047200081E02032310508F080E008950F931F9357
:10473000CF93DF938C01EB018A819B810E948723B9
:104740008823A9F0898181FF0DC080FD0BC06A819B
:104750006C55C8010E94AF2281E0DF91CF911F917B
:104760000F9108958DE293E00E94DA15F5CF80E075
:10477000F4CF6EEA75E08BED93E00E9437290E943A
:104780002B228BED93E00E9462290E942B2280E075
:104790000895CF92DF92FF920F931F93CF93DF93F1
:1047A000EC018B018BE093E00E941F13882391F0B2
:1047B00063EA75E08BED93E00E9466290E942B224C
:1047C00064E975E08BED93E00E9466290E942B223C
:1047D00080E05EC043EA55E0B8018BE093E00E94C0
:1047E0008C13882309F45CC08BE093E00E9499133A
:1047F00010E000E08823F9F08A819B8108171907EF
:1048000008F045C088819981800F911F0E942F2256
:104810004AE050E0682F8BED93E00E94372A0E9417
:104820002B2260E28BED93E00E945B290E942B22F9
:104830000F5F1F4FE1CF8BE093E00E94991381112E
:1048400020C08A819B8108171907D8F441E070E0E5
:1048500060E08BED93E00E94DA2AF62E68018FEF7C
:10486000C81AD80A88819981080F191FC8010E94A7
:10487000E432F81621F06F2DC8010E94EC32860157
:10488000DACFCE010E943122CC5BDF4F888381E0FA
:10489000DF91CF911F910F91FF90DF90CF900895FE
:1048A00044E955E0B8018BE093E00E948C13882323
:1048B00009F48ECF41E070E060E08BED93E00E9460
:1048C000DA2ACE010E94AF22E2CF0F931F93CF933B
:1048D000DF93EC018B018AEF92E00E94430E9983F3
:1048E00088831B830A83CE010E943122CC5BDF4F79
:1048F0008883DF91CF911F910F91089584E690E016
:104900000C94CC2664ED75E08BED93E00E94372982
:104910000E947E248BED93E00E9462290E947E24F7
:1049200080E008957F928F929F92AF92BF92CF9234
:10493000DF92EF92FF920F931F93CF93DF9300D0FC
:1049400000D0CDB7DEB77C018B018BE093E00E94F5
:104950001F13882351F062EC75E08BED93E00E9409
:1049600066290E947E2480E082C042EC55E0B801B6
:104970008BE093E00E948C138823A9F38BE093E0F3
:104980000E94991310E000E0882309F482C0F70127
:10499000828093800815190508F046C05801FFEF82
:1049A000AF1ABF0AF70180819181800F911F0E9489
:1049B000E432C82E8FEF8C0D8E3FB0F54AE050E008
:1049C0006C2D8BED93E00E94372A0E947E2460E2DA
:1049D0008BED93E00E945B290E947E24D12C45013F
:1049E000FFEF8F1A9F0AF701808191818A0D9B1D2D
:1049F0000E94E432682F8BED93E00E945B290E94B5
:104A00007E2481E08D0D54018C110CC00E5F1F4F70
:104A10000D0D111D6AE08BED93E00E945B290E9451
:104A20007E24B5CFD82EDBCF4AE050E070E060E0C6
:104A30008BED93E00E94232A0E947E2460E28BED9E
:104A400093E00E945B290E947E246CEB75E08BED65
:104A500093E00E9437290E947E244AE050E0B4018E
:104A60008BED93E00E943E2A0E947E2481E00F900D
:104A70000F900F900F90DF91CF911F910F91FF90AA
:104A8000EF90DF90CF90BF90AF909F908F907F90EE
:104A90000895F701828193810817190738F78BE091
:104AA00093E00E9499138111E1CF41E070E060E052
:104AB0008BED93E00E94DA2AD62E41E050E0BE0151
:104AC0006C5F7F4F8BED93E00E943B2B5801FFEF13
:104AD000AF1ABF0AF70180819181800F911F9A83DD
:104AE00089836D2DCE0101960E94DC0D77247A9486
:104AF0007D0CFDEFF71508F4B9CFC12C41E050E073
:104B0000BE016D5F7F4F8BED93E00E943B2B6B816D
:104B100045018FEF881A980AF70180819181A80ECC
:104B2000B91EBA82A982CE0101960E94DC0DC394FF
:104B30005401CD1418F30E5F1F4F070D111DA9CF9F
:104B40000F931F93CF93DF93EC018B018AEF92E0D9
:104B50000E94430E998388831B830A83DF91CF9140
:104B60001F910F9108956FED75E08BED93E00E941A
:104B7000372984E690E00E94CC268BED93E00E94DA
:104B8000622984E690E00E94CC2680E00895FB0133
:104B90002381822F90E0982F88272281280F392F98
:104BA000311DC9018D52914D8A9708F03FC0818116
:104BB0009091D10381FF1FC080FD1DC083ED820F46
:104BC0009F5F9093D10367E00E944132E82FF0E0AD
:104BD000E553FC4F26E030E0291B310981E090E0ED
:104BE000AC0102C0440F551F2A95E2F78081842B47
:104BF000808381E008958FEF890F8093D103811125
:104C0000F8CF8091CB0380688093CB0346E050E0DF
:104C10006BEC73E08BED93E00E947927EBECF3E013
:104C200086E0DF011D928A95E9F7E3CF80E00895E1
:104C30001F920F920FB60F9211242F933F938F93D1
:104C40009F93AF93BF938091D3039091D403A0918E
:104C5000D503B091D6033091D20323E0230F2D3733
:104C600058F50196A11DB11D2093D2038093D30363
:104C70009093D403A093D503B093D6038091D70328
:104C80009091D803A091D903B091DA030196A11DA8
:104C9000B11D8093D7039093D803A093D903B09309
:104CA000DA03BF91AF919F918F913F912F910F9018
:104CB0000FBE0F901F90189526E8230F0296A11D96
:104CC000B11DD2CF2FB7F8946091D3037091D40364
:104CD0008091D5039091D6032FBF08953FB7F894E4
:104CE0008091D7039091D803A091D903B091DA03B2
:104CF00026B5A89B05C02F3F19F00196A11DB11D37
:104D00003FBFBA2FA92F982F8827BC01CD01620F72
:104D1000711D811D911D42E0660F771F881F991F2D
:104D20004A95D1F708958F929F92AF92BF92CF92FA
:104D3000DF92EF92FF926B017C010E946E264B0185
:104D40005C01C114D104E104F104E9F00E94403295
:104D50000E946E26681979098A099B09683E73408A
:104D60008105910570F321E0C21AD108E108F1082C
:104D700088EE880E83E0981EA11CB11CC114D104DA
:104D8000E104F10429F7FF90EF90DF90CF90BF90FE
:104D9000AF909F908F9008958230910538F0880FE2
:104DA000991F880F991F05970197F1F70895789437
:104DB00084B5826084BD84B5816084BD85B5826020
:104DC00085BD85B5816085BDEEE6F0E080818160BE
:104DD0008083E1E8F0E010828081826080838081BE
:104DE00081608083E0E8F0E0808181608083E1E998
:104DF000F0E0808182608083808181608083E0E94F
:104E0000F0E0808181608083E1ECF0E0808184606B
:104E10008083808182608083808181608083E3ECF5
:104E2000F0E0808181608083E0ECF0E0808182604E
:104E30008083E2ECF0E0808181608083EAE7F0E04B
:104E400080818460808380818260808380818160B2
:104E500080838081806880830895CF93DF931F9241
:104E6000CDB7DEB76983DC01ED91FC910280F3815F
:104E7000E02D41E050E0BE016F5F7F4F09950F903C
:104E8000DF91CF910895CF93DF93EC018C859D85C1
:104E900097FF05C082E00E946C2C9D878C878C85D3
:104EA0009D85DF91CF91089583E00E94832C90E04F
:104EB000089583E00C94152FFC018485958597FD5A
:104EC00006C082E00E94062C90E00196089582E0E0
:104ED0000E94062C90E00895FC018485958597FD3D
:104EE00005C02FEF3FEF35872487089582E00C94AB
:104EF0006C2CCF93DF93EC0180913801882331F043
:104F000083E00E949D2C1816190634F081E090E091
:104F10009B838A8380E090E0DF91CF910895EEEF4C
:104F2000FFE72591349181E02B3F3C4D09F080E073
:104F30000895FC0190819E5F908342E450E068EE0A
:104F400075E080E80C944E2DFC0181819081913AAE
:104F500061F4813209F083C047E050E061E371E021
:104F600080E00E944E2D81E00895913209F077C0D3
:104F7000833269F482819381B0E0A0E080932D01B7
:104F800090932E01A0932F01B0933001ECCF80328B
:104F900039F467E070E081E391E00E94742DE3CF83
:104FA000823209F78281809338010E948F27E0E0E6
:104FB000F8E0882311F0EEEFFAE080913101909152
:104FC0003201A0913301B0913401803B9440A1059E
:104FD000B105D9F48091380180FD17C0EE3F8AE019
:104FE000F80771F587E797E79183808380916000E8
:104FF00080932B0488E19BE00FB6F894A8958093EA
:1050000060000FBE90936000AECF808191818737A2
:10501000974709F0A8CFA895809160008861809398
:10502000600080912B0480936000EE3F8AE0F807D7
:1050300089F08091FE0A9091FF0A9183808393CF3B
:10504000808191818737980769F29093FF0A809356
:10505000FE0AC8CF1092FF0A1092FE0A84CF80E0A9
:1050600008952FEF3FEFFC01358724870895EBED7E
:10507000F3E01382128288EE93E0A0E0B0E0848334
:105080009583A683B78381EA91E0918380838FEF34
:105090009FEF958784870895EF92FF920F931F9358
:1050A000CF93DF937B01FC01C281D38110E000E04C
:1050B000209791F0E881F9810280F381E02DB7011A
:1050C000CE01099597FD06C0080F191F0884D985E0
:1050D000C02DEECF0FEF1FEFC801DF91CF911F91D1
:1050E0000F91FF90EF9008950F931F93CF93DF934D
:1050F0008B01FC01C281D381209771F0E881F98195
:105100000480F581E02DB801CE010995009731F4B6
:105110000884D985C02DF0CF90E080E0DF91CF9159
:105120001F910F9108950F931F93CF93DF938B01DE
:10513000FC01C281D381209771F0E881F98106805A
:10514000F781E02DB801CE010995080F111D0884E3
:10515000D985C02DF0CFF8011082DF91CF911F913A
:105160000F9108950F931F93CF93DF938B01FC0151
:10517000C281D381209771F0E881F9810190F0819B
:10518000E02DB801CE010995811105C00884D985AB
:10519000C02DF0CF80E0DF91CF911F910F91089546
:1051A000CF93DF93FC01DB01218114968C9114973E
:1051B000820F9927991F08978CF5C281D381209778
:1051C00031F573836283908112969C9312971396A4
:1051D0002C93139715968C911597890F808380E0F7
:1051E00014969C9114978917E8F41696CD91DC914A
:1051F0001797C80FD11D9881C181D0E0C75CDE4FE1
:10520000988391819F5F91838F5FEACFEC018885BE
:1052100099850097D9F7B987A887D5CF80E0DF9126
:10522000CF91089581E0FBCF80912C0481110DC0B6
:1052300082E08093340484E0809335041092370434
:105240001092360481E080932C0484E394E0089566
:10525000FB0101900020E9F73197AF01461B570B86
:10526000DC01ED91FC910280F381E02D0994EF9235
:10527000FF920F931F93CF93DF938C017B01D0E0BC
:10528000C0E0F701EC0FFD1F6491662361F0D801C7
:10529000ED91FC910190F081E02DC8010995892BD9
:1052A00011F02196EECFCE01DF91CF911F910F919A
:1052B000FF90EF900895DC01ED91FC910190F08159
:1052C000E02D09946FEA71E00C9428290F931F9345
:1052D000CF93DF93EC010E9437298C01CE010E940D
:1052E0006229800F911FDF91CF911F910F91089537
:1052F0000F931F93CF93DF938C01D0E0C0E0611533
:10530000710519F00E942829EC01C8010E94622948
:105310008C0F9D1FDF91CF911F910F9108958F9258
:105320009F92AF92BF92EF92FF920F931F93CF93F2
:10533000DF93CDB7DEB7A1970FB6F894DEBF0FBEEF
:10534000CDBF7C01FA01CB0119A2223008F42AE07A
:105350008E010F5D1F4F822E912CB12CA12CBF010D
:10536000A50194010E946132F901CA016A300CF56D
:10537000605DD8016E938D01232B242B252B79F7AB
:1053800090E080E0109721F0BD01C7010E9428291C
:10539000A1960FB6F894DEBF0FBECDBFDF91CF91BF
:1053A0001F910F91FF90EF90BF90AF909F908F90C3
:1053B0000895695CDECFCF92DF92EF92FF920F9358
:1053C0001F93CF93DF932115310581F4DC01ED911B
:1053D000FC910190F081E02D642FDF91CF911F911E
:1053E0000F91FF90EF90DF90CF9009942A30310514
:1053F00001F52AE077FF1DC06A017B01EC016DE237
:105400000E945B298C0144275527BA014C195D097C
:105410006E097F092AE0CE010E948F29800F911F1B
:10542000DF91CF911F910F91FF90EF90DF90CF9080
:105430000895DF91CF911F910F91FF90EF90DF9032
:10544000CF900C948F299A01AB01770F660B770BE5
:105450000C94DB292115310541F4DC01ED91FC911F
:105460000190F081E02D642F09940C948F299A010A
:10547000462F50E070E060E00C942A2A9A01AB01BC
:1054800070E060E00C942A2A0F931F93CF93DF9370
:10549000EC010E946226688779878A879B87E8816A
:1054A000F9810284F385E02DCE01099597FF15C09F
:1054B0000E946226088519852A853B85601B710B31
:1054C000820B930B0C811D812E813F816017710728
:1054D0008207930720F38FEF9FEFDF91CF911F910A
:1054E0000F9108950F931F93CF93DF93EC010E94C8
:1054F0006226688779878A879B87E881F981048497
:10550000F585E02DCE01099597FF15C00E94622612
:10551000088519852A853B85601B710B820B930BCF
:105520000C811D812E813F816017710782079307CF
:1055300020F38FEF9FEFDF91CF911F910F9108958F
:10554000FF920F931F93CF93DF93EC018B01F42E07
:10555000CE010E94722A97FD1DC08D329105D1F0B7
:105560009C01205331092A303105A0F0FF2019F0A9
:105570008E32910579F00130110551F0023011059C
:1055800089F48D30910571F05CF40997029750F021
:105590008FEF9FEFDF91CF911F910F91FF900895B3
:1055A0008097B1F7E881F9810284F385E02DCE017F
:1055B0000995CECFBF92CF92DF92EF92FF920F93D9
:1055C0001F93CF93DF938C01C42F40E00E94A02A49
:1055D000FC01C12CD12C760197FD3EC0B12C0C2EC4
:1055E000000CDD0BCE17DF07D9F0ED32F10509F421
:1055F0003FC0CF01C0970A9798F4AAE0B0E0A70196
:1056000096010E9498326F01FF0FEE08FF08C60E48
:10561000D71EE81EF91E80E3C81AD108E108F10878
:10562000D801ED91FC910284F385E02DC801099524
:10563000C8010E94722AFC01C0970A9798F2CE17FF
:10564000DF0781F2BB2041F0F094E094D094C09445
:10565000C11CD11CE11CF11CC701B601DF91CF9127
:105660001F910F91FF90EF90DF90CF90BF90089522
:10567000BB24B394D5CFAF92BF92CF92DF92EF927B
:10568000FF920F931F93CF93DF935C017B018B01FC
:10569000040F151FEB016E01CE18DF08C017D107EC
:1056A00039F0C5010E94442A97FD02C08993F3CFC7
:1056B000C601DF91CF911F910F91FF90EF90DF9086
:1056C000CF90BF90AF9008958091D7008160809374
:1056D000D70080EA8093D80089B5806189BD89B5FB
:1056E000826089BD09B400FEFDCF61E070E080E01A
:1056F00090E00E9493268091D8008F7C80618093F7
:10570000D8008091E000807F8093E0000895CF93DF
:10571000DF931F92CDB7DEB71982CE0101960E94AA
:1057200099270E941429BE016F5F7F4F0E944C2869
:1057300089810F90DF91CF91089540913B04509162
:105740003C042091390430913A0442175307B4F4D1
:105750009091E8009570E1F39091E80092FD19C0F6
:105760008093F10080913B0490913C0401968F73EB
:105770009927892B19F48EEF8093E80080913B04E0
:1057800090913C04019690933C0480933B0481E00B
:10579000089580E00895EF92FF920F931F93CF93A7
:1057A000DF93F82E192FE62E042F81E0860F880F45
:1057B0000E949D2B83E00E949D2BCF2DD12FEC0EBC
:1057C000FD2EF11CCE15DF05B9F007FF13C0FE0159
:1057D00084910E949D2B182F80E00E949D2B812395
:1057E00021968111EFCFDF91CF911F910F91FF9003
:1057F000EF9008958881EDCF81E0F5CF2FB7FC01C0
:105800002083F89467706093E9000895CF93DF9345
:105810001F92CDB7DEB7682FCE0101960E94FE2BF6
:105820008091F200811107C09091E80092FF03C0BF
:105830009BE69093E80099819FBF0F90DF91CF91F5
:105840000895EF92FF920F931F93CF93DF931F92D0
:10585000CDB7DEB790913F049923D9F157FD39C0F8
:105860008A017B01682FCE0101960E94FE2B809158
:10587000F20081110BC09091E800892F847092FF93
:1058800005C08BE68093E8008091F20090E0081755
:1058900019070CF4C801282FF70144E6215030F015
:1058A000409340043091F1003193F8CF009739F0E4
:1058B0002091F200211103C02BE62093E8002981FA
:1058C0002FBF0F90DF91CF911F910F91FF90EF901D
:1058D00008958FEF9FEFF5CFCF93DF931F92CDB752
:1058E000DEB741E050E0BE016F5F7F4F0E94212C88
:1058F000019731F4898190E00F90DF91CF91089565
:105900008FEF9FEFF9CFCF93DF931F92CDB7DEB725
:10591000682FCE0101960E94FE2B9091E800892FFE
:10592000807295FF04C09091F20080E4891B9981F8
:105930009FBF0F90DF91CF9108955F926F927F92FA
:105940008F929F92AF92BF92CF92DF92EF92FF928F
:105950000F931F93CF93DF931F92CDB7DEB7982E8F
:105960006B01B42E052F80913F04811113C08FEF7E
:105970009FEF0F90DF91CF911F910F91FF90EF90CC
:10598000DF90CF90BF90AF909F908F907F906F905F
:105990005F90089580913D0480FF05C08091E000F4
:1059A00082608093E000EB2CF02EA12C8AEF882EF1
:1059B000892D8072682E892D8074582E9AE3792E55
:1059C000E114F10419F4AA2009F457C0892D0E94AA
:1059D000832C182F81110AC08A94882041F261E03B
:1059E00070E080E090E00E949326EACF8E151F04BD
:1059F00011F00CF01E2D692DCE0101960E94FE2B98
:105A00008091E80085FD03C089818FBFD9CF812FA8
:105A100090E0E81AF90A662029F01150A0F01092DF
:105A2000F100FBCFF60197FC0AC0115050F0219114
:105A30002093F100FACF24912093F1003196115078
:105A4000D0F7C80ED91EAA2021F07092E800A12C30
:105A5000DBCF8091E80085FD08C07092E800AA24A1
:105A6000A394E114F10481F2F2CFE114F10461F6A0
:105A7000552051F27092E800C7CF84E6809341042C
:105A80008B2D902F76CF1092E90010923C0410924B
:105A90003B0490933A04809339040895DF92EF9287
:105AA000FF920F931F93CF93DF93D82E8A01EB01C0
:105AB0007B01E40EF51ECE15DF0559F0D7FE12C0AE
:105AC000FE0184910E949D2B21968111F4CF0FEF4E
:105AD0001FEFC801DF91CF911F910F91FF90EF90C1
