:020000040000FA
:100000000C9491020C94B9020C94B9020C94B902AC
:100010000C94B9020C94B9020C94B9020C94B90274
:100020000C94B9020C94B9020C94D8260C9458255F
:100030000C94B9020C94B9020C94B9020C94B90254
:100040000C94B9020C94B9020C94B9020C94B90244
:100050000C94630C0C94B9020C94B9020C94CF026A
:100060000C94B9020C94B9020C94B9020C94B90224
:100070000C94B9020C94B9020C94B9020C94B90214
:100080000C94B9020C94B9020C94B9020C94B90204
:100090000C94B9020C94B9020C94B9020C94B902F4
:1000A0000C94B9020C94B9020C94B9026C6F6361A0
:1000B0006C6C79206275696C74206F6E204E6F765F
:1000C00020203320323032352061742032313A30F2
:1000D000383A3335004B6579626F617264696F201D
:1000E000417472657573202D204B616C6569646F76
:1000F00073636F7065200014001A00090013000A72
:1001000000000000000D000F0018001C0033000468
:10011000001500160017000700000000000B00117A
:100120000008000C0012001D001B0006001900054D
:1001300000350031000E001000360037003800296D
:10014000002B00E300E1002A00E000E2002C002B7D
:10015000442D00340028000244E100520021081E12
:10016000080000000023082400250026002A00269D
:1001700008500051004F00270800000000380021FF
:10018000002200230025082F00300020082F08300F
:1001900008380824082D001E001F0020002E08FF2C
:1001A000FFFFFFFFFFFFFF4C00FFFFFFFFFFFFFF11
:1001B000FF370027002E0049004A0052004D004B37
:1001C0000000000000E94840004100420043004CAC
:1001D00000500051004F004E0000000000EA483D72
:1001E000003E003F0044000000000000000000004E
:1001F000000000000000003A003B003C00450054B5
:1002000044FFFFFFFFFFFFFFFFFFFFFFFFFFFF00B8
:100210000046004700CD48434F4C454D414B0076CA
:10022000657273696F6E0005010906A10105081961
:100230000129081500250175019508910205071986
:10024000E029E78102750895078101750195048110
:1002500001190429DD95DA810295028101C00501A9
:100260000906A1019508750105081901290815005D
:1002700025019102050719E029E78102950175081A
:100280008101950626DD00190029DD8100C0050CDD
:100290000901A1018504150026FF0319002AFF03A7
:1002A000950475108100C005010980A1018505151F
:1002B0000026FF00190029FF950175088100C0651F
:1002C0006570726F6D2E6572617365006565707221
:1002D0006F6D2E6672656500656570726F6D2E6359
:1002E0006F6E74656E7473002F0073657474696E3D
:1002F00067732E6372630073657474696E67732E1F
:1003000076657273696F6E0073657474696E677376
:100310002E76616C69643F0073657474696E6773EF
:100320002E64656661756C744C61796572006B65ED
:10033000796D61702E6F6E6C79437573746F6D009B
:100340006B65796D61702E64656661756C74006BA8
:1003500065796D61702E637573746F6D00454550DE
:10036000524F4D4B65796D61700068656C70006629
:10037000616C7365007472756500706C7567696E89
:1003800073006C65642E6D6F6465730064657669D7
:1003900063652E72657365740068656C70000D0A84
:1003A0002E004D6163726F73001E0834082008210F
:1003B000082208240834002608270825082E0836B5
:1003C000002D003700380027003308330036082E90
:1003D00000370838081F082F003100300023082D8F
:1003E0000835002F083108300835084F6E6553680E
:1003F0006F74006F6E6573686F742E6175746F5FD4
:100400006C6179657273006F6E6573686F742E61CD
:1004100075746F5F6D6F6473006F6E6573686F7472
:100420002E737469636B61626C655F6B65797300D1
:100430006F6E6573686F742E646F75626C655F7440
:1004400061705F74696D656F7574006F6E65736858
:100450006F742E686F6C645F74696D656F7574007E
:100460006F6E6573686F742E74696D656F75740057
:100470004F6E6553686F74436F6E666967005175A0
:100480006B6579730073697A653D006B65796D61A1
:10049000702E6C617965724E616D6573004C617987
:1004A00065724E616D657300080B00020202000068
:1004B00009040000010202000005240010010524C7
:1004C0000101010424020605240600010705810339
:1004D00010004009040100020A00000007050202A2
:1004E0004000000705830240000012010002EF02F5
:1004F0000140091203230001010203014B657962E7
:100500006F617264696F00417472657573000403F2
:100510000904100C800EC60E4A117B13571DC31F11
:10052000872711241FBECFEFDAE0DEBFCDBF11E079
:10053000A0E0B1E0E2EAF1E502C005900D92AA3E2A
:10054000B107D9F724E0AAEEB1E001C01D92A43CA6
:10055000B207E1F712E0C1E9D2E004C02197FE0141
:100560000E945828C938D107C9F70E94BC020C94D0
:10057000CF280C94000008950E948E030E94BB02B5
:1005800086E394E00E9450270E94BC04C0E0D0E0C3
:100590000E94CD042097E1F30E940000F9CF1F9242
:1005A0000F920FB60F9211242F933F938F939F9327
:1005B000AF93BF938091EB019091EC01A091ED017D
:1005C000B091EE013091EA0123E0230F2D3758F569
:1005D0000196A11DB11D2093EA018093EB01909338
:1005E000EC01A093ED01B093EE018091EF019091A9
:1005F000F001A091F101B091F2010196A11DB11D90
:100600008093EF019093F001A093F101B093F20178
:10061000BF91AF919F918F913F912F910F900FBEFE
:100620000F901F90189526E8230F0296A11DB11D6B
:10063000D2CF2FB7F8946091EB017091EC018091CB
:10064000ED019091EE012FBF08953FB7F89480918E
:10065000EF019091F001A091F101B091F20126B566
:10066000A89B05C02F3F19F00196A11DB11D3FBFEA
:10067000BA2FA92F982F8827BC01CD01620F711DB9
:10068000811D911D42E0660F771F881F991F4A95B3
:10069000D1F708958F929F92AF92BF92CF92DF923F
:1006A000EF92FF926B017C010E9425034B015C01DC
:1006B000C114D104E104F104E9F00E9486270E94EC
:1006C0002503681979098A099B09683E73408105E9
:1006D000910570F321E0C21AD108E108F10888EE13
:1006E000880E83E0981EA11CB11CC114D104E10442
:1006F000F10429F7FF90EF90DF90CF90BF90AF907B
:100700009F908F9008958230910538F0880F991F3F
:10071000880F991F05970197F1F70895789484B58C
:10072000826084BD84B5816084BD85B5826085BDED
:1007300085B5816085BDEEE6F0E0808181608083D3
:10074000E1E8F0E0108280818260808380818160B6
:100750008083E0E8F0E0808181608083E1E9F0E07F
:10076000808182608083808181608083E0E9F0E025
:10077000808181608083E1ECF0E08081846080830F
:10078000808182608083808181608083E3ECF0E0FF
:10079000808181608083E0ECF0E0808182608083F2
:1007A000E2ECF0E0808181608083EAE7F0E0808124
:1007B0008460808380818260808380818160808387
:1007C0008081806880830895089586E0E9E3F1E000
:1007D000DB0101900D928A95E1F786E0089586E6A7
:1007E00093E00E94C81185ED93E00E94881D8FE977
:1007F00093E00E941C1A85E091E00E94CC168DE9DE
:1008000093E00E94F5188CE893E00C94381580E092
:1008100008958CE593E00E94F70E86E693E00E942F
:10082000C2118DE993E00E94B61880E008958CE52E
:1008300093E00E94FC0F80E00895BC018FE993E0F3
:100840000C94AE1CCF93DF93EC01BC0185E091E0EA
:100850000E948917811107C0BE018CE893E0DF91E7
:10086000CF910C940015DF91CF91089580E0089509
:10087000CF93DF93EC01BC0186E693E00E94361231
:10088000811144C0BE018BE693E00E940F138111D9
:100890003DC0BE018BE593E00E940410811136C07B
:1008A000BE018AE593E00E94A81081112FC0BE010D
:1008B0008BE693E00E9404138823C1F06FE172E09D
:1008C00089ED93E00E941F2184E690E00E9483035B
:1008D000BE0185ED93E00E94981D811117C0BE01F5
:1008E0008DE993E0DF91CF910C9405194FE152E02F
:1008F000BE018BE693E00E947113882349F367E100
:1009000072E089ED93E00E94F020DECFDF91CF917D
:10091000089580E00895BC018DE893E00C941B16C7
:10092000BC0185E091E00E946F1780E008958BE69E
:1009300093E00E94A5138FE993E00E94191D85E0C2
:1009400091E00E94E01680E00895FB01918191FF03
:1009500010C090FD0EC0813061F465ED70E08CE850
:1009600093E00E94E1146CEA70E08CE893E00E944E
:10097000E11490E080E00895809140019091410160
:100980000E94940760E870E085ED93E00E94A61E47
:10099000809160038F770C94E80A809140019091D8
:1009A00041010C943F080E94FC0CDC01ED91FC918C
:1009B0000088F189E02D0994CF93C82F0E94FC0C88
:1009C000CE3D98F4EC2FE695E695E695E80FF92FE5
:1009D000F11DC77021E030E001C0220FCA95EAF78F
:1009E000828D822B828FCF910895C05EC830D8F758
:1009F00041E050E001C0440FCA95EAF7FC01218DA7
:100A0000242B218FF0CFCF93C82F0E94FC0CCE3D1A
:100A1000A0F4EC2FE695E695E695E80FF92FF11D89
:100A2000C77021E030E001C0220FCA95EAF7209597
:100A3000828D2823228FCF910895C05EC830D8F7C9
:100A400021E030E001C0220FCA95EAF72095FC01B1
:100A5000318D2323218FEFCF0E94FC0C49962DE18D
:100A6000DC011D922A95E9F70E94D304882339F00E
:100A7000ECE2F3E088E0DF011D928A95E9F7089542
:100A8000CF93C82F83FF03C081EE0E94DC04C0FF18
:100A900003C080EE0E94DC04C1FF03C082EE0E940E
:100AA000DC04C2FF03C086EE0E94DC04C4FF04C065
:100AB00083EECF910C94DC04CF910895CF93C82F8F
:100AC000892F0E9440058C2FCF910C94DC040C944C
:100AD000FC0CEEE6F1E050E040E070E060E0000089
:100AE0009191A92FB0E084E0B595A7958A95E1F79B
:100AF00090962C9130E09F7002C0359527959A957D
:100B0000E2F72095309521703327042E02C0220F82
:100B1000331F0A94E2F7622B732B4F5F5F4F4C3009
:100B20005105E9F6CB010895FF920F931F93CF93E0
:100B3000DF93C4EAD2E0F12C2A813B8110E000E08F
:100B400005C00F5F1F4F0C30110509F14881598115
:100B5000002E02C0569547950A94E2F74170C901EC
:100B6000002E02C0969587950A94E2F7880F82704E
:100B7000482B39F36F2D600F80E090E00E94370C16
:100B80002A813B810F5F1F4F0C301105F9F6398325
:100B900028832A968CE0F80E80E3F812CDCFDF91FF
:100BA000CF911F910F91FF900895FC019081DB017F
:100BB0008C91981305C081E0218111969C91291395
:100BC00080E008951F93CF93DF9300D000D0CDB77E
:100BD000DEB7182F803368F5E82FF0E0EE0FFF1F27
:100BE000EF5BFB4F808191819C838B838FEF8983A7
:100BF0008A83BE016F5F7F4FCE0103960E94D505A9
:100C0000882369F0A12FB0E0A650BE4FE091020109
:100C1000F0910301612F8C9109958B839C838B81CB
:100C20009C810F900F900F900F90DF91CF911F91AB
:100C300008951092A1041092A204E1EAF4E0D2CF48
:100C4000EF92FF920F931F93CF93DF93CDB7DEB751
:100C5000A4970FB6F894DEBF0FBECDBF8C01DC01A8
:100C60005F968C9189831A828CE1F801B096DE013F
:100C7000199601900D928A95E1F7FE01339686E070
:100C8000DF011D928A95E9F77E01B9E0EB0EF11CB8
:100C900090E020E0D7014D917D01442309F445C047
:100CA00030E0842F817046958823D9F1263088F171
:100CB00046E050E061E070E0CF010E94B228D80128
:100CC000ED91FC910084F185E02DC8010995882300
:100CD00031F0F80184AD44E250E0882311F048E09F
:100CE00050E0D801ED91FC910480F581E02DBE012A
:100CF0006F5F7F4FC8010995A4960FB6F894DEBFC9
:100D00000FBECDBFDF91CF911F910F91FF90EF905C
:100D10000895BF01620F711D892F830FDB018C9332
:100D20002F5F3F5F383009F0BCCF985F903E09F0ED
:100D3000B1CFC5CFCF93DF93D62FC72F862F972F55
:100D40000E943604823071F1C63419F4D770D05243
:100D5000C0E08C2F807C59F480E28D0F883008F041
:100D6000C0E08D2F9C2FDF91CF910C945E058C2FCE
:100D7000887C8834B9F4ECE2F3E090E080E02191E3
:100D800031910196232B89F4880F991FFC01E65DB0
:100D9000FC4F6C2F70E0762F66276D0F711D7370FE
:100DA00071836083DF91CF9108958430910539F785
:100DB000F9CF8F929F92BF92CF92DF92EF92FF92E4
:100DC0000F931F93CF93DF9300D000D000D0CDB707
:100DD000DEB77C016B010E942C0510E000E0BB2413
:100DE000BA940033110599F1F6019081901729F119
:100DF000003330F5F801EE0FFF1FEF5BFB4F8080F3
:100E000091809E828D82BB82BC82BE016D5F7F4FCE
:100E1000CE0105960E94D50581110FC019821A8254
:100E2000BE016F5F7F4FCE0105960E94D5058111EF
:100E300004C0B401C7010E949A060F5F1F4FD1CFB3
:100E40001092A1041092A204E1EAF4E0D8CF269611
:100E50000FB6F894DEBF0FBECDBFDF91CF911F91CB
:100E60000F91FF90EF90DF90CF90BF909F908F9069
:100E70000895CF930FB6F894A8958091600088618B
:100E800080936000109260000FBEAEE6B1E04AE7CA
:100E900051E061E070E08D91E82FF0E024E0F595FD
:100EA000E7952A95E1F7C1A18F709B0101C0220F40
:100EB0008A95EAF7922F90959C2391A382A1822B89
:100EC00082A34A175B0739F7AAE7B1E04EE751E082
:100ED00061E070E08D91E82FF0E094E0F595E79502
:100EE0009A95E1F791A18F709B0101C0220F8A951D
:100EF000EAF7922B91A382A1822B82A34A175B0768
:100F000049F780E1809381001092800080EE9EE29C
:100F1000909387008093860081E18093810081E037
:100F200080936F00CF9108950E94670581E492E05D
:100F30000E94390740E855E260E070E089ED93E0F7
:100F40000E94BD1F0E94E4030E940904E1E4F4E052
:100F500081E39FEF815021F0908391833296FACF05
:100F600089EF91E00C94E60A8F929F92AF92BF9224
:100F7000CF92DF92EF92FF920F931F93CF93DF9365
:100F8000C4EAD2E00BE711E086EFD12CC12CEE24AD
:100F9000E394F12C882E912C9594879495948794C2
:100FA0009594879495948794F40192A18F7057013A
:100FB00001C0AA0C8A95EAF7892F8A2582A30E948C
:100FC0006905F40122A1A226A2A248855985842799
:100FD00095276C817D812E813F8126273727282305
:100FE00039233F832E83FB01E095F095E823F92315
:100FF000FD83EC83862397232095309582239323CA
:101000004827592759874887C82AD92AC114D104A3
:1010100001F18091AC029091AD029093A702809370
:10102000A6028091B6029091B7029093B10280938C
:10103000B0028091C0029091C1029093BB02809354
:10104000BA028091CA029091CB029093C50280931C
:10105000C4022A96F2E0CC3CDF0721F0F80181912E
:101060008F0198CFDF91CF911F910F91FF90EF905B
:10107000DF90CF90BF90AF909F908F9008950E9487
:1010800019036093F5017093F6018093F701909333
:10109000F8018091F301E0914802F091490201903A
:1010A000F081E02D882301F188E492E00995811117
:1010B0000BC01092F3010E94FC0CDC01ED91FC913D
:1010C0000684F785E02D09950E941704809141025E
:1010D000882331F01092410281E492E00E94B4072B
:1010E0000E9494050C94970488E492E00995882363
:1010F00059F381E08093F301E7CFDF92EF92FF9203
:101100000F931F93CF93DF930E94FC0CEC018C0193
:10111000095E1F4FD98C8EA99E01265E3F4F790133
:101120008D15D1F0F901245E3F4F40E0858D50814F
:101130003196952F9095982319F08523848F41E05F
:10114000E217F30799F7442319F0C8010E9420061B
:10115000DEAAC8010E942006E7964CE150E0B701E4
:10116000CE010E948A28892B51F08CE1F701DE0123
:1011700001900D928A95E1F7C8010E9420060E9415
:10118000D3048823B9F048E050E06CE273E084E3D4
:1011900093E00E948A28892B69F08AE293E00E94FA
:1011A0003D0E88E0ECE2F3E0A4E3B3E001900D92A1
:1011B0008A95E1F7DF91CF911F910F91FF90EF900A
:1011C000DF900895EF92FF920F931F93CF93DF93D9
:1011D0008C01EB01898181FF28C080FD26C08B81B5
:1011E000807C19F5888180930101FA800E94FC0CB3
:1011F0002DED2F1590F04F2D477021E030E001C00C
:10120000220F4A95EAF7EF2DE695E695E695E80F69
:10121000F92FF11D828D822329F58B81882351F0CE
:101220000E9440050E947D0805C0E091010188816F
:10123000E81339C0898181FF07C080FD05C06A813C
:101240007B81C8010E949A06CE010E948B048230E5
:1012500009F43FC0DF91CF911F910F91FF90EF9064
:101260000C947D08FB80EA80F3FE03C081EE0E94AF
:101270000305F0FE03C080EE0E940305F1FE03C0EB
:1012800082EE0E940305F2FE03C086EE0E94030573
:10129000F4FE03C083EE0E9403058E2D0E94030519
:1012A0000E947D08BACFE03368F4F0E0EE0FFF1F34
:1012B000EF5BFB4F8181982F907C09F0BBCF0E94A0
:1012C0004005B8CF1092A1041092A204E1EAF4E024
:1012D000F1CFDF91CF911F910F91FF90EF90089583
:1012E000FF920F931F93CF93DF93CDB7DEB72D9768
:1012F0000FB6F894DEBF0FBECDBF8C0129873A87A9
:101300004B875C876D87203348F430FF82C031FD06
:1013100080C089850E94E2059C878B87CE01099653
:101320000E942204823009F468C0E985E03368F441
:101330009A85F0E0EE0FFF1FEF5BFB4F90FF76C04A
:1013400091FD74C09FEF90839183811156C01F82DD
:101350001886BE01695F7F4FCE010B960E94D505AE
:1013600081114BC01D821E82BE016B5F7F4FCE017B
:101370000B960E94D505811140C0FF24FA94FB8290
:10138000FC82BE016D5F7F4FCE010B960E94D5059A
:10139000811133C0F982FA82BE016F5F7F4FCE01A7
:1013A0000B960E94D505811128C08C858D7F8434D1
:1013B00021F4CE0109960E945F0B8C858434E9F0FC
:1013C0008F7C813409F045C08A851B8581FF32C03E
:1013D00080FD30C01983612F8AE493E00E949A0E49
:1013E000811109C041E050E0BE016F5F7F4F8AE488
:1013F00093E00E94840E10933E022D960FB6F8944F
:10140000DEBF0FBECDBFDF91CF911F910F91FF9037
:1014100008958FEF89838A83BE016F5F7F4FCE016E
:101420000B960E94D505811174CF78CF9C852B85B2
:1014300020838ACF80913E028113DFCF198241E061
:1014400050E0BE016F5F7F4F8AE493E00E94840EFC
:10145000D4CFBE01675F7F4FC8010E94D906BE018D
:10146000675F7F4FC8010E94E208CE0109960E9483
:101470009004C3CFEF92FF920F931F93CF93DF930C
:1014800000D000D000D01F92CDB7DEB7022F2B8343
:101490003C834D835E836F83203308F042C07C0120
:1014A000832F817031FF22C081113BC08FEF898370
:1014B0008A83BE016F5F7F4FCE0105960E94D505DE
:1014C000882329F0802F0E94E2059E838D83CE0120
:1014D00003960E941D04811124C02B813C814D8103
:1014E0005E816F81C7010E9470091BC08823C9F00B
:1014F00010E0000F111F0F5B1B4FF80180819181DD
:101500009E838D8319821A82BE016F5F7F4FCE0149
:1015100005960E94D5058823D1F28FEFF8018083CC
:10152000818327960FB6F894DEBF0FBECDBFDF9143
:10153000CF911F910F91FF90EF90089570E090E38D
:10154000899F600D711D1124660F771FFB01E95003
:10155000FF4F8491FB01E850FF4F94910895EF9263
:10156000FF920F931F93CF93DF93EAEFF1E080E3B5
:10157000DF011D928A95E9F77F0100E00033F9F061
:10158000C0910401D0E0C65DDD4FB2E0CA32DB0796
:1015900089F01A911A3208F01A52E0910201F09182
:1015A0000301602F812F09958F3F11F49F3F69F34D
:1015B000F70110830F5FFFEFEF1AFF0ADFCFDF9114
:1015C000CF911F910F91FF90EF9008950C94AF0A67
:1015D00090910001891748F491E090930401809361
:1015E0002A020E94AF0A0C9489040895CF93C091F7
:1015F000040190E0BC016F5F7F4F4C2F50E0461B11
:10160000570B665D7D4F865D9D4F0E94A028C1509F
:10161000C0930401CF9108954091040150E090E0FF
:10162000682F70E0292F092E000C330B2417350783
:1016300064F4265D3D4FF9012081022E000C330B2E
:101640002617370719F09F5FEDCF9FEF892F089579
:10165000CF9396ED980F8A3208F4982F20910001CD
:101660009217C8F4C82F0E940C0B87FF0E94F60A3D
:10167000E0910401E03110F080E0F8CF81E08E0FBE
:1016800080930401F0E0E65DFD4FC0830E94AF0A45
:10169000CF910C948904CF9108950E940C0B87FD83
:1016A0000DC090910401923018F480E00C94E80A87
:1016B0000E94F60A0E94AF0A0C94890408950F93C1
:1016C0001F93CF93FC01C2819181292F22708381C6
:1016D000863479F5C695C695C695C65D8F0186EDAB
:1016E0008C0F35EB3C0F323008F060C02223E9F05C
:1016F00090FD1BC0E0910401F0E0E75DFD4F90819B
:101700009A3208F09A528232B1F59F5F80910001BF
:10171000981798F1D801EC91E03338F4F0E0EE0F2F
:10172000FF1FEF5BFB4F10821182CF911F910F9132
:101730000895C43558F02223C1F390FDF6CF8CEA0A
:101740008C0FCF911F910F910C94E80ACA3230F69A
:10175000222359F390FDE9CF30910401EAE2F2E04F
:1017600020E08FEF321789F191919A320CF0982F87
:101770002F5F892FF7CF9150C9CFCAE2C90F8C2FA5
:101780000E94280BD801EC91E03348F4F0E0EE0F12
:10179000FF1FEF5BFB4FC08384E48183C6CF1092B1
:1017A000A1041092A204E1EAF4E0F5CF8C2F2223E9
:1017B00099F090FD11C00E940C0B87FFB6CF8C2FC3
:1017C000CF911F910F910C94280B082E000C990BB0
:1017D000C8171906A1F78C2FCF911F910F910C9468
:1017E0004D0B90E080E0089590E080E0089590E057
:1017F00080E0089590E080E0089590E080E0089512
:101800000895089580E0089590E080E0089580E0D4
:101810000895089581E0089586E394E00C94632789
:10182000EAE3F2E01482118610861286138614868B
:1018300015868CE691E097878687158A148A88EE4C
:1018400093E0A0E0B0E0868B978BA08FB18F86E409
:1018500091E0938B828B81E0868F878F80E691E089
:1018600091A380A388E591E093A382A30895CF93E9
:10187000DF9300D000D01F92CDB7DEB7262F342FD4
:10188000842F817041FF15C0811115C080914004E3
:1018900061E0680F609340044FEF5FEF84EF91E0E9
:1018A0000F900F900F900F900F90DF91CF910C94AD
:1018B0003A0A8111EBCF0F900F900F900F900F907D
:1018C000DF91CF9108951F920F920FB60F921124BE
:1018D0008F9381E0809341028F910F900FBE0F9004
:1018E0001F901895FC0182818F5BFB01808381E052
:1018F00008950895FC01838908954797FC01838921
:101900000895FC01848908954797FC01848908950E
:10191000FC01662349F08EE592E09387828780E39D
:1019200090E095878487089587E292E09387828785
:1019300087E390E0F6CF47970C94880C21E0FC01F8
:10194000238B0895479721E0FC01238B0895EF92A4
:10195000FF920F931F93CF93DF938B017A019A012C
:10196000AB0160E00E94FF0DEC01E0912803F091D3
:101970002903309729F09C01A701B80182E009955D
:10198000CE01DF91CF911F910F91FF90EF900895BD
:1019900047970C94A70CCF92EF920F931F93CF937E
:1019A000DF93EC01162FC12CEE24E39400E020E439
:1019B00050E040E070E060E00E94DA0DFE01ED5A78
:1019C000FF4F108382E891E0998388838CE991E04E
:1019D000988F8F8B81E08F87612FCE0147960E9471
:1019E0009B0C0E94A020BE01DF91CF911F910F910F
:1019F000EF90CF900C945C208091CC02811108C0B4
:101A000060E084ED92E00E94CB0C81E08093CC02F8
:101A100084ED92E00895CF93DF93CDB7DEB7699759
:101A20000FB6F894DEBF0FBECDBFFC0197859E01B7
:101A30002D5F3F4F8DE0D9011D928A95E9F739E07E
:101A4000398384E08A8381E08D8323E02E833A8783
:101A500031E23B8731E13C878D878F8782E2888B3B
:101A600087E08B8B85E08C8B2E8B82818B8381E052
:101A7000911101C080E08F83988794858585998B2B
:101A80008A8B838180688D8B868590E0988F8F8B81
:101A90008089898FFB0180818F5F808349E150E0DD
:101AA000BE016F5F7F4F80E00E94072569960FB6E9
:101AB000F894DEBF0FBECDBFDF91CF910895FC013A
:101AC000DB018C91813899F413968C9113978232B3
:101AD00071F4228114968D919C912817190639F47E
:101AE000448555856285738580E80C94072590E0D0
:101AF00080E00895EF92FF920F931F93CF93DF93AF
:101B0000EC01DB012A8114968D919C911597281781
:101B1000190609F04DC011968C9111979C91913A3C
:101B2000B9F4813049F0833079F48F85882309F442
:101B30003FC08B898093F10081E0DF91CF911F91AD
:101B40000F91FF90EF900895823091F58989F2CF3F
:101B5000913271F58B3039F48F85882349F11296D3
:101B60008C918B8BE9CF8A3021F412968C91898BE2
:101B7000E3CF8930E9F413968C9113978230C1F446
:101B800016960D911C910330110590F47E0184E1AD
:101B9000E80EF11CB801C7010E942D25E881F981EA
:101BA0000284F385E02DA801B701CE010995C4CFC9
:101BB00080E0C3CFCF92EF920F93FC0181E084834A
:101BC0008583DF015696B783A68311861086AAEA1D
:101BD000B1E0B183A08373876287558744872687E6
:101BE0000787E08AC18A838B81EC868B0F91EF9007
:101BF000CF900895FC01838180640C945624AF92A9
:101C0000BF92CF92DF92EF92FF920F931F93CF93E9
:101C1000DF931F92CDB7DEB77C0169836A0159015A
:101C2000611107C0A901B601C7010E94FA0D8C011C
:101C300017C041E050E0BE016F5F7F4FF701838125
:101C40000E9456248C0197FD0BC0F7018381A501EA
:101C5000B60180640E945624080F191F97FDE7CF34
:101C6000C8010F90DF91CF911F910F91FF90EF90DE
:101C7000DF90CF90BF90AF900895CF93DF93EC01AA
:101C80000E940628AE014E5F5F4FDC01ED91FC9192
:101C90000084F185E02D28E030E064E0DF91CF9111
:101CA000099428E0FC013296DF01322F1D923A950B
:101CB000E9F73896DF011D922A95E9F72AEB31E022
:101CC000FC013183208380913C03811113C0109269
:101CD0004503109244038EE892E09093470380936B
:101CE000460389E190E0909349038093480381E0A3
:101CF00080933C030E94062864E473E00C94C6279A
:101D00008AE293E00C94510E0F931F93CF93DF93CD
:101D1000EB018A010E940628DC01ED91FC91008410
:101D2000F185E02D9801AE0165E0DF91CF911F9123
:101D30000F910994633831F486E394E00E946A2796
:101D400081E0089580E0089520EC31E0FC013183CA
:101D5000208380914C03811113C01092550310927F
:101D6000540387EA92E0909357038093560388E1E7
:101D700090E0909359038093580381E080934C0343
:101D80000E94062864E573E00C94C6278AE493E079
:101D90000C94A40E84E690E00C9483034AE050E097
:101DA000682F89ED93E00E94F0210E94CA0E60E244
:101DB00089ED93E00E9414210C94CA0EFF920F93B8
:101DC0001F93CF93DF93EC01F62E08811981C80190
:101DD0000E94B928F81621F06F2DC8010E94C12871
:101DE000CE01DF91CF911F910F91FF900895AF9297
:101DF000BF92CF92DF92EF92FF920F931F93CF93F8
:101E0000DF9300D0CDB7DEB78C016C0184E0C80E43
:101E1000D11C5601F12CE12CC7010E94B928F50113
:101E200081935F01FFEFEF1AFF0A84E0E816F104E7
:101E300099F7F80185818F3FD1F48481982F9F779E
:101E40009F3711F487FD148281E0F801858310E04B
:101E500000E01A830983F60161916F01CE010196BA
:101E60000E94DE0E0F5F1F4F0430110591F780E0D6
:101E70000F900F90DF91CF911F910F91FF90EF90F6
:101E8000DF90CF90BF90AF9008950F931F93CF93A3
:101E9000DF9300D0CDB7DEB77A836983FC0123815D
:101EA00010E000E021110FC000811181CB01800FF3
:101EB000911F9183808342E0BE016F5F7F4F84E674
:101EC00093E00E946A11C8010F900F90DF91CF91AB
:101ED0001F910F910895CF92DF92EF92FF920F938F
:101EE0001F93CF93DF9300D0CDB7DEB77C016C0199
:101EF00084E0C80ED11C10E000E01A830983F601CB
:101F000061916F01CE0101960E94DE0E0F5F1F4F9F
:101F10000430110591F781E0F70182830F900F9053
:101F2000DF91CF911F910F91FF90EF90DF90CF90B5
:101F300008951F93CF93DF93EC01162F809100013A
:101F4000681748F4862F0E94E80A8C818078912FC8
:101F50009F77892B8C831E3720F08C8180788E6749
:101F60008C83CE010E946B0F8C818F77DF91CF9194
:101F70001F910895FC01948160FB97F99483892F48
:101F80008F778F3719F490789E679483CF010C94E4
:101F90006B0FCF93DF93EC0181E08B8360E184E6EC
:101FA00093E00E9451118D81813021F01A82DF91DE
:101FB000CF9108952E813F818091640390916503B4
:101FC0002F3F3207A9F49F838E83CE010E946B0FAF
:101FD00081E08A838C818F778E3748F720910001CA
:101FE00030E0821713061CF7DF91CF910C94E80ABA
:101FF00028173907E1F6ECCFFC012381211102C03B
:102000000E94C90F80E00895CF93DF93EB018BE628
:1020100093E00E940413882311F168E173E089EDD5
:1020200093E00E941F210E94CA0E68E073E089EDD0
:1020300093E00E941F210E94CA0E67EF72E089EDB3
:1020400093E00E941F210E94CA0E6AEE72E089EDA1
:1020500093E00E941F210E94CA0E80E021C048E147
:1020600053E0BE018BE693E00E9471138823D9F000
:102070008BE693E00E947E13882331F08091600309
:102080008F770E94CE0E0BC041E070E060E089EDDA
:1020900093E00E9493228CE593E00E94990F81E0E7
:1020A000DF91CF91089548E053E0BE018BE693E0C5
:1020B0000E947113882381F060915E038BE693E0A8
:1020C0000E94F9120E94CA0E60E289ED93E00E941C
:1020D00014210E94CA0EE3CF47EF52E0BE018BE607
:1020E00093E00E947113882319F080916103C9CF96
:1020F0004AEE52E0BE018BE693E00E947113882302
:1021000009F4ABCF80915F03C0916203D091630368
:10211000811102C0D0E0C0E060916403709165035A
:102120004AE050E089ED93E00E94F7210E94CA0E38
:1021300068EE72E089ED93E00E94F0200E94CA0EE2
:102140004AE050E0BE0189ED93E00E94F721C1CF43
:102150000F931F93CF93DF9300D0CDB7DEB78B01E2
:102160008BE693E00E9404138823D1F068ED72E0BF
:1021700089ED93E00E941F210E94CA0E6CEC72E070
:1021800089ED93E00E941F210E94CA0E6FEB72E05E
:1021900089ED93E00E941F210E94CA0E80E01DC0BD
:1021A00048ED52E0B8018BE693E00E94711388235A
:1021B000A9F18BE693E00E947E1310E000E08823F3
:1021C00099F0C8010E94B9280E94CE0E0F5F1F4FE0
:1021D000011584E01807A9F781E00F900F90DF91B7
:1021E000CF911F910F9108958BE693E00E947E138B
:1021F0008111F2CF41E070E060E089ED93E00E9450
:1022000093221A830983CE0101960E94DE0E0F5F8E
:102210001F4F011584E0180739F7DECF4CEC52E070
:10222000B8018BE693E00E9471138823C1F080917E
:102230005C0390915D0360E074E0681B790B4AE0F9
:1022400050E089ED93E00E94F7210E94CA0E60E2FF
:1022500089ED93E00E9414210E94CA0EBDCF4FEB7E
:1022600052E0B8018BE693E00E947113882309F4D1
:1022700095CF87E797E7909301088093000888E15E
:102280009BE00FB6F894A895809360000FBE9093E2
:102290006000FFCF84E090E090935D0380935C0347
:1022A0000895FC01208131812170332781E0861758
:1022B00070F4408151815695479551834083220F98
:1022C000331F41705527242B352B8F5FF0CF31837F
:1022D00020830895DC01FB01415000F181912D9193
:1022E0003C91119768E070E051E0982F952399F4A4
:1022F000932F991F9927991F220F331F992319F0A4
:1023000095E029273058550F6150710971F71196E2
:102310003C932E93E1CF932F9095EBCF089584E6D5
:1023200090E00C9483031F93CF93DF939091680305
:10233000891730F080E090E0DF91CF911F910895F0
:10234000C62FD0E090E3899FC00DD11D1124CC0F82
:10235000DD1F6091690370916A03C60FD71FCE011C
:102360000E94B928182FCE0101960E94B928912FFA
:10237000E3CF90916703891710F40C949E0A891B90
:102380000C949311809100018093670380E008957D
:102390006DE573E089ED93E00E94F0200E948F11BB
:1023A00089ED93E00E941B210E948F1180E0089527
:1023B000FF920F931F93CF93DF9300D0CDB7DEB77B
:1023C000F62E672F8C01000F111F809169039091E9
:1023D0006A03800F911F9A838983CE0101960E9420
:1023E000DE0E8091690390916A030196800F911F20
:1023F0009A8389836F2DCE0101960E94DE0E0F9085
:102400000F90DF91CF911F910F91FF900895FF9250
:102410000F931F93CF93DF93F82E8B01C0E0CF155E
:10242000F9F0D0E06D2F8C2FF8010995692F70E03D
:10243000762F6627680F711D4AE050E089ED93E022
:102440000E94F7210E948F1160E289ED93E00E94C3
:1024500014210E948F11DF5FD03321F7CF5FDFCFD0
:10246000DF91CF911F910F91FF900895FF920F93ED
:102470001F93CF93DF931F92CDB7DEB78B018BE60F
:1024800093E00E940413882301F16FE473E089ED67
:1024900093E00E941F210E948F1160E473E089ED98
:1024A00093E00E941F210E948F116EE273E089ED7C
:1024B00093E00E941F210E948F1180E00F90DF9116
:1024C000CF911F910F91FF9008954EE253E0B80114
:1024D0008BE693E00E9471138823F1F18BE693E081
:1024E0000E947E138823B1F06091600367FB66272A
:1024F00060F94AE050E089ED93E00E94F0210E94EB
:102500008F1160E289ED93E00E9414210E948F11E7
:1025100081E0D4CF41E070E060E089ED93E00E947B
:102520009322162F69838CE593E00E94BA0F909155
:10253000680390930001112339F083E991E19093AE
:10254000030180930201E4CF80916703890F809398
:10255000000189EB91E1F3CF40E453E0B8018BE651
:1025600093E00E947113882339F06EE97AE080913C
:1025700067030E940712CCCF4FE453E0B8018BE60B
:1025800093E00E947113882309F497CF8BE693E0C0
:102590000E947E1310E000E090E3F92E882329F0DA
:1025A00063E971E180916803E4CF8BE693E00E94D8
:1025B0007E138111ADCF809168038F9DC0011124DE
:1025C0000817190708F0A4CF41E070E060E089ED3A
:1025D00093E00E949322272F3327722FC8010E9475
:1025E000D8110F5F1F4FE1CFBC0189ED93E00C9430
:1025F0003121611106C06FE673E089ED93E00C9420
:10260000F02065E773E0F9CFCB016AE673E00E9442
:10261000812821E0892B09F020E0822F0895CF93B3
:10262000DF93EB010E940413882351F169E973E001
:1026300089ED93E00E941F2184E690E00E948303CD
:102640006CE873E089ED93E00E941F2184E690E03E
:102650000E94830362E873E089ED93E00E941F21EA
:1026600084E690E00E9483036AE773E089ED93E0DB
:102670000E941F2184E690E00E94830380E024C032
:102680006CE873E0CE010E948128892B89F487E7EA
:1026900097E7909301088093000888E19BE00FB6CC
:1026A000F894A895809360000FBE90936000FFCFD0
:1026B00062E873E0CE010E948128892B41F484EF07
:1026C00092E10E94070481E0DF91CF9108956AE7CB
:1026D00073E0CE010E948128892B81F60E94EF03CE
:1026E000F2CFCB01BA010E94812821E0892B09F0A9
:1026F00020E0822F089510928B030895CF92DF92ED
:10270000EF92FF920E9419036B017C0189ED93E027
:102710000E94CF1E082E000C990B8A30910569F09B
:1027200097FF11C00E9419036C197D098E099F093A
:10273000683E73408105910548F381E0FF90EF907A
:10274000DF90CF90089580E0F9CFCF93DF93EC0135
:1027500089ED93E00E94E51E89ED93E00E94E81E5A
:10276000892B09F442C089ED93E00E94CF1E8A3084
:1027700099F189ED93E00E94F81E80329105E1F411
:10278000CE010E94380489ED93E00E94E81E892B57
:1027900031F089ED93E00E94F81E0A97A1F76EE9E7
:1027A00073E089ED93E00E941F2118A280E2FE01F0
:1027B00011928A95E9F719C0E8A191E09E0F98A3BC
:1027C000EC0FFD2FF11D80839F3130F489ED93E0F4
:1027D0000E94E81E892B39F689ED93E00E94CF1EF6
:1027E0000A9771F288A18F3158F680E0DF91CF917E
:1027F0000895FC0184913196949108958F929F924F
:10280000AF92BF92CF92DF92FF920F931F93CF931D
:10281000DF936115710509F481C0F12CEB0121965C
:10282000FB011491EFEFE10FED3008F077C0F0E01D
:10283000E45EFB4E0C94582841144E145A145A145A
:102840005A145A145A145A14461446144614291485
:1028500029148F2C912CB12CA12C70E01D3029F063
:10286000CE010196FE017491EC016E01FFEFCF1ACB
:10287000DF0AFE016491611147C0711145C0E60194
:1028800005C06E5F7F4FFE01F490EB016F2D70E08D
:1028900090E080E00E944A03BE01C0CF8B010E5F32
:1028A0001F4FFE01649170E090E080E00E944A03B7
:1028B000E801ECCF8AEF810F833098F06E5F7F4F95
:1028C000FE018491EB012196FB016491153081F0AA
:1028D00058F4143099F0782F8DE893E00E944C154D
:1028E000D5CFBE0180E0EECF173041F0183099F718
:1028F000782F8DE893E00E94F015C8CF782F8DE8EF
:1029000093E00E948715C2CF8DE893E00E94F015F6
:10291000C501B4010E944A03E6019FCFDF91CF9128
:102920001F910F91FF90DF90CF90BF90AF909F903D
:102930008F900895862F90E06134E0F46A33B0F50B
:10294000603269F170F46A3039F130F482E2683053
:1029500050F590E080E008956B31D9F790E089E27E
:1029600008956133F8F4880F991F89599C4F0E948C
:10297000F9130895613638F46B35E8F0880F991F24
:102980008F5D9C4FF4CF6B37D0F06F3710F7880F07
:10299000991F83519D4FEBCF90E088E2089590E01E
:1029A0008CE208958DEE860F90E00895880F991FB0
:1029B0008B5A9C4FDCCF83EC860F98E0089583EA16
:1029C000F2CF0F931F93CF93DF938C01EB01FE01A6
:1029D0006491662371F0C8010E949A14811102C0AB
:1029E000992329F0BC018DE893E00E94F01521960F
:1029F000EECF90E080E0DF91CF911F910F9108958D
:102A00000F931F93CF93DF93EB012B8130E0322F95
:102A100022274A8150E0BA017056260F371F2F3FF8
:102A2000310509F0F8F48C01BE01842F0E94A50441
:102A3000BC01C8010E94FE13898180FF02C081FF92
:102A40000DC08A8190E090562B8130E0322F2227F2
:102A5000820F931F8F3F910529F020F08DE893E0BE
:102A60000E94AF1580E0DF91CF911F910F910895E3
:102A700062EA73E089ED93E00E94F02084E690E042
:102A80000E94830389ED93E00E941B2184E690E07D
:102A90000E94830380E00895EF92FF920F931F93AB
:102AA000CF93DF9300D000D01F92CDB7DEB78C015B
:102AB000F62EE72E609140048FEF898382E88A83A7
:102AC000FB827C836D832FEF32E84F2D572F84EFED
:102AD00091E00E947009C8014096F801E817F907D3
:102AE00041F02081211111C0218121110EC0F082FD
:102AF000E1820F900F900F900F900F90DF91CF9188
:102B00001F910F91FF90EF9008953296E7CFCF93EA
:102B1000DF9300D000D01F92CDB7DEB7AB019C0190
:102B2000205F3F4FFC012E173F0751F08081841337
:102B300005C08181851302C0108211823296F3CFC5
:102B4000609140042FEF31E884EF91E00F900F90F7
:102B50000F900F900F90DF91CF910C947009CF924E
:102B6000DF92EF92FF920F931F93CF93DF9300D0EA
:102B700000D01F92CDB7DEB77C0120E1E20EF11C40
:102B80008C01DD24DA9481E8C82EE016F106D1F03C
:102B9000F80140815181411102C0552381F06091BB
:102BA0004004D982CA824B835C836D832FEF31E866
:102BB00084EF91E00E947009F801108211820E5F8B
:102BC0001F4FE3CF0F900F900F900F900F90DF915A
:102BD000CF911F910F91FF90EF90DF90CF900895CC
:102BE0000F931F93CF93DF9300D000D01F92CDB7E8
:102BF000DEB78B01609140042FEF32E8A80184EF2B
:102C000091E00E94700969E170E080E090E00E942C
:102C10004A03609140042FEF31E8A80184EF91E06E
:102C20000F900F900F900F900F90DF91CF911F9109
:102C30000F910C9470090F931F93CF93DF938C0126
:102C4000005F1F4FEC010C171D0771F0688179813F
:102C500089819881911102C0882321F084EF91E04D
:102C60000E949A062296EFCF80E0DF91CF911F91CC
:102C70000F910895FC018281DB019C91891730F549
:102C8000A081B181A80FB11D2C9130E0938102C0C9
:102C9000359527959A95E2F724834481442391F052
:102CA000242F30E0938140FF07C0880F880F880FE2
:102CB000890F858381E008953595279524839F5F4B
:102CC0009383EBCF8F5F82831382D5CF80E008950B
:102CD000262F269526952695820F911DFC01808131
:102CE00090E0677002C0959587956A95E2F78170CC
:102CF0000895E62FE695E695E695E80FF92FF11D84
:102D0000677081E090E0A0E0B0E004C0880F991FF8
:102D1000AA1FBB1F6A95D2F72081822B808308955A
:102D2000E62FE695E695E695E80FF92FF11D862F3B
:102D3000877041E050E060E070E004C0440F551F30
:102D4000661F771F8A95D2F74095509560957095CC
:102D50008081482340830895272F207C69F4605E9A
:102D6000683080F4FC018681978102C09695879532
:102D70006A95E2F781700895743431F426ED260FD8
:102D80002A3220F081E008957634E1F76252603112
:102D90004CF3F8CF0C94AC166BEE73E089ED93E036
:102DA0000E94F02084E690E00E94830389ED93E086
:102DB0000E941B2184E690E00E94830380E0089536
:102DC0004F925F926F927F928F929F92AF92BF923B
:102DD000CF92DF92EF92FF920F931F93CF93DF93E7
:102DE000CDB7DEB761970FB6F894DEBF0FBECDBF8B
:102DF0008C01FC0160807180C090F501D090F601DB
:102E000086899789C81AD90A828093807801FAE066
:102E1000EF0EF11CF886EF8219861A868FEF8C87E9
:102E2000FA82E98296E09B831C828E83512C5801A2
:102E300080E1A80EB11CBE016D5F7F4FCE010796E9
:102E40000E943A16482E882349F15C84652DC501FD
:102E50000E9468168823D1F0C614D70490F0652D1F
:102E6000C5010E949016652DC7010E9490166091C1
:102E70004004252D31E84FEF5FEF84EF91E00E9491
:102E800070098A858F5F8A87542CD5CFC814D904DE
:102E9000C0F3652DC7010E949016F3CF511007C0F3
:102EA0008091F5019091F601F801978B868B80E077
:102EB00061960FB6F894DEBF0FBECDBFDF91CF9104
:102EC0001F910F91FF90EF90DF90CF90BF90AF9048
:102ED0009F908F907F906F905F904F900895FB012F
:102EE0002081203320F4218127FF0C94E01680E01C
:102EF0000895872F90E0982F8827860F911D2FEF38
:102F0000280F283018F4815290E008958F5D94E4E2
:102F100008959F92AF92BF92CF92DF92EF92FF926D
:102F20000F931F93CF93DF93FB01F080FFE2FF1518
:102F300008F45FC0FB01E180E7FC5BC08B01EC01A2
:102F40006C01FAE0CF0ED11C6F2DC6010E946816ED
:102F5000982E5E0120E1A20EB11C6F2DC5010E94CA
:102F60006816E1FE95C0E0FC93C0911056C0811137
:102F70008AC0F80182819381292F30E0322F2227E5
:102F8000482F50E04150504C240F351F203131055F
:102F9000A0F462817381CE010E947917F8019383B6
:102FA0008283F8016081C6010E9479168091F50143
:102FB0009091F6019F8B8E8B19C02885222339F0C2
:102FC000292F207C21F420E2280F283050F3298576
:102FD000222331F0943479F426ED280F2A3208F3B5
:102FE000292F207C59F4805E883068F4F8018081B4
:102FF000888F80E03CC0963499F7D3CF943451F455
:103000008A528A3298F38E899F8928813981821B5E
:10301000930BD0CF963451F3F6CF882339F36F2D2D
:10302000C6010E949016F8019081888D981731F0A2
:10303000F8016081C5010E949016D8CF628173812A
:10304000CE010E94CA16882399F38C819D8197FF37
:1030500002C0888199812091F5013091F6014E8955
:103060005F89241B350B2817390710F782E0DF91A1
:10307000CF911F910F91FF90EF90DF90CF90BF9075
:10308000AF909F9008956F2DC6010E949016D0CFEB
:10309000911003C0882309F4ACCFF8016081C50109
:1030A0000E947916E3CF84E690E00C948303CF93DB
:1030B000DF93EC0141E070E060E089ED93E00E9475
:1030C000932279836883DF91CF9108954AE050E09D
:1030D000BC0189ED93E00E94F7210E94531860E241
:1030E00089ED93E00E9414210C9453184AE050E0BB
:1030F000BC0189ED93E00E94DC210E94531860E23C
:1031000089ED93E00E9414210C9453189F92AF9282
:10311000BF92CF92DF92EF92FF920F931F93CF93C4
:10312000DF935C017B018B01D0E0C0E0F80191905E
:103130008F016501CC0EDD1EC6010E94B9289816CC
:1031400021F0692DC6010E94C1282196CA30D105FF
:1031500069F7C701DF91CF911F910F91FF90EF9019
:10316000DF90CF90BF90AF909F900895EF92FF9225
:103170000F931F93CF93DF938C016AE070E08CE58F
:1031800093E00E94450FEC01F801918380838C014C
:103190007C01FAE0EF0EF11C0E151F0500F5C801C9
:1031A0000E94B9288F3F19F40F5F1F4FF5CF05E03C
:1031B00011E0C550D140CE01800F911F0E94B92867
:1031C000F80181938F01F1E00F301F07A1F780E034
:1031D000DF91CF911F910F91FF90EF90089565E0DF
:1031E00071E0CE010E948618F2CF60E774E089EDAD
:1031F00093E00E94F0200E94531889ED93E00E9412
:103200001B210E94531880E00895EF92FF920F93C4
:103210001F93CF93DF9300D0CDB7DEB77C018B0136
:103220008BE693E00E940413882391F160E674E03A
:1032300089ED93E00E941F210E9453186BE474E013
:1032400089ED93E00E941F210E94531860E374E00F
:1032500089ED93E00E941F210E94531869E174E0F8
:1032600089ED93E00E941F210E94531867E074E0EB
:1032700089ED93E00E941F210E94531863EF73E0D1
:1032800089ED93E00E941F210E94531880E04FC0F7
:1032900040E654E0B8018BE693E00E94711381117F
:1032A0004FC04BE454E0B8018BE693E00E947113E9
:1032B000811148C040E354E0B8018BE693E00E94DE
:1032C0007113811141C049E154E0B8018BE693E0EC
:1032D0000E94711381113AC047E054E0B8018BE6B7
:1032E00093E00E947113811133C043EF53E0B801A2
:1032F0008BE693E00E94711315E0882339F28BE688
:1033000093E00E947E138823E1F1133091F110F5D0
:10331000113051F18091090190910A01123009F1A7
:1033200080910501909106010E94661881E00F903E
:103330000F90DF91CF911F910F91FF90EF90089523
:1033400010E0DDCF11E0DBCF12E0D9CF13E0D7CF13
:1033500014E0D5CF143091F080910E01153001F7B3
:1033600090E00E947618E2CF8091070190910801C9
:10337000DBCF80910B0190910C01D6CF80910D0194
:10338000EFCF133009F43FC0B0F4113031F11230F7
:1033900079F1CE0101960E94571889819A81909304
:1033A00006018093050165E071E0F701808191815C
:1033B0000E948618BBCF143089F1153051F741E0D7
:1033C00070E060E089ED93E00E94932281E061115A
:1033D00001C080E080930E01E6CFCE0101960E94ED
:1033E000571889819A819093080180930701DBCF58
:1033F000CE0101960E94571889819A8190930A0103
:1034000080930901D0CFCE0101960E94571889817F
:103410009A8190930C0180930B01C5CF41E070E03D
:1034200060E089ED93E00E94932281E0611101C088
:1034300080E080930D01B7CF6EE774E089ED93E0F3
:103440000E94F02084E690E00E94830389ED93E0DF
:103450000E941B2184E690E00E94830380E008958F
:10346000FC01872F90E0982F8827680F792F711D16
:10347000613180EC7807E0F0623188EC780750F435
:103480006151704C66A717A611AA80EE870F80AB1A
:1034900081E00895633180ED780750F46251784CF3
:1034A00066A717A68AE2870F80AB84E481ABF0CFD2
:1034B00080E008958F929F92AF92BF92CF92DF9259
:1034C000EF92FF920F931F93CF93DF9300D000D022
:1034D000CDB7DEB78C01F62E2FE2261708F469C0AF
:1034E000E62FF0E0EE0FFF1FEF5BFB4FD080E18097
:1034F0008FEFD8120FC0E8120DC0AF2DB0E0A6506C
:10350000BE4FE0910201F09103016F2D8C9109955E
:10351000D82EE92E6D2D7E2DC8010E94301AB82EAE
:10352000811135C0EF2DF0E0E650FE4F8080C12CB8
:10353000AA24AA94912CF8018281C81608F042C0EE
:10354000F4E0CF9EC0011124F80160817181680F01
:10355000791FAA8244E050E0CE0101960E947828AB
:1035600089819A813B812C81F9122AC0482F082E2B
:10357000000C550B4815590511F08F3F09F5F8015E
:10358000D6A6E7A6C90190AB21ABBB24B3948B2D83
:103590000F900F900F900F90DF91CF911F910F918F
:1035A000FF90EF90DF90CF90BF90AF909F908F9063
:1035B00008951092A1041092A204E1EAF4E096CFDB
:1035C000C394B9CFD6A6E7A68FEF80AB81ABDFCF90
:1035D000CF93DF93FC01EB019A01261B370BA4E686
:1035E000B0E00E945E2826A130E050E040E00E945A
:1035F00036288091F5019091F601BC016C1B7D0B82
:1036000081E06217730708F080E0DF91CF910895A1
:10361000292F207C29F4805E883058F481E00CC08A
:10362000943439F496ED980F81E09A3228F080E0D6
:10363000089581E09634D9F70895CF93DF93EC0194
:103640008881681780F5882371F181508883E62F7F
:10365000F0E0DF011196AC0FBD1FEE0FFF1F71965A
:10366000EC0FFD1F962F981780F411962C9111974F
:103670002D9318962C91189717962C9317972281B3
:103680003381219331939F5FEECF2FEF30E001C064
:10369000220F6A95EAF789A1922F90959823869533
:1036A0008223892B89A3DF91CF910895CF93DF9354
:1036B00000D000D01F92CDB7DEB7FC01348584A1C5
:1036C000982F917080FD28C082E0248139838A83FD
:1036D0006B837C832D8391110AC0872F90E0982FF4
:1036E0008827680F792F711D64307105F0F460E050
:1036F000CF0103960E941D1B29813A814B815C8179
:103700006D8184EF91E00F900F900F900F900F90CC
:10371000DF91CF910C943A0A81E0D7CF6D327105D9
:1037200030F36933710518F703C068327105B0F7DB
:103730008489958994A783A7DACFCF93DF93FC017F
:103740007381DC011D9681E090E060E08717F0F462
:1037500052A94D9124A130E0082E02C0359527953D
:103760000A94E2F720FD0DC0541721F080E0DF91AC
:10377000CF9108952489358934AB23AB682F019606
:10378000E5CF5413FCCF8FEF82ABF0CF8091F501E2
:103790009091F60123A934A9821B930B25A9281720
:1037A000190609F068F48FEF82AB6623F9F2EF0196
:1037B0002396CE010E941D1B60E0CE010E941D1BBE
:1037C00081E0D5CF7F928F929F92AF92BF92CF929E
:1037D000DF92EF92FF920F931F93CF93DF93EC0151
:1037E0009B81911110C0F12C8F2DDF91CF911F91F2
:1037F0000F91FF90EF90DF90CF90BF90AF909F9090
:103800008F907F9008959C848CA180FF13C0983086
:1038100041F460E070E0CE010E94561BFF24F39457
:10382000E3CF8AA99812F5CFCE010E949D1B81118A
:10383000DACFEFCF692DCE010E945A1A882309F4FE
:1038400070C0FDA0FF2009F46CC00EA51FA5C80123
:103850000E94081B882E8091F5019091F6012BA5FE
:103860003CA5821B930B2AA52817190609F010F511
:103870007B80A090F501B090F6016E0101E010E0B0
:10388000E12C202F071508F065C08CA190E0002ED8
:1038900002C0959587950A94E2F780FD12C08110C9
:1038A00040C0EE2009F454C07FEFC71AD70A0F5F5B
:1038B0001F4FE7CF8110DCCFB801CE010E94561B0D
:1038C000D7CFF6019585FE013D9681E099122DC076
:1038D000EE2019F08EA1811110C0882059F068A93E
:1038E00079A99AAA8C899D899CAB8BABCE010E9449
:1038F000561B7ACF6EA57FA5F4CFF801EE0FFF1F00
:10390000EC0FFD1F44895589EE2DF0E0EE0FFF1FEF
:10391000EC0FFD1F64897589CE010E94E81A8111A0
:10392000C3CF6EA57FA577CF8F5F821708F0BCCF7E
:1039300031913913F9CF4C895D89B501641B750B41
:1039400039A53617170609F078F768A979A9CECFF7
:10395000E02EAACF88E0781246CFE3CF0F931F93D3
:10396000CF93DF93EC01FB0184819DA5282F291BB8
:1039700012162CF09B8191111CC080E01FC08DA7F6
:1039800080818033D0F7818187FDF7CF8B018DA1B6
:10399000811119C062817381CE010E94301A88237F
:1039A00061F38EA59FA5D80113969C938E931297D1
:1039B000E4CF9C81891B87FDE0CF82E0DF91CF912E
:1039C0001F910F9108952B81822F90E03481FE0189
:1039D000E80FF91F3483DB013C913487880F991F6E
:1039E000FE01E80FF91F8091F5019091F601958B8A
:1039F000848B11964C913CA181E090E0A0E0B0E076
:103A0000022E04C0880F991FAA1FBB1F0A94D2F769
:103A100040FF0CC041FD0AC0832B8CA32F5F2B837A
:103A2000CE010E94E21B8111FBCFC7CF809583237B
:103A3000F4CF0F931F93CF93DF93EC012091F50107
:103A40003091F6018AA590E04BA55CA5B901641BF5
:103A5000750B6817790738F0A90141505109481BC7
:103A6000590B5CA74BA78B818823D9F08C899D8942
:103A7000281B390B8FA198A52817390768F00EA5C8
:103A80001FA5C8010E94081BB801811102C068A9C6
:103A900079A9CE010E94561BCE010E94E21B811122
:103AA000FBCF80E0DF91CF911F910F910895CF93CD
:103AB000DF93CFE9D3E0198218821A821B8288E053
:103AC000E1E3F1E0ABEAB3E001900D928A95E1F712
:103AD00081E08DA380E58EA38AEF90E098A78FA365
:103AE00082E389A78BE48AA780E091E09CA78BA75B
:103AF0008FEF8DA78EA78FA788AB89AB8AAB88EC99
:103B00008DABDF91CF91089584E690E00C94830310
:103B10006DE974E089ED93E00E94F0200E94841D1D
:103B200089ED93E00E941B210E94841D80E008958E
:103B30007F928F929F92AF92BF92CF92DF92EF923D
:103B4000FF920F931F93CF93DF9300D000D0CDB798
:103B5000DEB77C018B018BE693E00E94041388237F
:103B600051F06BE874E089ED93E00E941F210E9400
:103B7000841D80E082C04BE854E0B8018BE693E0FE
:103B80000E9471138823A9F38BE693E00E947E13B1
:103B900010E000E0882309F482C0F701828093805E
:103BA0000815190508F046C05801FFEFAF1ABF0A03
:103BB000F70180819181800F911F0E94B928C82E42
:103BC0008FEF8C0D8E3FB0F54AE050E06C2D89ED03
:103BD00093E00E94F0210E94841D60E289ED93E051
:103BE0000E9414210E94841DD12C4501FFEF8F1AE1
:103BF0009F0AF701808191818A0D9B1D0E94B9283F
:103C0000682F89ED93E00E9414210E94841D81E0B9
:103C10008D0D54018C110CC00E5F1F4F0D0D111D29
:103C20006AE089ED93E00E9414210E94841DB5CFC3
:103C3000D82EDBCF4AE050E070E060E089ED93E001
:103C40000E94DC210E94841D60E289ED93E00E94C5
:103C500014210E94841D65E874E089ED93E00E94C0
:103C6000F0200E94841D4AE050E0B40189ED93E009
:103C70000E94F7210E94841D81E00F900F900F9009
:103C80000F90DF91CF911F910F91FF90EF90DF90F8
:103C9000CF90BF90AF909F908F907F900895F70145
:103CA000828193810817190738F78BE693E00E9409
:103CB0007E138111E1CF41E070E060E089ED93E097
:103CC0000E949322D62E41E050E0BE016C5F7F4FF0
:103CD00089ED93E00E94F4225801FFEFAF1ABF0A6A
:103CE000F70180819181800F911F9A8389836D2DC7
:103CF000CE0101960E94DE0E77247A947D0CFDEFB2
:103D0000F71508F4B9CFC12C41E050E0BE016D5F5A
:103D10007F4F89ED93E00E94F4226B8145018FEF84
:103D2000881A980AF70180819181A80EB91EBA827B
:103D3000A982CE0101960E94DE0EC3945401CD14D7
:103D400018F30E5F1F4F070D111DA9CF0F931F937F
:103D5000CF93DF93EC018B018CE593E00E94450F3C
:103D6000998388831B830A83DF91CF911F910F91E1
:103D70000895CF93DF931F92CDB7DEB76983DC013F
:103D8000ED91FC910280F381E02D41E050E0BE0115
:103D90006F5F7F4F09950F90DF91CF910895CF937B
:103DA000DF93EC018C859D8597FF05C082E00E9422
:103DB00025249D878C878C859D85DF91CF910895E3
:103DC00083E00E943C2490E0089583E00C94CE268A
:103DD000FC018485958597FD06C082E00E94BF2383
:103DE00090E00196089582E00E94BF2390E008953C
:103DF000FC018485958597FD05C02FEF3FEF358742
:103E00002487089582E00C942524CF93DF93EC015E
:103E100080912901882331F083E00E9456241816EE
:103E2000190634F081E090E09B838A8380E090E083
:103E3000DF91CF910895EEEFFFE72591349181E076
:103E40002B3F3C4D09F080E00895FC0190819E5F7E
:103E5000908342E450E068EA74E080E80C9407251F
:103E6000FC0181819081913A61F4813209F083C033
:103E700047E050E062E271E080E00E94072581E0C7
:103E80000895913209F077C0833269F48281938179
:103E9000B0E0A0E080931E0190931F01A093200149
:103EA000B0932101ECCF803239F467E070E082E218
:103EB00091E00E942D25E3CF823209F78281809321
:103EC00029010E941B1FE0E0F8E0882311F0EEEFCB
:103ED000FAE08091220190912301A0912401B091F8
:103EE0002501803B9440A105B105D9F480912901B9
:103EF00080FD17C0EE3F8AE0F80771F587E797E786
:103F000091838083809160008093290488E19BE005
:103F10000FB6F894A895809360000FBE9093600050
:103F2000AECF808191818737974709F0A8CFA895B8
:103F30008091600088618093600080912904809363
:103F40006000EE3F8AE0F80789F08091FE0A9091C8
:103F5000FF0A9183808393CF80819181873798076F
:103F600069F29093FF0A8093FE0AC8CF1092FF0A6D
:103F70001092FE0A84CF80E008952FEF3FEFFC01FE
:103F8000358724870895E9EDF3E01382128288EEE5
:103F900093E0A0E0B0E084839583A683B78388ECA8
:103FA00091E0918380838FEF9FEF958784870895B9
:103FB000EF92FF920F931F93CF93DF937B01FC014E
:103FC000C281D38110E000E0209791F0E881F9816F
:103FD0000280F381E02DB701CE01099597FD06C05F
:103FE000080F191F0884D985C02DEECF0FEF1FEFE2
:103FF000C801DF91CF911F910F91FF90EF9008952D
:104000000F931F93CF93DF938B01FC01C281D38168
:10401000209771F0E881F9810480F581E02DB801E5
:10402000CE010995009731F40884D985C02DF0CFD1
:1040300090E080E0DF91CF911F910F9108950F9351
:104040001F93CF93DF938B01FC01C281D381209713
:1040500071F0E881F9810680F781E02DB801CE0189
:104060000995080F111D0884D985C02DF0CFF801DE
:104070001082DF91CF911F910F9108950F931F939D
:10408000CF93DF938B01FC01C281D381209771F024
:10409000E881F9810190F081E02DB801CE01099508
:1040A000811105C00884D985C02DF0CF80E0DF9153
:1040B000CF911F910F910895CF93DF93FC01DB0106
:1040C000218114968C911497820F9927991F089734
:1040D0008CF5C281D381209731F5738362839081FF
:1040E00012969C93129713962C93139715968C9176
:1040F0001597890F808380E014969C9114978917F7
:10410000E8F41696CD91DC911797C80FD11D9881D0
:10411000C181D0E0C65DDE4F988391819F5F91831E
:104120008F5FEACFEC01888599850097D9F7B98729
:10413000A887D5CF80E0DF91CF91089581E0FBCFB4
:1041400080912A0481110DC082E08093320484E0C2
:1041500080933304109235041092340481E08093EC
:104160002A0482E394E00895AF92BF92CF92DF9247
:10417000EF92FF920F931F93CF93DF936C017B011C
:104180008B01040F151FEB015E01AE18BF08C017AD
:10419000D10759F06991D601ED91FC910190F08120
:1041A000E02DC6010995892B79F7C501DF91CF91E3
:1041B0001F910F91FF90EF90DF90CF90BF90AF9045
:1041C0000895FB0101900020E9F73197AF01461BEC
:1041D000570BDC01ED91FC910280F381E02D0994F5
:1041E000EF92FF920F931F93CF93DF938C017B018C
:1041F000D0E0C0E0F701EC0FFD1F6491662361F091
:10420000D801ED91FC910190F081E02DC801099554
:10421000892B11F02196EECFCE01DF91CF911F9126
:104220000F91FF90EF900895DC01ED91FC910190CA
:10423000F081E02D099466ED71E00C94E1200F937C
:104240001F93CF93DF93EC010E94F0208C01CE01ED
:104250000E941B21800F911FDF91CF911F910F9121
:1042600008950F931F93CF93DF938C01D0E0C0E0AC
:104270006115710519F00E94E120EC01C8010E944E
:104280001B218C0F9D1FDF91CF911F910F910895DE
:104290008F929F92AF92BF92EF92FF920F931F93D4
:1042A000CF93DF93CDB7DEB7A1970FB6F894DEBFFB
:1042B0000FBECDBF7C01FA01CB0119A2223008F458
:1042C0002AE08E010F5D1F4F822E912CB12CA12C64
:1042D000BF01A50194010E943628F901CA016A3084
:1042E0000CF5605DD8016E938D01232B242B252BBB
:1042F00079F790E080E0109721F0BD01C7010E949E
:10430000E120A1960FB6F894DEBF0FBECDBFDF91BE
:10431000CF911F910F91FF90EF90BF90AF909F9022
:104320008F900895695CDECFCF92DF92EF92FF927B
:104330000F931F93CF93DF932115310581F4DC0197
:10434000ED91FC910190F081E02D642FDF91CF91F0
:104350001F910F91FF90EF90DF90CF9009942A303A
:10436000310501F52AE077FF1DC06A017B01EC01F0
:104370006DE20E9414218C0144275527BA014C1983
:104380005D096E097F092AE0CE010E944821800F55
:10439000911FDF91CF911F910F91FF90EF90DF90D0
:1043A000CF900895DF91CF911F910F91FF90EF90E3
:1043B000DF90CF900C9448219A01AB01770F660BE8
:1043C000770B0C9494212115310541F4DC01ED911A
:1043D000FC910190F081E02D642F09940C94482108
:1043E0009A01462F50E070E060E00C94E3219A01BE
:1043F000AB0170E060E00C94E3210F931F93CF9327
:10440000DF93EC010E941903688779878A879B876D
:10441000E881F9810284F385E02DCE01099597FFAB
:1044200015C00E941903088519852A853B85601BE4
:10443000710B820B930B0C811D812E813F816017C4
:1044400071078207930720F38FEF9FEFDF91CF91E2
:104450001F910F9108950F931F93CF93DF93EC015A
:104460000E941903688779878A879B87E881F98189
:104470000484F585E02DCE01099597FF15C00E94B3
:104480001903088519852A853B85601B710B820BF2
:10449000930B0C811D812E813F816017710782076C
:1044A000930720F38FEF9FEFDF91CF911F910F9133
:1044B0000895FF920F931F93CF93DF93EC018B012D
:1044C000F42ECE010E942B2297FD1DC08D32910546
:1044D000D1F09C01205331092A303105A0F0FF2092
:1044E00019F08E32910579F00130110551F002304A
:1044F000110589F48D30910571F05CF409970297EC
:1045000050F08FEF9FEFDF91CF911F910F91FF90B0
:1045100008958097B1F7E881F9810284F385E02D51
:10452000CE010995CECFBF92CF92DF92EF92FF924C
:104530000F931F93CF93DF938C01C42F40E00E9411
:104540005922FC01C12CD12C760197FD3EC0B12C23
:104550000C2E000CDD0BCE17DF07D9F0ED32F10584
:1045600009F43FC0CF01C0970A9798F4AAE0B0E0E1
:10457000A70196010E946D286F01FF0FEE08FF084A
:10458000C60ED71EE81EF91E80E3C81AD108E1083E
:10459000F108D801ED91FC910284F385E02DC8016A
:1045A0000995C8010E942B22FC01C0970A9798F236
:1045B000CE17DF0781F2BB2041F0F094E094D09455
:1045C000C094C11CD11CE11CF11CC701B601DF91D4
:1045D000CF911F910F91FF90EF90DF90CF90BF9000
:1045E0000895BB24B394D5CFAF92BF92CF92DF9200
:1045F000EF92FF920F931F93CF93DF935C017B01A8
:104600008B01040F151FEB016E01CE18DF08C017D8
:10461000D10739F0C5010E94FD2197FD02C08993A1
:10462000F3CFC601DF91CF911F910F91FF90EF90D3
:10463000DF90CF90BF90AF9008958091D7008160B8
:104640008093D70080EA8093D80089B5806189BDC6
:1046500089B5826089BD09B400FEFDCF61E070E0DC
:1046600080E090E00E944A038091D8008F7C8061B6
:104670008093D8008091E000807F8093E0000895CF
:10468000CF93DF931F92CDB7DEB71982CE0101968B
:104690000E94251F0E94A020BE016F5F7F4F0E94D5
:1046A000D81F89810F90DF91CF91089540913904EF
:1046B00050913A042091370430913804421753073F
:1046C000B4F49091E8009570E1F39091E80092FDC8
:1046D00019C08093F1008091390490913A040196B9
:1046E0008F739927892B19F48EEF8093E8008091BE
:1046F000390490913A04019690933A0480933904D6
:1047000081E0089580E00895EF92FF920F931F9348
:10471000CF93DF93F82E192FE62E042F81E0860F1A
:10472000880F0E94562383E00E945623CF2DD12F5D
:10473000EC0EFD2EF11CCE15DF05B9F007FF13C0FE
:10474000FE0184910E945623182F80E00E94562378
:10475000812321968111EFCFDF91CF911F910F918E
:10476000FF90EF9008958881EDCF81E0F5CF2FB7CE
:10477000FC012083F89467706093E9000895CF935B
:10478000DF931F92CDB7DEB7682FCE0101960E944E
:10479000B7238091F200811107C09091E80092FF49
:1047A00003C09BE69093E80099819FBF0F90DF9133
:1047B000CF910895EF92FF920F931F93CF93DF93C2
:1047C0001F92CDB7DEB790913D049923D9F157FDE3
:1047D00039C08A017B01682FCE0101960E94B72360
:1047E0008091F20081110BC09091E800892F8470B4
:1047F00092FF05C08BE68093E8008091F20090E084
:10480000081719070CF4C801282FF70144E62150B6
:1048100030F040933E043091F1003193F8CF00978F
:1048200039F02091F200211103C02BE62093E8001B
:1048300029812FBF0F90DF91CF911F910F91FF9092
:10484000EF9008958FEF9FEFF5CFCF93DF931F92F7
:10485000CDB7DEB741E050E0BE016F5F7F4F0E94F1
:10486000DA23019731F4898190E00F90DF91CF91A5
:1048700008958FEF9FEFF9CFCF93DF931F92CDB7BE
:10488000DEB7682FCE0101960E94B7239091E80011
:10489000892F807295FF04C09091F20080E4891BFB
:1048A00099819FBF0F90DF91CF9108955F926F9292
:1048B0007F928F929F92AF92BF92CF92DF92EF92B0
:1048C000FF920F931F93CF93DF931F92CDB7DEB765
:1048D000982E6B01B42E052F80913D04811113C0D9
:1048E0008FEF9FEF0F90DF91CF911F910F91FF906E
:1048F000EF90DF90CF90BF90AF909F908F907F9080
:104900006F905F90089580913B0480FF05C0809177
:10491000E00082608093E000EB2CF02EA12C8AEF67
:10492000882E892D8072682E892D8074582E9AE3E6
:10493000792EE114F10419F4AA2009F457C0892D45
:104940000E943C24182F81110AC08A94882041F2C9
:1049500061E070E080E090E00E944A03EACF8E15AB
:104960001F0411F00CF01E2D692DCE0101960E943E
:10497000B7238091E80085FD03C089818FBFD9CF1F
:10498000812F90E0E81AF90A662029F01150A0F072
:104990001092F100FBCFF60197FC0AC0115050F0C5
:1049A00021912093F100FACF24912093F1003196C8
:1049B0001150D0F7C80ED91EAA2021F07092E8003D
:1049C000A12CDBCF8091E80085FD08C07092E80043
:1049D000AA24A394E114F10481F2F2CFE114F104CA
:1049E00061F6552051F27092E800C7CF84E68093BB
:1049F0003F048B2D902F76CF1092E90010923A044D
:104A00001092390490933804809337040895DF920C
:104A1000EF92FF920F931F93CF93DF93D82E8A01CB
:104A2000EB017B01E40EF51ECE15DF0559F0D7FE34
:104A300012C0FE0184910E94562321968111F4CF69
:104A40000FEF1FEFC801DF91CF911F910F91FF90E2
:104A5000EF90DF9008958881EECFCF93DF93EC0144
:104A60009B01B4E6ABEF21153105F1F0A90121342A
:104A7000310514F040E450E08091E80082FFFCCF63
:104A8000942FFB01E21BF30BEC0FFD1F915028F05C
:104A90008091F10080833196F9CFB0933E04A093CA
:104AA000E800241B350BDFCFCB01DF91CF910895B8
:104AB0001F920F920FB60F921124CF92DF92FF92A6
:104AC0000F931F932F933F934F935F936F937F9316
:104AD0008F939F93AF93BF93EF93FF93CF93DF9306
:104AE000CDB7DEB76C97DEBFCDBF1092E9008091E5
:104AF000E80083FF2FC189E0FE017596FE2E0F2F7F
:104B0000815029F09091F10090833196F9CF84E69D
:104B100080933E0482EF8093E8008D8987FF1BC05D
:104B20009091E80090FFFCCF982F907609F0F7C0A5
:104B30009E894F89588D2F89188D911113C0803807
:104B400071F480913C048093F1001092F1008EEF9B
:104B50008093E800FFC09EEF9093E800E5CF1092AD
:104B6000F100F3CF913059F48111F1CF413051056B
:104B700071F780913C048D7F80933C04E8CF9330A3
:104B800049F48111E4CF4130510509F780913C048B
:104B90008260F2CF953041F48091E80080FFFCCF35
:104BA00020682093E300D3CF963009F08AC0CB8CE5
:104BB000DC8C123041F590E080E00E94FC240E94E1
:104BC00040231F8299E099831A8391E09E8390EAA3
:104BD00098879CE099872091390430913A04275FA7
:104BE0003F4F3C832B838D83C6010E94FC2449E008
:104BF00050E0BE016F5F7F4F80E00E9407250E945A
:104C0000402381E022C0C6010E94FC240E94A02013
:104C10006F2D702F0E9400209C01892B31F081E0C4
:104C20001216130694F080E010C01130F1F1133029
:104C3000D1F78F89882309F441C08230D1F440E84C
:104C400066E087E095E00E9484232091390430914A
:104C50003A044091370450913804241735072CF456
:104C60002F733327232B09F493C0882309F492C0B0
:104C70006ECF813029F440E86AE08CEF94E0E3CF16
:104C8000833089F60E94A0208E010F5F1F4FB8016C
:104C90000E941F20F80101900020E9F73197BF0121
:104CA000601B710B40E0C801CECF6AEE74E0FB01DF
:104CB000449150E080E80E940725A3CF6EE075E0A4
:104CC000F6CF973009F466C0983021F481E08093E4
:104CD000F1003DCF993009F03ACF837009F05AC006
:104CE000EBE2F1E081E031E096E32191222371F0E3
:104CF0008093E9003093EB00DF0111972C91209312
:104D0000EC009093ED008F5F873079F78EE780930A
:104D1000EA001092EA008F8980933D0418CF8B8DB2
:104D20009C8D0E94FC24898D811105C08F2D902FB0
:104D30000E94301F8ACF0E94A0206F2D702F0E94EA
:104D40003E2083CF8091E8008570E1F38091E800F8
:104D500082FFFDCE6C960FB6F894DEBF0FBECDBFBE
:104D6000DF91CF91FF91EF91BF91AF919F918F9183
:104D70007F916F915F914F913F912F911F910F9173
:104D8000FF90DF90CF900F900FBE0F901F9018955F
:104D90008111D8CF81E28093EB00DCCF8093E900D2
:104DA0008091F200882319F08AE38093E800089547
:104DB0001F920F920FB60F9211242F933F934F9390
:104DC0005F936F937F938F939F93AF93BF93CF9393
:104DD000EF93FF93C091E1008091E100837F809386
:104DE000E100C3FF0FC01092E90081E08093EB0067
:104DF0001092EC0082E38093ED0010923D0488E075
:104E00008093F000C2FF15C083E00E94CE268091FF
:104E10003F04882329F080913F04815080933F0410
:104E200080913E04882329F080913E048150809334
:104E30003E04C4FF23C08091E2008E7E8160809397
:104E4000E2008091E1008F7E8093E10080913B043D
:104E50008E7E806180933B04FF91EF91CF91BF9153
:104E6000AF919F918F917F916F915F914F913F9102
:104E70002F910F900FBE0F901F901895C0FFECCF91
:104E80008091E2008E7E80618093E2008091E1005B
:104E90008E7E8093E10080913B048E7E8160DACF2C
:104EA00010923D0410923C0410923B040E941D237A
:104EB000E1EEF0E080818E7E80838DE08093E200E1
:104EC000559A209A089590913D0481E0911101C076
:104ED00080E008958091E0008D7F8093E0008091D4
:104EE000E00081FD11C080913B0480FF0DC08091E6
:104EF0003C0481FF09C00E941D238091E000826074
:104F00008093E00081E0089580E008950895109274
:104F1000A1041092A20408950F931F93CF93DF93DF
:104F2000FB012081213879F52381223261F5DC01F2
:104F300012964C91248135814217130621F5EC011C
:104F400081E00E9435280F88D88DC02D10E000E048
:104F5000209781F04C815D816A817B8180E80E948D
:104F600007258F3F980751F0080F191F0990D88126
:104F7000C02DEECF80E00E943528C801DF91CF918F
:104F80001F910F91089590E080E0F8CFFC01A78970
:104F9000B08D109771F4708F678B84859585DB01D8
:104FA00014962D913C91820F931F958784870895C5
:104FB000DC018D919C9111970097D1F76D937C93B3
:104FC000ECCFCF92EF920F93CF93DF93EC01C12CF4
:104FD000EE24E39400E020E450E040E070E060E084
:104FE0000E94DA0D8DED91E099838883188E1F8AD7
:104FF0000E94FC0C80E48E870E94A020BE01DF91FD
:10500000CF910F91EF90CF900C945C208091A304EE
:10501000811107C08BEA94E00E94E12781E0809330
:10502000A3048BEA94E00895CF92DF92EF92FF926F
:105030001F93CF93DF93162F7A0169010E94FF0D12
:10504000EC01E0912803F0912903309729F09C01AD
:10505000A601B701812F0995CE01DF91CF911F9154
:10506000FF90EF90DF90CF9008950895A1E21A2E5F
:10507000AA1BBB1BFD010DC0AA1FBB1FEE1FFF1FFC
:10508000A217B307E407F50720F0A21BB30BE40B4C
:10509000F50B661F771F881F991F1A9469F7609593
:1050A0007095809590959B01AC01BD01CF0108954D
:1050B000EE0FFF1F0590F491E02D0994A29FB0011F
:1050C000B39FC001A39F700D811D1124911DB29F3C
:1050D000700D811D1124911D08950E945E28A59FC9
:1050E000900DB49F900DA49F800D911D11240895E3
:1050F000FB01DC0102C005900D9241505040D8F7F1
:105100000895FB01DC018D91059080190110D9F300
:10511000990B0895FB01DC0104C08D910190801969
:1051200021F441505040C8F7881B990B0895FB01AA
:10513000DC0102C001900D9241505040D8F7089513
:105140006817790768F4FB01DC01E40FF51FA40F71
:10515000B51F02C002900E9241505040D8F70895FA
:105160000C949728DC0101C06D9341505040E0F74A
:105170000895F999FECF92BD81BDF89A992780B51F
:105180000895262FF999FECF1FBA92BD81BD20BD8B
:105190000FB6F894FA9AF99A0FBE01960895F8940A
:1051A000FFCF03FF9E0A01C409FA00FFFFFFFF00C3
:1051B000000000000000000000000000000000FFF0
:1051C000FFFFFFFF00E100000000000000C1808140
:1051D000000000FFFFFFFFFFFFFFFF6174726575B6
:1051E0007300F40100000000FD0BB420F10B000C73
:1051F000F40BF70BFA0B00000000090C0A0C00007E
:105200000000010C020C040C070C000000000C0C48
:10521000F7C267663635979694959392F6F5F4F152
:10522000000000007A0D0B0D5F0D720CFF0D790C64
:10523000810C9E0C7A0CA70C880CE9FF0000840CF2
:10524000A20CC80C9B0C7D0C000000007A0D0B0D0D
:105250005F0D720CFF0D790C000000003D0E000088
:105260000000840E9A0E00000000B91E051FE01E0B
:10527000E51EE81EF81ECF1E0D0A00000000007A91
:0C5280000D0B0D8C27E5031428790C00A1
:1070000055C000006EC000006CC000006AC00000E7
:1070100068C0000066C0000064C0000062C00000DC
:1070200060C000005EC0000075C400005AC00000CF
:1070300058C0000056C0000054C0000052C00000FC
:1070400050C00000B6C000004CC000004AC00000A4
:1070500048C0000046C0000044C0000042C000001C
:1070600040C000003EC000003CC000003AC000002C
:1070700038C0000036C0000034C0000032C000003C
:1070800030C000002EC000002CC000002AC000004C
:1070900028C0000026C0000024C0000022C000005C
:1070A00020C000001EC000001CC0000011241FBE34
:1070B000CFEFDAE0DEBFCDBF11E0A0E0B1E0E0EE5F
:1070C000FDE702C005900D92A63BB107D9F721E07C
:1070D000A6EBB1E001C01D92A63CB207E1F70ED3CA
:1070E00073C68ECF84E08093E9008091E80085FF2D
:1070F00003C08091F1000CC08091E8008B778093F1
:10710000E8008091E80082FDF0CF8EB38111F9CFC5
:10711000089593E09093E9009091E80095FF03C0F3
:107120008093F10008959091E8009E779093E80095
:107130009091E80090FDF4CF9EB39111F9CF08959E
:10714000F89410926F0010928100109285001092B6
:10715000840081E085BF15BE0C940000089584B7BB
:10716000877F84BF0FB6F894A895809160008861EE
:1071700080936000109260000FBE90E880E00FB630
:10718000F89490936100809361000FBE81E085BF09
:1071900082E085BFE1E6F0E09083108210928900E2
:1071A0009AEF9093880080936F0083E08093810032
:1071B00099C31F921FB61F9211242F938F939F93F1
:1071C000EF93FF931092850010928400F0E0E0E0CE
:1071D00085919491019649F08091B6019091B70103
:1071E00001969093B7018093B601FF91EF919F9123
:1071F0008F912F911F901FBE1F90189542E061EC58
:1072000082E005D342E161E883E001D342E160E836
:1072100084E0FDC28091BE01982F9F779132B9F42E
:107220009091BF019032A1F0913289F4813A79F4C2
:107230008091E800877F8093E80067E070E082E05B
:1072400091E019D48091E8008B778093E80008954D
:107250008132E9F78091E800877F8093E80067E05A
:1072600070E082E091E05BD48091E8008E77EDCF12
:107270004F925F926F927F928F929F92AF92BF9246
:10728000CF92DF92EF92FF920F931F93CF93DF93F2
:1072900084E08093E9008091E80082FF1EC222DF33
:1072A000C82F853451F58CE393E79093B701809311
:1072B000B60107B600FCFDCFF999FECF81E18093BE
:1072C0005700E8958DE025DF83E08093E9009091F9
:1072D000E8008091E8008E778093E80095FFF0C188
:1072E0008091E80080FFF6C184E08093E9008091FE
:1072F000E8008B778093E800F0C1843511F4F2DE6A
:10730000E1CF8C34F9F28035E9F2843721F484E45A
:1073100000DF80E0D8CF89E5C136A9F2C134D1F4CD
:10732000E1DEC82FDFDE2C2F30E0322F2227330F93
:1073300090E0880F991F822B932B092E000CAA0B2B
:10734000BB0B8093B8019093B901A093BA01B0939D
:10735000BB01B8CF83E5C03709F4B5CFC33549F4D5
:10736000CDEAD1E08991D5DE21E0C43BD207D1F747
:10737000ABCFC63521F481E3CCDE80E3A4CFC337A5
:1073800031F487E8C6DE85E9C4DE8EE19CCFC536E0
:10739000B9F4F0E0E0E083E095E080935700E895F1
:1073A00007B600FCFDCF90935700E89507B600FCA8
:1073B000FDCFE058FF4FE11520E7F20771F782CFCC
:1073C00089E0E1E0F0E0C23779F089E0F0E0E0E068
:1073D000C63451F089E0E3E0F0E0CE3429F0C13565
:1073E00039F489E0E2E0F0E08093570084916BCFBC
:1073F000C23631F489E58DDE80E08BDE80E863CF34
:10740000C23419F0C73609F0CBC01092B701109200
:10741000B60168DE182F66DE082F64DED82F8BEBEE
:107420008D0F823010F08FE34ECF10926F00C73671
:1074300009F045C081E180935700E895C0E0BB2486
:10744000B3940150110920F482E080936F003CCF87
:10745000C090B801D090B901E090BA01F090BB01A2
:10746000D634B9F4EC2FF0E0EC29FD29849151DEFB
:10747000CC2369F082E0C80ED11CE11CF11CC09243
:10748000B801D092B901E092BA01F092BB01CB25CC
:10749000D8CFD701C601B695A795979587957ED485
:1074A00038DEE2E0CE0ED11CE11CF11CC092B80126
:1074B000D092B901E092BA01F092BB01C2CF4090E4
:1074C000B8015090B9016090BA017090BB01D634F8
:1074D00041F483E0F20180935700E89507B600FC81
:1074E000FDCFC0E0F12CEE24E39424C0D63409F0A3
:1074F00034C0FF2079F18090B8019090B901A0903C
:10750000BA01B090BB01EEDD982F8C2FF4010C0175
:10751000E0925700E8951124F2E08F0E911CA11C17
:10752000B11C8092B8019092B901A092BA01B092B8
:10753000BB01FE2401501109C8F6D63441F485E0A0
:10754000F20180935700E89507B600FCFDCF8DE06F
:10755000E0DD7ACFC7DDC82FECCFC4DD682F809186
:10756000B8019091B901A091BA01B091BB01B69553
:10757000A795979587951AD48091B8019091B901F4
:10758000A091BA01B091BB010296A11DB11D8093DB
:10759000B8019093B901A093BA01B093BB01CACFCF
:1075A000C33471F4C091B801D091B9019BDD90E072
:1075B00021E0FE010C0120935700E895112482CEB2
:1075C000C33601F5C090B801D090B901E090BA017E
:1075D000F090BB0187DDF601E16090E021E00C0155
:1075E00020935700E8951124F2E0CF0ED11CE11C46
:1075F000F11CC092B801D092B901E092BA01F092A8
:10760000BB0160CECD3661F4E091B801F091B901D3
:1076100085E080935700E89507B600FCFDCF52CE79
:10762000C23551F4E091B801F091B901C591D491FE
:107630008D2F6FDD8C2F47CEC434D9F453DD682FE6
:107640008091B8019091B901A091BA01B091BB01AC
:10765000B695A79597958795A9D38091B8019091F4
:10766000B901A091BA01B091BB010296A11DB11D53
:1076700068CEC436F1F4C090B801D090B901E09062
:10768000BA01F090BB01D701C601B695A7959795B1
:10769000879584D33EDD22E0C20ED11CE11CF11C93
:1076A000C092B801D092B901E092BA01F092BB0148
:1076B0000BCECB3109F408CEB6CE8EB3882369F059
:1076C0008091E80080FFF9CF8091E8008E77809369
:1076D000E80006CE8EB3811103CEDF91CF911F91CA
:1076E0000F91FF90EF90DF90CF90BF90AF909F9061
:1076F0008F907F906F905F904F90089580910008D9
:1077000090910108109201081092000884B714BEED
:107710000FB6F894A89590916000986190936000DE
:10772000109260000FBEF0E0E0E0259134912F3F11
:107730003F4FB1F08230A1F08798819A8F9A899853
:107740008FE19EE40197F1F700C000007F9B08C025
:107750008FE39CE90197F1F700C000007F99F0DC0E
:10776000FEDC78941092B7011092B60181DDFFD251
:107770008091B6019091B70180339547B8F38FE9B6
:107780009FE00197F1F700C000008091E000816068
:107790008093E000D5DC90E080E00895FA01292F85
:1077A00030E022303105D1F02330310551F0213065
:1077B000310541F582E190E02BE931E0318320830E
:1077C0000895882381F0813099F08230B1F08330C0
:1077D000C9F48EE090E029E031E0F0CF8EE390E054
:1077E0002DE531E0EBCF84E090E029E531E0E6CF14
:1077F00086E290E023E331E0E1CF88E190E029E107
:1078000031E0DCCF90E080E030E020E0D7CF809323
:10781000E900EBEEF0E0808181608083EDEEF0E046
:1078200010826093EC0040838091EE00881F8827CF
:10783000881F08958091BE0187FF11C08091E800E4
:1078400082FF06C08091E8008B778093E80003C038
